S0030000FC
S3FD00000000C06400205D6200001107000029070000150700001507000015070000150700001507000015070000150700001507000015070000150700001507000015070000150700001507000015070000150700001507000015070000150700001507000015070000150700001507000015070000150700001507000015070000150700001507000015070000150700001507000015070000150700001507000015070000150700001507000015070000150700001507000015070000150700001507000015070000150700001507000015070000150700001507000015070000150700001507000015070000150700001507000015070000150700005F
S3C9000000F815070000F118000015070000150700001507000015070000150700001507000015070000150700001507000015070000150700001507000015070000150700001507000015070000150700001507000015070000150700001507000015070000150700001507000015070000255A0000150700001507000015070000150700001507000015070000150700001507000015070000150700001507000015070000150700009909000015070000F50900008D0A0000E90A0000150700001507000015070000D8
S31500000400FFFFFFFFFFFFFFFFF8FFFFFF7EFFFFFF7E
S3FD000004104CF2205142F20E00C4F2050001804DF6281142F20E00C4F205000180D22142F20000C4F205000180704700000FB40020C4F20200007800F02000002807D00021C4F20201087840F0200008701EE00020C4F20200007800F01000002807D00021C4F20201087840F0100008700EE00020C4F20200007800F04000002806D00021C4F20201087840F0400008704FF20402C4F2010211686FF01000084010604FF20802C4F2010211686FF010000840106004B0704738B5054600240020C4F20200007800F080000028F7D009210720C4F202000170280CC1B20620C4F202000170280AC1B20520C4F202000170E9B20420C4F202000170002136
S3FD00000508C4F20201087840F0800008700020C4F20200007800F080000028F7D00020C4F20200007800F02000002809D00021C4F20201087840F02000087044F001042DE00020C4F20200007800F01000002809D00021C4F20201087840F01000087044F002041BE00020C4F20200007800F04000002809D00021C4F20201087840F04000087044F0080409E00020C4F20200007800F00100002801D044F004042046BDE8384070472DE9F04107460D4690460024B8F1000F01D111208EE0A8F101008008461C0020C4F20200007800F080000028F7D07BE006210720C4F202000170380CC1B20620C4F202000170380AC1B20520C4F202000170F9B225
S3FD000006000420C4F202000170E9780B20C4F202000170A9780A20C4F20200017069780920C4F20200017029780820C4F2020001700021C4F20201087840F0800008700020C4F20200007800F080000028F7D00020C4F20200007800F02000002809D00021C4F20201087840F02000087044F001042DE00020C4F20200007800F01000002809D00021C4F20201087840F01000087044F002041BE00020C4F20200007800F04000002809D00021C4F20201087840F04000087044F0080409E00020C4F20200007800F00100002801D044F00404761E2D1D3F1D002E02D0002C3FF47FAF2046BDE8F041704700004AF2026142F20C00C4F2050001804BF25B
S3FD000006F8804142F20C00C4F20500018042F20C00C4F20500008870477047000010B54EF60450CEF200000478BDE8104070470000704700000FB42DE9F8078846924699460C9D0D9EB8F1030F30D1B9F1000F08D1DFF8920040682860DFF88A00007A30603BE0002401270DE00A206043DFF87A10085A814504D1BAF1040F05D2574603E0641CE4B2012CEFD30A2004FB00F1DFF85E004158B800085828600A2004FB00F1DFF84E004058C05D306016E0B8F1080F11D24FEA8801DFF83E00405828602868002801D1CD2009E04FEA8801DFF82A004058306001E0CD2000E00020BDE8F80704B07047C0464086FF1F4986FF1F4B86FF1F4F86FF1F9C869F
S3FD000007F0FF1F3C7D000000000FB430B40D461446012D05D2DFF81200405D2070002000E0CD2030BC04B07047C046E889FF1F00000FB418B40C46012C06D204A80178DFF812000155002000E0CD2018BC04B07047C046E889FF1F00000FB418B400240AE003A80188DFF81C00005D814201D1012004E0641CE4B2022CF2D3002018BC04B07047C046247D00000FB4002004B070470FB4DFF8080004B07047C0462B7D000008B501F0B9FB01F00FFC4EF28811CEF20001086840F4007008604EF20811CEF20001086840F40070086000F039F800F08FFB01200021002201F094FA002001F061F800F04FFBFFF707FF00F071FB00F0B3FCDFF84600006866
S3FD000008E80128F4D1DFF83A004068411CDFF832004160DFF82E0041684CF6E000C0F210008142E4D900200021002201F06FFA0421C0F2FA514EF60C50CEF200000160D6E7C046EC89FF1F000008B5DFF860104EF60850CEF20000016000F000F948F24801C4F20401086800F00F00086048F24800C4F20400006848F20401C4F20401086840F4A020086048F23401C4F20401086840F48020086047F20001C4F20401086840F000400860BDE808407047000000004EF28821CEF20001086840F4000008604EF20811CEF20001086840F40000086072B649F2A000C4F20400006800F4002000280FD0DFF82000007840F00201DFF81800017049F2A00182
S3FD000009E0C4F20401086840F40020086062B67047F489FF1F08B54EF28821CEF20001086840F0007008604EF20811CEF20001086840F00070086072B64BF2A000C4F20400006800F0020000280FD0DFF85C00007840F00201DFF8500001704BF2A001C4F20401086840F0020008604BF2A000C4F20400006800F0040000280FD0DFF82800007840F00801DFF8200001704BF2A001C4F20401086840F00400086062B601F01BFBBDE808407047F489FF1F4EF28821CEF20001086840F0806008604EF20811CEF20001086840F08060086072B64CF2A000C4F20400006800F0010000280FD0DFF82000007840F00201DFF8180001704CF2A001C4F20401B9
S3FD00000AD8086840F00100086062B67047F489FF1F4EF28821CEF20001086840F0006008604EF20811CEF20001086840F00060086072B64DF2A000C4F20400006800F0806000280FD0DFF82000007840F00801DFF8180001704DF2A001C4F20401086840F08060086062B67047F489FF1F0A2145F20000C4F206000170242144F20100C4F206000170A02144F20000C4F20600017044F20600C4F20600007800F002000028F6D044F20600C4F20600007800F010000028F6D144F20600C4F20600007800F00C0080080228F5D1072144F20400C4F206000170002144F20500C4F2060001704FF4803148F24400C4F204000160402144F20500C4F2060038
S3FD00000BD0017044F20600C4F20600007800F020000028F6D044F20600C4F20600007800F040000028F6D044F20001C4F20601087800F03F00087044F20600C4F20600007800F00C0080080328F5D100207047000038B500240025DFF86400007801282AD1002406E0002500E06D1CB5F57A7FFBD3641CB4F57A7FF5D3002003F05DF90021DFF838000170002406E0002500E06D1CB5F57A7FFBD3641CB4F57A7FF5D372B6DFF81C000078DFF81C100022DFF8183003F0B6F862B6BDE838407047F589FF1FF989FF1F9D0C0000C90C00000FB418B40C46002C04D10021DFF81800417006E0022C04D10121DFF80C004170FFE718BC04B07047F989FF1FC1
S3FD00000CC80FB42DE9F04385B017460DA8007881280FDC812800DB20E0042800F337810328C0F23481032800F03181042800F02E812CE18238042800F229814FEA80008744F0BF00F023B800F021B900F014B900F014B900F000B8B94618E13C466078217800020143A07800040143E07800060143480A627A217A12021143A27A12041143E27A1206114300F0EDFEFFE03C466078217800020143A07800040143E07800060143480A022808D1DFF8EC010078002803D10121DFF8E40181706078217800020143A07800040143E07800060143480AB0F5F47F41D1DFF8C401807801283CD16079217900020143A07900040143E07900060143A1F120055B
S3FD00000DC00DE0607A217A00020143A07A00040143E07A00060143485D002802D1203D002DEFD1607A217A00020143A07A00040143E07A000601434A19507F117F00020143907F00040143D07F00060143DFF8580101600121DFF8480101700021DFF8440181706078217800020143A07800040143E07800060143480AB0F5027F0AD1DFF820010078002805D001F092F90021DFF81C0101706078217800020143A07800040143E07800060143480AB0F5027F2CD3DFF8EC000078002827D04FF48060012101F090F9DFF8DC004078002818D1617A207A09020843A17A09040843E17A090608436279217912021143A27912041143E2791206114300F026
S3FD00000EB8B9FDDFF8A81048704FF48060002101F06DF96078217800020143A07800040143E07800060143480AA0F50270DFF880100A78DFF87C10497809020A43DFF87010897809040A43DFF86810C97809060A43511E490A884221D1DFF84C00007800281CD00121DFF844000170DFF84000C078002803D10321DFF83400C1700121DFF8380001600AE0B84608E03E464FF4002030604FF4007070600120307205B0BDE8F04304B07047C0465C95FF1FF589FF1FFC8BFF1F5195FF1FEC89FF1F38B500250020FFF75FFADFF8340040F2032102F015FF0021DFF82400017072B6DFF81C000078DFF81C100022DFF8183002F024FF044662B6BDE8384025
S3FD00000FB07047C046F989FF1F9D0C0000C90C000008B503F05BFADFF814004078012801D1FFF726FEBDE808407047C046F989FF1F10B542F2107448F23401C4F20401086840F4006008600021DFF8D40141700021DFF8CC01C1700021DFF8C401817040F213314BF20C00C4F2040001604FF451714BF21000C4F204000160601300F01F014BF20000C4F2060001706011C1B24BF20100C4F20600017004F01F014BF20A00C4F20600017000214BF20200C4F20600017000214BF21000C4F20600017048F23C01C4F20401086840F00200086048F24001C4F20401086840F002000860002141F20000C4F202000170002149F21C00C4F200000180002130
S3FD000010A848F20000C4F200000160002148F20310C4F200000170002148F21400C4F2000001604BF20701C4F2060149F20000C4F200000160002149F20400C4F200000180502149F20600C4F200000180012149F20800C4F200000160002149F20C00C4F200000160DFF8C41049F21000C4F200000160012149F21400C4F200000180012149F21600C4F200000180012149F21E00C4F200000180002149F21800C4F20000016048F20C01C4F20001086840F001000860842141F20000C4F20200017020214BF20B00C4F2060001702C214BF20300C4F20600017040214EF22F40CEF2000001704FF400414EF20410CEF2000001604EF6FC51CEF200016F
S3FD000011A0086840F08070086041F20001CEF20001086840F00100086041F20400CEF200000168DFF814000160BDE810407047C046008CFF1F0090FF1F208DFF1F70B506460D4632240EE03078002806D028783F2805D029783078814201D0012008E0761C6D1C641E2878002801D0002CEBD10020BDE870407047000010B50446E07800F00F03A07800F00F000201207800F00F000103607800F00F000002084310431843BDE810407047000038B5002500F022FB0446B4F1FF3F00F0A480E2B2DFF8540590F80B11DFF850054254DFF8480590F80B01FE2809D2DFF83C0590F80B01411CC9B2DFF8300580F80B110022DFF8240590F80B11DFF820055B
S3FD000012984254DFF820054079032804D0DFF814054079042829D1DFF80805DFF80C15FFF791FF002821D1DFF8F404D0F80C01F0281BD2DFF8E804D0F80C01002805D1DC21DFF8D804C0F80C115FE0DFF8D004D0F80C01F02859D2DFF8C404D0F80C01411CDFF8B804C0F80C114FE0DFF8B8044079032804D0DFF8AC04407904283BD1DFF8A004DFF8A814FFF75DFF002833D1DFF88C04D0F80C01F0282DD2DFF88004D0F80C01002817D1DFF88804FFF769FF0446EF2C06D2C4F1F001DFF86004C0F80C1123E00121DFF85404C0F80C11A121DFF84C04017019E0DFF84404D0F80C01F02813D2DFF83804D0F80C01411CDFF82C04C0F80C1109E004F094
S3FD00001390FF000D2805D10021DFF8180480F80B110125DFF81804407901282FD141F20400CEF200000168DFF8FC03D0F81401091A42F25240CFF6FB7081421FD301250021DFF8E00380F80B11DFF8E0030279DFF8DC030079411EC9B2DFF8D0030171002A04D00021DFF8C403417107E00521DFF8BC0301710221DFF8B4034171002D00F0CD8100250021DFF89C03C0F80C11DFF89C034079052800F2C1814FEA80008744F0BF00F00AB800F01AB800F02AB800F035B800F00CB900F0B1B9DFF8800300F00FFA0121DFF86403417141F20400CEF200000168DFF84C03C0F814119EE1DFF84803DFF85C13FFF7B1FE002804D10321DFF83803417191E15F
S3FD000014880021DFF8300341718CE1DFF8400300F0EBF9DFF83C0300F0E7F90021DFF8140341717FE1DFF80803DFF82813FFF792FE002848D1DFF8F40290F8210000F0FF00DFF8E81291F82010090201F47F43DFF8DC12897F0A06DFF8D412C97F090401F47F01114319430143DFF8C00241600021DFF8B80281600121DFF8DC02017000F033FE0021DFF8D40201700021DFF89C020170DFF898020078002807D1DFF8C002142100F07FFADFF884120870DFF87C02806800F11401DFF8740281600421DFF8740241712EE1DFF86802DFF89812FFF741FE002833D1DFF8540290F8210000F0FF00DFF8481291F82010090201F47F43DFF83812897F0A0671
S3FD00001580DFF83012C97F090401F47F01114319430143DFF8200241600021DFF8180281600121DFF83C02017000F0E2FD0021DFF8340201700021DFF8FC0101700421DFF8FC014171F2E0DFF8F001DFF82412FFF705FE00282DD1DFF8DC01007F00F0FF00DFF8D011C97E090201F47F43DFF8C411497E0A06DFF8BC11897E090401F47F01114319430143DFF8AC0141600021DFF8A40181600121DFF8C801017000F0A8FD0021DFF8C00101700421DFF890014171BCE041F20400CEF200000168DFF87401D0F81401091A40F6F430CFF6FC708142C0F0AC800021DFF864014171A6E0DFF85801DFF89011FFF7B9FD002830D1DFF85801FFF7D1FD0446FF
S3FD00001678F02C03D9A121DFF83401017004F00300002803D0A221DFF824010170DFF81C010078002807D1DFF85801214600F0C2F9DFF808110870DFF8040180680119DFF8FC008160DFF8F400D0F81801411CDFF8EC00C0F818111CE0DFF8E400DFF8E810FFF780FD002814D1DFF8D0000078002807D1DFF8DC00142100F09CF9DFF8BC100870DFF8B800806800F11401DFF8AC008160DFF8A8000078002817D0DFF89C0090F81201002831D103200021DFF88C20127800F063FBDFF8840090F81201411CC9B2DFF8780080F812111FE041F20400CEF200000168DFF8AC000068091A4BF2C840C0F20700814210D341F20400CEF200000168DFF88C00CF
S3FD0000177001600220DFF83C108968DFF83820526800F038FBDFF82C008168DFF82800406881420BD30521DFF824004171DFF8600000F066F80121DFF85C000160BDE838407047C046008CFF1F0C8CFF1F5C87FF1F6287FF1F6C87FF1F158CFF1F7B87FF1F8387FF1F9387FF1FA387FF1FB487FF1F5C95FF1F5195FF1F2E8CFF1FC787FF1FDA87FF1FE887FF1F1A8CFF1F208DFF1FF787FF1FEC89FF1F0FB418B448F23400C4F20400006800F40060002821D0DFF848004478641C282C00D30024DFF83800C078A04202D1DFF8300044780298C1B2DFF8280001550121DFF81C008170E1B2DFF814004170AC214BF20300C4F20600017018BC04B0704741
S3FD00001868008CFF1F0094FF1F38B50546002404E0285DFFF7C5FF641CE4B2285D002801D0FF2CF5D9BDE838407047000010B549F21000C4F200000168DFF83E000068814202D14FF0FF3014E0DFF82E0000680478DFF826000068411CDFF81E000160DFF81E00814204D3DFF81A10DFF80E0001602046BDE810407047C0465C87FF1F0094FF1F0090FF1F0000F8B54BF20300C4F20600057805F08000002828D04BF20400C4F20600007800F0800000281FD0DFF872004678DFF86A00C478A64206D16C214BF20300C4F20600017010E0641C282C00D30024DFF84E00075DF9B24BF20700C4F206000170E1B2DFF83600C17005F04000002812D04BF2B1
S3FD000019600400C4F20600007800F04000002809D00021DFF8160081702C214BF20300C4F206000170BDE8F8407047008CFF1F0094FF1F00000FB408B5DFF814000021082204F0FAFA00F006F8BDE8084004B070472894FF1F48F23C01C4F20401086840F4000008606FF0030147F20000C4F2030001604BF6803147F20010C4F2030001606FF0010147F20810C4F2030001606FF0020147F20810C4F203000160012147F20C10C4F2030001604EF28821CEF20001086840F0100008604EF20811CEF20001086840F010000860002070472DE9F04180460F464046002100F06EF80446DFF8CE000078002844D10021DFF8C600016048F20000C1F6FF70F9
S3FD00001A5884420AD348F20000C2F20000844204D80121DFF8A20001702FE04FF6FF70204000F47F40000A4FF6FF71214001F0FF010902084380B20104200C00F47F40000A220C02F0FF021202104380B241EA00044FF6FF70C0F20300844204D80221DFF85600017009E043F23300C5F23030844203D10321DFF83E000170DFF83A000078012800D013E0DFF83200006800F5104672B6304641463A46FEF75CFD054662B6DFF816000068C119DFF80E0001602846BDE8F04170475195FF1F3094FF1F00000FB418B4029903980C58204618BC04B0704700000FB430B40D4602A8017802A8013000780002014302A8023000780004014302A80330007841
S3FD00001B5000060143F5290AD8F52900D32AE0022900F29780002906D0022923D091E0B1F5F47F35D08DE0002406E029466D1CDFF82E01005D0870641C3E2CF6DBA41C03E029466D1C002008702046641CB0F5007FF6DB29466D1C5520087029466D1CAA20087079E0002406E029466D1CDFF8F200005D0870641C042CF6DB03E029466D1C002008702046641CB0F5007FF6DB63E0DFF8D200007804280DD84FEA80008744F0BF00F008B800F006B800F010B800F01AB800F024B8002406E029466D1CDFF8AA00005D0870641C0B2CF6DB22E0002406E029466D1CDFF89600005D0870641C0B2CF6DB16E0002406E029466D1CDFF88200005D0870641CD8
S3FD00001C480B2CF6DB0AE0002406E029466D1CDFF86E00005D0870641C0B2CF6DB002406E029466D1CDFF85A00005D0870641C2F2CF6DB0B3403E029466D1C002008702046641CB0F5007FF6DB0AE0002403E029466D1C002008702046641CB0F5007FF6DB30BC04B07047BB7D00005C7D0000F889FF1F767D0000607D00006B7D0000817D00008C7D0000000038B584B00024DFF8963000AA082118889B1C1080921C491E0029F8D10120C4F20200007800F0020000282BD080210720C4F20200017035210B20C4F20200017003210A20C4F20200017072B60020C4F2020000A941F00101884762B60020C4F20200057805F0700000280BD005F07001A4
S3FD00001D400020C4F2020001700CE0641C44F62060844207D80120C4F20200007800F001000028F2D004B0BDE838407047C046FA7D000000000FB410B5029CB4F5007F01D300200CE00120C4F20200007800F00100002801D1FFF79CFF04F1A0500078BDE8104004B0704700000FB438B50D46049CB4F5007F19D20120C4F20200007800F00100002801D1FFF783FF04F1A050007885420AD004F1A05005700120C4F20200007800F001000028F7D0BDE8384004B0704700000FB42DE9F80F81B00027DFF804020078814600208246002000A908700B98002809D00C98002806D00B99382041430C98B1FBF0F0C7B20C9883464EF6FC51CEF20001086812
S3FD00001E3840F08070086041F20001CEF20001086840F00100086041F20400CEF20000006800F13C0572B6AAE0002694E0002F01D05A243CE0022E25D10AA80078022821D1A9F10500032813D84FEA80008744F0BF00F00CB800F008B800F004B800F000B8FF2406E0962404E04B2402E01E2400E00024A9F10100C0B28146002817D10820814614E0022E05D10AA80078012801D1FF240CE0012E09D10AA80078032805D10BF00100002801D0462400E00024802080464BE004EA0800002822D041F20400CEF200000068401B3C28F7D341F20400CEF200000068054604204FF28401C4F20F01086041F20400CEF200000068401B2828F7D304204FF249
S3FD00001F308801C4F20F01086021E041F20400CEF200000068401B3C28F7D341F20400CEF200000068054604204FF28401C4F20F01086041F20400CEF200000068401B0C28F7D304204FF28801C4F20F0108604FEA58008046B8F1000FB0D1761CF6B2032EFFF468AF0AF10100C0B28246002F01D07F1EFFB20AA80078032804D14FEA5B0040F000408346BAF1380FFFF451AF41F20400CEF200000068401B3C28F7D362B60AA80078022810D1DFF828000078411EC9B2DFF820000170DFF818000078002803D10821DFF80C00017001B0BDE8F80F04B070470588FF1F48F23801C4F20401086840F4305008604BF20801C4F20401086840F040000860D4
S3FD000020284BF20801C4F20401086840F48070086004214FF28800C4F20F0001604FF29401C4F20F01086840F0040008604FF480714AF20000C4F2040001604FF25402C4F20F0211686FF00100084010604AF20001C4F20401086840F0030008604FF480714DF20400C4F2040001604FF21412C4F20F0211686FF00200084010604DF20401C4F20401086840F0030008607047000038B582B0FFF708FE01200190012000900020FFF753FE0D2805D10020019000200021FFF765FE4FF41043D3F800C0DFF88030C3F800C049F20403D3F800C0DFF87430C3F800C0019B002B07D04FF21013C4F20F031B6803F002030193019B012B07D04FF25003C4F28E
S3FD000021200F031B6803F001030093019B002B16D0009B002B13D0DFF830301B68B3F1FF3F0DD0DFF828301B68B3F1FF3F07D0DFF81840D4F800D0DFF814402568A84702B0BDE838407047C0466495FF1F6095FF1F38B500253B20FEF761F972B6002409E0E00200F51040FEF79DF90546002D03D1641CE4B26D2CF3D362B62846BDE838407047000070470000F8B50446D4F80100002811D10021D4F80F000160D4F80600002804D10021D4F80B000170C2E10221D4F80B000170BDE16079002800F0EC80D4F80600002825D1D4F80110D4F80600091AD4F80F00016020780121D4F81320D4F8063001F0A0FE0546002D04D10021D4F80B0001700BE076
S3FD000022180121D4F80B0001700321DFF83A0381701121DFF83203017386258FE1A07A002800F0AB80D4F80110D4F80600814240D9D4F80110D4F80600091AD4F80F000160DFF8020390F82A00012807D12078012104F1180201F0F6FE054608E020780121D4F81320D4F8063001F062FE0546D4F8060000F01F00002807D120780121D4F81320002301F054FE0543002D04D10021D4F80B00017051E10121D4F80B0001700321DFF8A20281701121DFF89A02017344E1D4F80110D4F8060081422ED10021D4F80F000160DFF87E0290F82A00012807D12078012104F1180201F0B3FE054608E020780121D4F81320D4F8063001F01FFE0546002D04D102
S3FD000023100021D4F80B0001701CE10121D4F80B0001700321DFF8360281701121DFF82E0201730FE10021D4F80F000160DFF81E0290F82A00012807D12078012104F1180201F084FE054608E020780121D4F81320D4F8013001F0F0FD0546002D04D10021D4F80B000170EDE00121D4F80B0001700321DFF8DA0181701121DFF8D2010173E0E0D4F80110D4F80F00016020780121D4F81320002301F0CFFD05460221D4F80B0001708625CDE0D4F80600002812D10226204646F01001C9B2012202F0B4FCD4F80110D4F80F0001600121D4F80B0001708625B6E0A07A002812D00227204647F01001C9B2012202F09EFCD4F80110D4F80F000160022199
S3FD00002408D4F80B0001708625A0E0D4F80110D4F80600814233D9D4F80110D4F80600091AD4F80F000160DFF82E0190F82A00012807D12078002104F1180201F00BFE054608E020460221D4F81320D4F8063003F099F80546002D04D10021D4F80B0001700BE00121D4F80B0001700321DFF8E60081700321DFF8DE000173862566E0D4F80110D4F8060081422ED10021D4F80F000160DFF8C20090F82A00012807D12078002104F1180201F0D5FD054608E020460221D4F81320D4F8063003F063F80546002D04D10021D4F80B0001703EE00121D4F80B0001700321DFF87A0081700321DFF87200017331E00021D4F80F000160DFF8620090F82A0072
S3FD00002500012810D1D4F80110DFF85200D0F83B00B1FBF0F0E0612078002104F1180201F09DFD054608E020460221D4F81320D4F8013003F02BF80546002D07D00321DFF81E0081700321DFF8160001730221D4F80B0001702846BDE8F8407047C0467095FF1F00000FB410B50446DFF86400402101F020FC0399DFF85800C0F833107021DFF84C0001700A21DFF84400C1710021DFF83C0081700021DFF8340001730021DFF82C004173DFF82800D0F83300002808D020468521DFF81C20DFF81430D3F8333098470020BDE8104004B07047C0467095FF1FA795FF1F0FB438B50C4604A80178DFF86800C174A168DFF860004161207BC011C1B2DFF876
S3FD000025F8540001761221DFF84C00C0F819100121DFF8400041770799DFF83800C0F81E100699DFF83000C0F82210DFF82810DFF82400C0F826100021DFF8180080F82A10DFF81400FFF7B4FD05462846BDE8384004B070477095FF1F8395FF1F0FB470B50C46932504F10F060021DFF8840081700021DFF87C0001730021DFF87400417304A80178DFF86800C174A168DFF860004161207BC011C1B2DFF8540001762421DFF84C00C0F819100121DFF8440041770799DFF83C00C0F81E100699DFF83000C0F82210DFF82C10DFF82400C0F826100021DFF81C0080F82A10DFF81C00FFF767FD05462846BDE8704004B07047C0467095FF1F0688FF1FB6
S3FD000026F08395FF1F0FB4F8B50C460026002593270021DFF8DA0081700021DFF8D20001730021DFF8CA004173607C0606A07C00040643E07C00020643207D0643E07B282805D1A07D000285B2E07D05430CE0E07BA82809D1607D0506A07D00040543E07D00020543207E054306A80178DFF87E00C174A168DFF876004161207BC011C1B2DFF86A0001760121DFF8620041770999DFF85A00C0F81E100899DFF85200C0F82210DFF84A00D0F83B0000FB05F1DFF83E00C0F819100021DFF83200C0F826100121DFF82A0080F82A10DFF82200C0F82B60DFF81A00C0F82F50DFF81600FFF7EBFC07463846BDE8F84004B070477095FF1F8395FF1F0000FD
S3FD000027E80FB4F8B50C460026002594270021DFF8F20081700021DFF8EA0001730021DFF8E2004173607C0606A07C00040643E07C00020643207D0643E07B2A2805D1A07D000285B2E07D05430CE0E07BAA2809D1607D0506A07D00040543E07D00020543207E054306A80178DFF89600C174A168DFF88E004161207BC011C1B2DFF8820001760021DFF87A0041770999DFF87200C0F81E100899DFF86A00C0F822100021DFF85E00C0F8261006A80221002202F03BFE002804D006A80221002202F02CFDDFF83E00D0F83B0000FB05F1DFF83200C0F819100121DFF82A0080F82A10DFF82200C0F82B60DFF81A00C0F82F50DFF81600FFF765FC0746C7
S3FD000028E03846BDE8F84004B070477095FF1F8395FF1F00000FB438B50C460021DFF8800081700021DFF8780001730021DFF87000417304A80178DFF86800C174A168DFF860004161207BC011C1B2DFF8540001760021DFF84C00C0F819100121DFF8400041770799DFF83800C0F81E100699DFF83000C0F822100021DFF82400C0F826100021DFF81C0080F82A10DFF81800FFF71BFC05462846BDE8384004B07047C0467095FF1F8395FF1F0FB438B50C460021DFF8800081700021DFF8780001730021DFF87000417304A80178DFF86800C174A168DFF860004161207BC011C1B2DFF8540001760021DFF84C00C0F819100121DFF8400041770799B0
S3FD000029D8DFF83800C0F81E100699DFF83000C0F822100021DFF82400C0F826100021DFF81C0080F82A10DFF81800FFF7D1FB05462846BDE8384004B07047C0467095FF1F8395FF1F0FB438B50D4693240021DFF8840081700021DFF87C0001730021DFF87400417304A80178DFF86800C174A968DFF860004161287BC011C1B2DFF8540001760821DFF84C00C0F819100121DFF8440041770799DFF83C00C0F81E100699DFF83000C0F82210DFF82C10DFF82400C0F826100021DFF81C0080F82A10DFF81C00FFF785FB04462046BDE8384004B07047C0467095FF1F6895FF1F8395FF1F0FB438B50C4693250021DFF89C0081700021DFF894000173B9
S3FD00002AD00021DFF88C00417304A80178DFF88000C174A168DFF878004161207BC011C1B2DFF86C0001760821DFF86400C0F819100121DFF85C0041770799DFF85400C0F81E100699DFF84800C0F82210DFF84410DFF83C00C0F826100021DFF8340080F82A10DFF83400FFF737FB0546207C00F00100002807D00521DFF8140081702421DFF80C0001732846BDE8384004B070477095FF1F6895FF1F8395FF1F0FB438B582B00D469324DFF83801D0F83700411E4FF6FF70084000F47F40020ADFF82001D0F83700411E4FF6FF70084000F0FF000002104380B20004DFF80411D1F83710491E090C01F47F410A0ADFF8F410D1F83710491E090C01F04B
S3FD00002BC8FF010902114389B208430090DFF8D800D0F83B104FF6FF70084000F47F40020ADFF8C400D0F83B104FF6FF70084000F0FF000002104380B20004DFF8AC10D1F83B10090C01F47F410A0ADFF89C10D1F83B10090C01F0FF010902114389B2084301900021DFF8800081700021DFF8780001730021DFF87000417306A80178DFF86800C174A968DFF860004161287BC011C1B2DFF8540001760821DFF84C00C0F819100121DFF8400041770999DFF83800C0F81E100899DFF83000C0F8221000A9DFF82400C0F826100021DFF81C0080F82A10DFF81800FFF783FA0446204602B0BDE8384004B070477095FF1F8395FF1F0FB42DE9F04786B060
S3FD00002CC00C4693208246A07D0102E07D084381B200A80180DFF88A02807C002801D0032000E00020C0B2814604A80230042103F043FADFF86E02807C002801D0022700E00127DFF85E02D0F837104FF6FF70084000F47F40000ADFF84A12D1F837204FF6FF71114001F0FF010902084380B20104DFF82E02D0F83700000C00F47F40000ADFF81E22D2F83720120C02F0FF021202104380B2014300A8C0F80210DFF80202D0F83B104FF6FF70084000F47F40000ADFF8EE11D1F83B204FF6FF71114001F0FF010902084380B20104DFF8D601D0F83B00000C00F47F40000ADFF8C621D2F83B20120C02F0FF021202104380B2014300A8C0F8061000218D
S3FD00002DB8DFF8A60181700021DFF89E0101730021DFF8960141734FEAC900C1B200A84175DFF88601D0F837104FF6FF70084000F47F40000ADFF87211D1F837204FF6FF71114001F0FF010902084380B20104DFF85A01D0F83700000C00F47F40000ADFF84A21D2F83720120C02F0FF021202104380B2014300A8C0F80A103906DFF82A01D0F83B0001434FF6FF70084000F47F40010A3806DFF81221D2F83B2002434FF6FF70104000F0FF000002084380B200043906DFF8F620D2F83B201143090C01F47F410A0A3906DFF8E230D3F83B301943090C01F0FF010902114389B2014300A8C0F80E104FEAC9000C30804600A80088804502D900A8008897
S3FD00002EB08046DFF8B26004A802303146042200F087FF02A80230311D082200F081FFDFF89200807C00280ED000250AE000A8023006F10C01EA008918082200F071FF6D1CEDB24D45F2D30EA80178DFF86600C174A168DFF85E004161207BC011C1B2DFF852000176DFF84A00C0F819800121DFF8420041771199DFF83A00C0F81E101099DFF82E00C0F82210DFF82600C0F826600021DFF81E0080F82A10DFF81E00FFF72BF98246504606B0BDE8F04704B07047C0467095FF1FB095FF1F8395FF1F00002DE9F04180460D4617461C46002038600021DFF8BE0081700021DFF8B60001730021DFF8AE004173DFF8A60080F81380A968DFF89E0041615D
S3FD00002FA8287BC011C1B2DFF8920001760021DFF88A00C0F819100121DFF87E004177DFF87A00C0F81E40DFF87200C0F822700021DFF86600C0F826100021DFF85E0080F82A10DFF85A00FFF7DBF806462078022811D0287C00F01F00172802D10020207009E0012020700521DFF82E0081702421DFF826000173DFF82200D0F83300002807D0404683210022DFF80E30D3F8333098473046BDE8F04170477095FF1F8395FF1F00000FB4F8B507460C461D46002100A80170E07C00F0010100A801700021DFF8B80081700021DFF8B00001730021DFF8A8004173DFF8A400C774A168DFF89C004161207BC011C1B2DFF8900001760021DFF88800C0F810
S3FD000030A019100121DFF87C004177DFF87800C0F81E500899DFF86C00C0F822100021DFF86400C0F826100021DFF8580080F82A10DFF85400FFF768F80646287802280DD000A80078002809D00521DFF8380081702421DFF83000017301202870DFF82400D0F83300002807D03846842100AADFF81430D3F8333098473046BDE8F84004B07047C0467095FF1F8395FF1F0FB4F8B507460C461E46E07C00F0030100A801700021DFF89C0081700021DFF8940001730021DFF88C004173DFF88400C774A168DFF87C004161207BC011C1B2DFF8700001760021DFF86800C0F819100121DFF860004177DFF85800C0F81E600899DFF85000C0F822100021BE
S3FD00003198DFF84400C0F826100021DFF83C0080F82A10DFF83800FEF7FBFF0546307802280DD0DFF82400D0F83300002807D03846862100AADFF81030D3F8333098472846BDE8F84004B070477095FF1F8395FF1F0FB438B50C460021DFF8800081700021DFF8780001730021DFF87000417304A80178DFF86800C174A168DFF860004161207BC011C1B2DFF8540001760021DFF84C00C0F819100121DFF8400041770799DFF83800C0F81E100699DFF83000C0F822100021DFF82400C0F826100021DFF81C0080F82A10DFF81800FEF7A1FF05462846BDE8384004B07047C0467095FF1F8395FF1F0FB430B415461C4600202860012020700521DFF80B
S3FD000032901C0081702021DFF8140001730021DFF80C004173002030BC04B070477095FF1F2DE9F04180460D4617461E46C424E97B2F2946DC2F2900DBB3E0122910DC122900DB4EE0042900F3BC800029C0F2B98000295ED0032954D0042900F07280B0E0152903DC152900F08480AAE0A1F11A00102800F2A6804FEA80008744F0BF00F070B800F096B800F09CB800F082B800F050B800F096B800F094B800F092B800F090B800F06EB800F08CB800F052B800F088B800F086B800F01CB800F082B800F030B85A2905DC5A2900DB4AE0552950D077E0A82902DCA8290BD072E0AA2920D06FE0404629463A463346FFF76BF9044682E0404629463A4652
S3FD000033883346FFF7B3F904467AE0404629463A463346FFF71DF9044672E0404629463A463346FFF7A3FA04466AE0404629463A463346FFF715FA044662E0404629463A463346FFF73FFE04465AE0404629463A463346FFF7C9FD044652E0404629463A463346FFF7BFFB04464AE0404629463A463346FFF70FFB044642E0404629463A463346FFF755FB04463AE0404629463A463346FFF74DFC044632E0404629463A463346FFF7DDFE04462AE0404629463A463346FFF7A5FA044622E0404629463A463346FFF76FFE04461AE0404629463A463346FFF70FFF04460021DFF82E0080F865140021DFF8220080F866140021DFF81A0080F86814002109
S3FD00003480DFF80E0080F867142046BDE8F0417047C0467896FF1F00002DE9F04788B004462078FDF7EDF90646002508E06078C5EBC50171184978884204D06D1CEDB230788542F3D32C2005FB00F1DFF8F601405C8146DFF8F2112C20684309180878401CC0B208702C2005FB00F1DFF8DA01405C8046C84524D02C2005FB00F1DFF8CA014FEAD873C3EB887203EBB2730A225A434018131805AA0A2118785B1C1070521C491E0029F8D100A8007D00A9497D00AAD2F8162000ABD3F81A3000F061FFBCE0DFF88A014168D4F80900814208D3DFF87E014168D4F80900091ADFF872014160DFF86E0190F8670401281DD1DFF85E014068002818D16178B8
S3FD00003578E078C001C0B20843C0B282460021DFF84A0180F867140021DFF83E0180F8661420464AF01001C9B2012201F0C9FB88E0DFF8260190F86604002809D1D4F809000D2805D16068DFF816110D2200F004FCDFF8060190F86604002858D0DFF8FA008068002841D0DFF8EE004068002801D0812000E00320C7B2032F0CD160680090D4F8090001902078394600AADFF8CA309B68984729E0DFF8BE000168D4F809000918DFF8B2000160DFF8AA0000680290DFF8A2004068B0F5007F02D94FF4007002E0DFF8920040680390DFF8960004902078812102AADFF882309B68984720780121049A039B00F073FCDFF86A004068002826D10021DFF88B
S3FD00003670620080F8661420780121DFF85A200D2300F062FC19E0D4F809000D2815D1DFF84200D0F8931445F25530C5F2423081420BD10121DFF82A0080F8691420460221DFF82A201F2301F069FF08B0BDE8F0477047879AFF1F869AFF1F889AFF1F7096FF1F7896FF1F0B9BFF1F8496FF1FEC9AFF1F00002DE9F84789B00446DFF8980390F8680401281CD1DFF890034068002817D16178E078C0010843C0B282460021DFF8740380F868140021DFF86C0380F8651420464AF01001C9B2012201F004FBA5E1DFF8540390F8650400280ED1D4F809001F280AD16168DFF84403814205D06068DFF83C131F2200F03AFBDFF8280390F86504002800F0CD
S3FD000037689680DFF81C038068002828D0DFF814034068002801D0822000E00420C5B2042D0CD160680190D4F8090002902078294601AADFF8EC329B68984710E0DFF8EC020890DFF8E00200680690D4F8090007902078294606AADFF8C8329B689847DFF8C4024168D4F8090081422ED3DFF8B4024168D4F80900091ADFF8A8024160DFF8A00290F8680401281FD1DFF89802406800281AD16178E078C0010843C1B200A801700021DFF8780280F868140021DFF8700280F86514204600A9097841F01001C9B2012201F084FA25E1DFF85802406800281FD0DFF84C020168D4F809000918DFF840020160DFF83C024068B0F5007F02D94FF4007002E0E3
S3FD00003860DFF8280240680490DFF82802059020460221059A049B01F089FE00E10021DFF8080280F8651420780121DFF80C220D2300F05AFBF3E0DFF8F00190F86904002800F0CE80D4F809001F2840F0C980DFF8D801D0F8741445F25530C4F24230814240F0BE80DFF8C00190F8810400F0F000002840F0B580DFF8B00190F8820400F0E000002840F0AC80DFF89C0190F88114DFF8940190F87304814280F0A180DFF8880190F882040128C0F09A80DFF8780190F88204102800F293800121DFF8680180F86A1445F25531C5F24231DFF85801C0F89314DFF85001D0F87814DFF84801C0F897140021DFF8400180F86914DFF83801D0F87C04DFF83E
S3FD00003958441100F023FA0020DFF8241191F8801401F08001002906D1DFF81411D1F87C14002900D00120002801D0012000E00020C1B2DFF8FC0080F865140020DFF8F01091F8801401F08001002906D0DFF8E010D1F87C14002900D00120002801D0012000E00020C1B2DFF8C80080F866142078DFF8C410DFF8D020DFF8D030FFF76CFC8146B9F1860F1BD1DFF8A40090F8650401280AD10121DFF8980080F868140021DFF88C0080F865140AE0DFF8840090F86604012804D10121DFF8740080F86714DFF86C0090F8650400282CD1DFF8600090F86604002826D120780121DFF860200D2300F085FA1EE000260227F0013843C0B28046204648F0A7
S3FD00003A501001C9B2012201F06FF901260127F0013843C0B28046204648F01001C9B2012201F062F90021DFF8100080F8691409B0BDE8F8477047C0467896FF1F7096FF1FEC9AFF1F8498FF1F0B9BFF1FF49AFF1F139BFF1F179BFF1F0FB42DE9F84783B00CA80078FCF7E4FE06460DA80078022865D1002080460025002082463078824645460DE0711CC5EBC500081881460CA899F8001099F8022001F0D4F86D1CEDB20AEB08008542EDDB454621E0711CC5EBC5000C182178A078C0010843C0B202A9487060780090002001900CA82178D4F8032092B2A37801F079F80CA802A9497841F01001C9B2002201F0FEF86D1CEDB20AEB08008542D9DB11
S3FD00003B480021DFF8E40080F86A140021DFF8D80080F865140021DFF8D00080F866140021DFF8C40080F868140021DFF8BC0080F867140121DFF8B00080F869140021DFF8AC0041603DE00DA80078002815D100270FE000222C2007FB00F1DFF89400425400222C2007FB00F1DFF8880042547F1CFFB230788742ECD323E00DA8007808281FD10E98017802A80170DFF85C0090F86A04012815D102A8007800F00F00012805D002A8007800F00F00022809D10CA802A9097841F01001C9B2012201F098F8FFE7DFF824000068002808D00CA800780DA909780E9ADFF810301B68984703B0BDE8F84704B070477896FF1F7096FF1F869AFF1F879AFF1F73
S3FD00003C400FB42DE9F0470C469946CD260020C9F80000207800F06000202840F0828000266078FE38002803D0401E00281DD08DE0A088012817D26088002814D1E088012811D1207800F0800080280CD1DFF806110A9801600120C9F800000121DFF8FA0080F86A1472E0CD2670E0A088012856D26088002853D1E088002850D1207800F0800000284BD108A80078FCF7D9FD804600271DE008F10101C7EBC7000D186878022813D12878A978C9010843C0B2824608A84AF01001C9B2012201F01DF808A84AF01001C9B2002201F016F87F1CFFB298F800008742DDD30021DFF87E0080F865140021DFF8720080F866140021DFF86A0080F8681400219F
S3FD00003D38DFF85E0080F867140121DFF8560080F869140021DFF84A0080F86A140021DFF84600416016E0CD2614E0207800F0600040280FD1DFF82A00406800280AD008A8007821460A9A4B46DFF816C0DCF804C0E04706463046BDE8F04704B07047DC9AFF1F7896FF1F7096FF1F00000FB418B40C460298206018BC04B070470FB418B4002403E0002102980155641C03988442F8D318BC04B070470FB418B4002404E00298015D03980155641C04988442F7D318BC04B0704700000FB42DE9F041074698463846FCF740FD0546DFF8E2004FF49461FFF7D3FF384600212A78521CD2B2012300F0D5FE0646002E43D13846DFF8C210DFF8C22000F09F
S3FD00003E3055FA064638464146FEF794FB0646002423E0C4EBC400281840782C2104FB01F2DFF89E108854C4EBC400281880782C2104FB01F2DFF88E10885400202C2104FB01F2DFF88610885400202C2104FB01F2DFF87A108854641CE4B228788442D8D3002E0BD10799DFF84E0001600899DFF846004160DFF83E00C0F80880DFF836008068002807D038468521DFF84620DFF826309B689847DFF81E0090F87304401EC1B2DFF8120080F864143046BDE8F04104B07047C0467896FF1FA93A0000413C0000849AFF1F859AFF1F869AFF1F879AFF1FE39AFF1F00000FB410B500240021DFF8300001600021DFF8280041600021DFF82000816002A8F3
S3FD00003F28007800F035FA0446002C02D100F066FE04462046BDE8104004B070477896FF1F0FB42DE9F0478A460020804608A80078FCF792FC0646002407E0C4EBC40030184078824504D0641CE4B230788442F4D32C2004FB00F1DFF8C400455C2C2004FB00F1DFF8BC00405C8146A5EB0900C0B204284BD0E80FC0EB857100EBB170C7B22C2004FB00F1DFF89C300A2007FB00F2581802F800A00A9B2C2004FB00F1DFF888C00A2007FB00F20CEB010013500B9B2C2004FB00F1DFF874C00A2007FB00F20CEB0100135008A803782C2004FB00F2DFF85CC00A2007FB00F10CEB02000B546D1CEDB22C2004FB00F1DFF830004554A5EB0900C0B2012805
S3FD000040200AD108A8007851460A9A0B9B00F0E8F9804601E0C12080464046BDE8F04704B07047C046879AFF1F869AFF1F899AFF1F8A9AFF1F8E9AFF1F889AFF1F0FB478B583B00E4614462168DFF8DE00D0F86B0481420DD26268DFF8D200D0F86B142068081A824204D8DFF8C2008068002806D1002E01D0932000E09420C0B250E06168DFF8A600D0F86F044143DFF8A20041602168DFF89600D0F86F044143DFF88E000160DFF88A0000680090012E20D1DFF87E004068B0F5007F02D94FF4007002E0DFF86A0040680190DFF86600029008A80078812100AADFF852309B68984708A800780121029A019BFFF71EFF054616E0DFF83A004068B0F522
S3FD00004118007F02D94FF4007002E0DFF82A0040680190DFF82A00029008A80221029A019B01F028FA0546284603B0BDE8784004B070477896FF1F7096FF1F8496FF1F8498FF1F000010B5044620460121DFF8142000F0C0FD20460121802200F0E1FDBDE8104070471C9BFF1F18B581B004462046012100AA00F0AEFD00A80078802806D120460121DFF81020127800F0C9FD01B0BDE818407047C0461C9BFF1F10B504466078002808D12046E178C90141F01001C9B2002200F0B4FDBDE810407047000038B5054668680478200284B268684078044328460521E2B200F0A2FDBDE838407047000038B584B00446012102A88170002102A801701021E6
S3FD0000421002A8C0F80310002102A84170204602A9097802AA927800F035FD054602A84078009001200190204602A9097802AAD2F8032092B202AB9B7800F0E8FC0546002102A88170204602A9097802AA927800F019FD02A84078009001200190204602A9097802AAD2F8032092B202AB9B7800F0CDFC20460121022200F056FD20460621012200F051FD20469021002200F04CFD207800210022DFF810301B68984704B0BDE838407047C046189BFF1F10B504462078052104F10802DFF80C301B689847BDE810407047C046189BFF1F0FB438B50D4604A800782946069A00F0C9F80446DFF884000560002C38D104A800781021DFF8782000F062FD83
S3FD00004308044304A800781221DFF86C2000F05AFD044304A800781421DFF8602000F052FD044304A800781321DFF8542000F04AFD044304A800781721DFF8482000F042FD044304A800781621DFF83C2000F03AFD044304A80121032200F0EAFC0321DFF82C0001702046BDE8384004B07047C046189BFF1FFD410000D94100005D41000081410000B5410000BD4200001C9BFF1F0FB410B500240021DFF85800016002A8102100F013FD044302A8122100F00EFD044302A8142100F009FD044302A8132100F004FD044302A8172100F0FFFC044302A8162100F0FAFC0443002C04D102A8007800F065F804462046BDE8104004B07047C046189BFF1FD3
S3FD000044000FB418B581B0002404A8012100AA013200F06CFC04A8062100AA00F067FC00A84078802818D100A8007800F00200002812D004A80078FCF71FFA01280CD172B604A801F07BF9002100A8417004A80121002200F071FC62B600A84078802807D004A805A90978069A079B01F0FDF80446204601B0BDE8184004B07047704700000FB410B500240399DFF8240001600499DFF81C00416002A800780021DFF8142000F094FC04462046BDE8104004B07047209BFF1FE54400000FB410B50021DFF8200001600021DFF81800416002A8002100F080FC04462046BDE8104004B07047209BFF1F38B584B00446002101A80170CD2500200390204611
S3FD000044F8012101AA00F0F6FBA078012840F08280DFF866016168082201F038FDDFF85A018188DFF856018180DFF84E014188DFF84A014180DFF84201C188DFF83E01C180DFF83601007800F0600000282BD1DFF82A0140788100DFF82601405800284FD001A8007803284BD2DFF80E01407800EB4003DFF80E2101A80178D018085C01283ED12078DFF8F21003AA02ABDFF8EAC09CF801C04FEA8C0EDFF8E2C05CF80EC0E04705462CE0DFF8D200C08802900298002815D0DFF8C200007800F0800000280ED1DFF8C200DFF8B210082201F0DEFC20460021DFF8B220029B00F0DBFF48E0DFF8AA00406800280AD02078DFF88A1003AA02ABDFF896C085
S3FD000045F0DCF804C0E047054602A8009020782946DFF86E2003AB00F041F82EE001A80078042803D1207800F0B9F926E0DFF85200007800F0800000281FD1E07800281CD1DFF85200406800280ED0D4F80900083002902078DFF8361003AA02ABDFF836C0DCF804C0E047054602A8009020782946DFF80E2003AB00F011F804B0BDE8384070474C9BFF1F347E00000C7E0000289BFF1F309BFF1F209BFF1F00000FB470B515461E46089C05A80078CD2805D104A89021012200F048FB17E02168E888814201D9E888206004A80078002132682368FFF79EFE287800F08000802805D104A800210022002300F059FFBDE8704004B0704700000FB42DE9A4
S3FD000046E8F04385B00C4691461E46002004900027032102A881700CA8012102AA023200F0F1FA0546207800F00300002840D10CA8062102AA013200F0E5FA054602A84178DFF80A010180DFF80601008800F00301DFF8FA000180DFF8F6000188DFF8EE00018004A8009003A801900CA80078022100220023FBF7E6FF05460498C07900F04000002808D0DFF8C600008840F48071DFF8BA00018008E0DFF8B20001884FF6FF600140DFF8A60001800220306044E0207800F00300012812D1A088C0B2804602A88078012804D1B8F1000F01D0CD2533E00021DFF876000180022030602CE0207800F00300022827D102A88078012803D1002F01D0CD2571
S3FD000047E01FE0A088C0B240F01000C7B20CA8394602AA00F07BFA054602A80178DFF836000180DFF832000188DFF82A00018002203060DFF82200008800F48071DFF816000180DFF81200C9F80000284605B0BDE8F04304B070474A9BFF1F00000FB42DE9F84181B00C469846CD250020C8F80000607800F002004010C6B2207800F0030000284AD1012E25D16088012802D0608802281DD108A8062100AA013200F036FA0546002D61D100A8427801216088C0B201FA00F080B2C0B242EA000100A8417008A8062100AA527800F046FA05464CE0CD254AE0608801281DD108A8062100AA013200F013FA0546002D3ED100A8407801226188C9B202FA56
S3FD000048D801F1C94389B2C9B2014000A8417008A8062100AA527800F023FA054629E0CD2527E0207800F00300022822D1A088C1B200A8017008A800A9097841F01001C9B2324600F00DFA0546002E04D100A80078032800D1C046002E01D0072000E00820C7B208A80078394600AADFF812301B689847284601B0BDE8F84104B07047209BFF1F00000FB438B50D461C460020206004A80121042200F0E3F96888C1B2DFF8100001700020BDE8384004B07047C046489BFF1F0FB408B502A8DFF82C10097800F0BAFE02A80121012200F0C9F902A80321DFF81420127800F0C2F90020BDE8084004B07047C046489BFF1F0FB438B515461C460120206098
S3FD000049D004A8042100AA00F089F900A80178DFF820000180DFF818000188DFF814000180DFF80C0028600020BDE8384004B070474A9BFF1F0FB4F8B50F461E46CD24002030600424798800A8018006A8007800A90988FBF711FF002823D0002500A80088002800D1012506A801212A4600F07CF9044606A8042100AA1288D2B200F074F9044606A80078012100AADFF820301B68984706A8007802210022DFF810301B6898472046BDE8F84004B07047209BFF1F0FB4F8B50C4617461E46207800F00300012801D004200EE00120306006A80078A188C9B2DFF81620FBF7A6FE0546DFF80E0038602846BDE8F84004B070474A9BFF1F00000FB470B5A4
S3FD00004AC80C461E4600203060207800F00300012801D0042009E004A80078A188C9B26288D2B2FBF799FE05460020BDE8704004B0704700000FB478B581B016461D460220286006A8052100AA00F0ECF8044600A80178DFF818000180DFF810003060204601B0BDE8784004B07047C0464A9BFF1F0FB42DE9F04182B00C4660880012C5B24FF6FF76FF27032D02D1A6886088C7B20A9800900B98019008A8007829463A463346FBF7DFFD8046404602B0BDE8F04104B0704710B50024DFF838004178DFF834000170002405E0FF21DFF82C000155641CE4B2072CF7D3002405E00521DFF81C000155641CE4B2072CF7D3BDE810407047C046549BFF1F78
S3FD00004BC05D9BFF1F569BFF1F0FB410B51446072C01D8012C01D299200CE0601EC1B2DFF81E004170FFF7CAFF02A8007805A9097800F0E0F9BDE8104004B07047C046549BFF1F000008B50021DFF80C00417000F08DFABDE808407047549BFF1F0FB438B582B00D460024DFF866000078002803D1002D01D0952025E009A8017800A8817000A8057008A8018800A8C0F803100AA8017800A841700698007800A90AAA127900F084FA044600A80078002809D0002C07D1DFF81A000078411EC9B2DFF80E000170204602B0BDE8384004B07047549BFF1F00000FB438B50D460024DFF846000178DFF842004078814203D1002D01D0962014E004980078EE
S3FD00004CB8294606AA127800F05DFB0446002D09D0002C07D1DFF816000078411CC9B2DFF80E0001702046BDE8384004B07047549BFF1F00000FB478B40C46164604F00F05072C07D8012C05D3611EDFF82A00405C30700CE004F01000002806D0072D04D2DFF81600405D307001E0822000E0002078BC04B070475D9BFF1F569BFF1F00002DE9F04180460E46174606F00F04072E06D8012E04D3711EDFF86E0047542FE006F01000002829D0072C27D2F01100F00105012F05D1404621462A4600F048FB18E0002F16D1DFF84600005D012811D1404621462A4600F065FB002C0AD1012D01D1002000E00120C5B2404621462A4600F058FBDFF81600A0
S3FD00004DB0075501E0822000E00020BDE8F0417047C0465D9BFF1F569BFF1F00000FB4002004B070470FB418B40C46062C03D9182C09D2102C07D3A100DFF812004058002801D0002000E0C42018BC04B07047687E000000000FB410B50446102C01D1FFF7B5FEA100DFF81C004058002805D00398A200DFF81010895888470020BDE8104004B07047687E00000FB4C04604B0704708B5BF2142F28800C4F20700017042F29401C4F20701087840F002000870002142F29800C4F207000170002142F20010C4F207000170DFF884004FF43071FF2200F01CFFDFF8780040684FF48061002200F014FFDFF86800406800F50071DFF864000160FF21DFF837
S3FD00004EA86000017042F29401C4F20701087800F0FD00087042F20C11C4F20701087840F040000870BF2142F28C00C4F2070001709F2142F28400C4F20700017042F29401C4F20701087800F0DF000870BDE808407047C0460C9CFF1F009CFF1F089CFF1F2A88FF1F0FB430B40546FF24072D0AD204A80178A8000818C4B203A80078012801D1A41CE4B2204630BC04B0704700000FB410B502A8007803A9097804AA1278FFF7E0FF0446FF2C0AD0611016204143DFF81800415A4FF6FF70814200D1FF242046BDE8104004B07047C0460C9CFF1FF8B506460C46D4F80610D4F80E000F180025D4F80A10D4F80E00091A2088814201D9258805E0D4F863
S3FD00004FA00A10D4F80E00081A85B275807760BDE8F84070470FB408B5002142F20010C4F20700017002A80178DFF84A010170DFF84A014FF43071FF2200F070FEDFF83E11DFF832014160DFF82E0140684FF48061002200F063FE42F20C11C4F20701087840F08000087042F20C10C4F20700007800F080000028F6D1FF21DFF80601017042F20C11C4F20701087840F04000087003A80078002808D047F20001C4F20401086840F00040086008E047F20002C4F2040211686FF0004008401060DFF8B6004068000A00F0FE0142F29C00C4F207000170DFF8A2004068000CC1B242F2B000C4F207000170DFF88E004068000EC1B242F2B400C4F2070061
S3FD000050980170DFF87A00406800F50071DFF87E000160102142F20810C4F207000170012142F29400C4F207000170BF2142F28000C4F20700017042F20011C4F20701087800F07F00087042F28401C4F20701087840F00100087042F28401C4F20701087840F010000870842142F21C00C4F2070001700020BDE8084004B07047C046009CFF1F0C9CFF1F00A0FF1F2A88FF1F089CFF1F000042F20C11C4F20701087800F0BF000870BF2142F28000C4F20700017042F28401C4F20701087800F0FE00087042F29401C4F20701087800F0FE000870002070470FB42DE9F04782B00D4628788046AF7800A8DFF86C010168DFF86401406800910190D5F882
S3FD000051900300B0F5007F03D94FF40070C5F80300404639460022FFF7B1FE81464FEA6900C0B28246B9F1FF0F18D016200AFB00F1DFF82C01415A4FF6FF7081420ED1DFF824010168DFF8200100F58060814205D26878032802D8A878012801D9952078E0DFF8FC1016200AFB00F00C18E07CFF2801D10020E074D5F8030080B220800CA80078A074E07C00F00100E074E07C7A004FEA88011143C9B20843E074DFF8C4000068C4F80200687860752775DFF8BC004168E07CC0000E18D5F8030080B27080DFF8A0000068706008203070DFF89C004068E17C81F00101C9B2C9004618D5F8030080B27080DFF87C000068706048203070DFF8700001685B
S3FD00005288D5F803000918DFF864000160002F09D1DFF860004168E07CC0000E18307840F0800030706878012801D0012200E0002200A9B80009180868104308604FEA880142F2C000C4F2070008180378BA0000A98958C9B219430170002002B0BDE8F04704B07047C87E00000C9CFF1F089CFF1F00A0FF1F009CFF1F0FB42DE9F843C42509A800780AA909780022FFF711FE06467010C0B28146FF2E22D0DFF85010162009FB00F00C18DFF848004168E07CC0000F18DFF83C004168E07C80F00100C00008188046387800F07F0038704146087800F07F0008704FF0FF30C4F80A0000252846BDE8F84304B07047C0460C9CFF1F009CFF1F0FB4F8B5B2
S3FD000053800E461746304639460022FFF7D5FD05466810C4B2FF2D01D196202CE006A831463A46FFF7ADFFDFF856000268162004FB00F1DFF84E00405A111ADFF8420001600022B10042F2C000C4F20700081802704FF6FF72162004FB00F1DFF8260042524FF0FF32162004FB00F1DFF816004018C0F802200020BDE8F84004B07047089CFF1F0C9CFF1F00000FB4F8B50F461646384631460022FFF78FFD0446DFF834206110162048431518EC7CFF2C0DD0069839463246FFF764FFDFF81C004168E0000918087840F084000870BDE8F84004B07047C0460C9CFF1F009CFF1F0FB42DE9F84388469146404649460022FFF764FD0446DFF89420611086
S3FD00005478162048431518EC7CFF2C3CD04FEA880142F2C000C4F207000E18B8F1000F13D0687D012801D0012000E00020C7B2B9F1010F01D1042000E0082040F01000C0B2074330783843307031786FF00200084040F000003070DFF83C004168E0000918087800F07B0008700022DFF828004168E0000A54B9F1000F05D1089841460022002300F047F8BDE8F84304B07047C0460C9CFF1F009CFF1F0FB4F8B50F460524384608A909780022FFF70AFD0546FF2D28D0B90042F2C000C4F2070008180678002406F00C00002801D105241AE006F00200022801D1012414E0DFF834004168E800085C0006C00F01280AD0DFF82000416885F00100C0000E
S3FD00005570085C0006C00F012800D103242046BDE8F84004B07047C046009CFF1F0FB42DE9F04792461F469420804609A8007800210022FFF7C9FC0646DFF8B2007210162151434418E67CFF2E4BD0DFF8A600406886F00101C90040188146002520884FF6FF7188423DD099F800000006C00F002837D1002F15D1DFF87A004168F0000D1820886880D4F80200686028784006C00F800140F0800040F00800C0B22870002020E0C4F80A70C4F806A02088874200D927880020C4F80E00DFF836004168F0000D18B8B26880C5F804A028784006C00F800140F0800040F00800C0B22870002080464046BDE8F04704B07047C0460C9CFF1F009CFF1F0000FF
S3FD000056680FB42DE9F04188469327404601210022FFF75EFC0646DFF888207110162048431418FF2E01D1932035E0E67CDFF874004168F0000D1828780006C00F002829D14FEA880142F2C000C4F207000818007800F0020000281DD10998C4F80A000898C4F806000020C4F80E0028462146FFF74FFCB8F1000F02D1C820287009E028784006C00F800140F0800040F00800C0B2287000273846BDE8F04104B07047C0460C9CFF1F009CFF1F0FB408B503A8017842F29800C4F207000170DFF8140001210122FFF705FBBDE8084004B07047C046009CFF1F0FB410B542F20011C4F20701087800F07F00087042F20C11C4F20701087800F0DF0008708E
S3FD0000576042F28001C4F20701087840F02000087042F28401C4F20701087800F0DF00087042F29401C4F20701087800F0DF00087042F29401C4F20701087840F00400087049F64044641EA4B2FAF79EFF002CF9D142F29401C4F20701087800F0FB000870BDE8104004B070470FB42DE9F84781B00D46002080460027002600240AA8007800F004008010C1B200A801700AA8007800F00800C010C0B2E8706878E97800AA1278FFF783FB8046DFF80A0241684FEAC8000F18DFF8FE01416888F00100C0000E18DFF8F6014FEA6802162151434418786868607888C5F80900E07C80F00100C0B2804684F8138038784006C00F80F001008001C0B230705B
S3FD00005858E87801284ED16878002815D1DFF8B6010078002810D1FF21DFF8AA010170284600210022FFF740FD002030702846002100220023FFF77EFEDFF88A010078012803D06878002800F0B180D4F80E10D5F809000818C4F80E00D4F80A10D4F80E00814208D8D5F80900C1B22088814211D1A07C01280ED130462146FFF751FB30784006C00F800140F0800040F00800C0B230708FE0D4F806006860D4F80E00C5F8090083E06878002824D138788006000F0D2809D10120A87068680078C011C1B2DFF80201017015E0DFF8FA000078012810D1FF21DFF8EE000170284600210122FFF7E2FC002030702846002100220023FFF720FED4F80A0084
S3FD00005950B0F1FF3F56D0D5F809008146D4F80E004844C4F80E002088814505D1D4F80A10D4F80E0081420DD8D4F80A00002836D0D4F80A00218802F0D7F800292FD1A07C01282CD1D4F80A10D4F80E00091A2088814201D9208804E0D4F80A10D4F80E00081A80B28246BAF1000F05D1D4F8020070600020708007E0D4F80610D4F80E0008187060A6F802A030784006C00F800140F0800040F00800C0B230700EE0D4F806006860D4F80E00C5F809004FF0FF30C4F80A0068782946FFF7FCF901B0BDE8F84704B07047009CFF1F0C9CFF1F2A88FF1F00002DE9F84785B042F28000C4F20700057842F28400C4F20700067805EA0600C4B242F29000D3
S3FD00005A48C4F207000778FF2100A84170DFF85A02017800A80171002100A8817100200290002100A8C0F80D10002100A8C171002100A80173FF2100A84171DFF83202012100AA0132FFF72EF942F20C10C4F20700007800F00100002813D000A8407880280FD142F20011C4F20701087800F07F00087042F20C11C4F20701087800F0DF00087004F00400002821D042F2A400C4F20700007880460820814642F2A000C4F2070000788246042042F28001C4F20701087008FA09F04AEA000081B200A8418000A802300290122001A9FFF777F904F00100002814D0012142F28000C4F207000170FFF789F9102001A9FFF767F942F29401C4F20701087878
S3FD00005B4000F0DF000870B0E004F00800002817D0082142F28000C4F20700017007F0F0000011C1B200A84171384601A9FFF72CFE42F29401C4F20701087800F0DF00087004F00200002826D0022142F28000C4F20700017042F28800C4F20700057842F28C00C4F20700067805EA0600C1B200A80173162001A9FFF725F9BF2142F28800C4F20700017042F29401C4F20701087800F0DF00087004F01000002827D0202142F28000C4F207000170102142F28000C4F207000170142001A9FFF703F942F20C11C4F20701087840F02000087042F20011C4F20701087840F08000087042F28401C4F20701087840F02000087004F02000002811D020213D
S3FD00005C3842F28000C4F207000170132001A9FFF7DDF842F28401C4F20701087800F0DF00087004F08000002823D0FF2100A8417101A8102100AAFFF73DF800A80078012805D1002100A84171012100A8C171802142F28000C4F207000170172001A9FFF7B5F842F29401C4F20701087800F0DF00087005B0BDE8F8477047009CFF1F009CFF1F00000FB408B5029804A90978039A00F066F9BDE8084004B0704710B5012000F09EF9DFF81440A06810B180470020A06000F095FABDE81040704700A4FF1F10B500F029FADFF82440206810B1804700202060DFF81440A06810B180470020A06000F07DFABDE81040704700A4FF1F6846704710B5044697
S3FD00005D30FFF7FAFFDFF83020944208D2DFF82C10401A844284BFDFF82800904204D90020C043BDE810407047DFF8180044600020BDE810407047C046C0C4FF1F10000000C06400202C88FF1F10B5DFF82C104C682018844204D90020C043BDE810407047FFF7CCFFB0F1FF3F08BF4FF0FF342046BDE810407047C0462C88FF1F38B5DFF84A11C01D0B680022DFF842519E466FF0004130F0070415D10020BDE838407047DEF800004FEAC07C4FEADC7CBCF1010F06D1B4EB500F9CBFC4EB5001724604D9DEF804E0BEF1000FEAD15AB340293EBF106820F0010010601FD31019536808304360506043680BB9031D2B600368083923F0010343F00103A0
S3FD00005E2803F0010321F0004143EA41010160106820F0010000F0010124F0004041EA4000106002F10800BDE8384070476FF0004084422ED90020BDE8384070471968C807C00F012824D15868490804E00268406852080832891830B10268D207D20F012A01D1A142F2D3A14212D358601A6821F0004122F0010202F0010242EA4101196008B9181D286003F10800BDE8384070475B68002BD2D104F10800FFF759FFB0F1FF3F08BF002010D0016821F0010101F0010224F0004142EA410101602968086000214160011D29600830BDE838407047C0468CA4FF1F2C88FF1F000030B10838016821F0010141F001010160704700002DE9F84F824689464E
S3FD00005F20154698460A9F18B111B10AB103B11FB90020BDE8F84F7047B847002803D14846BDE8F84F7047B8BF002018DB01246D1E12E06019460808FB06FB504609EB0B01B847002804D109EB0B00BDE8F84F7047A8BF741C00DA751EAC42EAD90020BDE8F84F70478446521C03E011F8013B0CF8013B521EF9D1704710B5044600F004F82046BDE810407047CBB2202A2DD3414211F0030C07D0A2EB0C02D9B200F8011BBCF1010CFAD12BB1190441EA036141EA03210B435FEA521C0DD0036043608360C36003614361836100F11C0120300B60BCF1010CF1D102F01F01890803D040F8043B491EFBD102F0030222B1D9B200F8011B521EFBD17047DD
S3FD0000601838B5431E0546062B04D90020C043BDE838407047DFF8382052F82340012C1CBF002142F82310012C02D02CB9012803D10020BDE838407047002C00D002D10020FFF74EFE2846A0470020BDE83840704790A4FF1F18B490F800C00A78BCEB020218BF104655D100F0030301F003029A423FD1E3B1BCF1000F08BF002049D0C3F10302131C8AB1401C491C90F800C00C78BCEB040418BF20463BD1BCF1000F08BF002036D0521E5B1EEDD1401C491CD0F800C0ACF1013222EA0C020B6812F080320FD109E0001DD0F800C0091DACF101320B6812F0803204D19C45F3D0401E491E07E090F800C00A78BCEB020218BF10460FD1BCF1000F08BF16
S3FD0000611000200AD0401C491C02780B78D31A18BF184602D1002AF5D1002018BC7047000010B5DFF8164001E08047241D14B120680028F9D1BDE8104070473C86FF1F000010B5DFF81E4006E010680021206090685268C94390472268002AF5D1BDE810407047ACA4FF1F0000034630B1002202E003F8012B491E0029FAD1704770470000884224D01AB320E011F003030AD110F0030307D1042A05D351F8043B40F8043B121F12E011F001030AD110F0010307D1022A05D331F9023B20F8023B921E04E011F8013B00F8013B521E002ADCD1704710B5DFF82E4008E06068A268FFF7D0FF6068A168FFF7CAFF0C3421680029F3D160680028F0D1A068E1
S3FD000062080028EDD1BDE810407047188D00000000DFF804301847C0462D620000F7460000F7460000DFF808101820ABBEF746C04626000200DFF81000DFF81020DFF810300021121A1847C046E889FF1FC0A4FF1F995F0000FFF7E2FFFAF7D6F8DFF83A00002805D0854681B00020C043009001B0FFF7E0FFDFF82600002801D0FFF7ACFFFFF752FFFFF7CCFF0020DFF81610FAF7FBFA0020FFF72CFDFEE7C0640020188D0000B0A4FF1F00000068704708B5002300F03CF8BDE808407047000008B5012300F034F8BDE808407047000008B5022300F02CF8BDE80840704700000168490000EB61007047000008B582B00A4601A9009100210B4600F0A0
S3FD00006300A7FC019802B0BDE8084070470FB408B50A4604A9009100210B4600F081FCBDE8084004B070470000012101FA00F0401E704700002DE9F84F8CB0154600220592002204920392CA6C83460E460193079268B101280BD0022809D030460121002200F078FE0CB00920BDE8F84F7047002206920A6D12F0010240F07581022808BF8C6B0AD0002B0FBF002107980068C0F307410798001D00EB81040198022808D1D4F80080B8F1000F00F05D816168083407E0B4F80080B8F1000F00F054816188241D01F0010208F0010040EA42000328E3D8DFE810F004003800C1003E01BBF1000F2ED0B06C471828460F21FFF780FF87429CBF07EB080129
S3FD000063F8884222D8201DB063304601F0A7F948B930460121002200F021FE0CB00920BDE8F84F70472046FFF761FF044628460F212246FFF76FFF30460321224600F00EFE0CB00720BDE8F84F7047241DA9E7BBF1000F61D1B06C471828460F21FFF74CFF874200F27B80A8F101017918884280F0758067686FF00100874209D130460121022200F0EBFD0CB00920BDE8F84F7047B7F1FF3F02BF06F158000B90012013D0206800F00040B0F1004F0CBF01200020C0F30708201DFFF7FFFE07463046394642460BAB01F032F8002847D00228284609D10D21FFF710FFF46230620B98B06206F1280005E00D21FFF706FFF46230620B9870622046FFF7F2
S3FD000064F0F9FE02463046022100F0ACFD304680213A4600F0A7FD0CB00620BDE8F84F704728460D21FFF7ECFE316A814204BFF06AA04217D12046FFF7DDFE044628460F212246FFF7EBFE284600213246FFF7E6FE30460321224600F085FD0CB00720BDE8F84F7047083420E72068BBF1000F029020F0004739D1B06C4018A0F1010928460F21FFF7BDFE814561D809EB080188425DD204F104084FF000090DF1280A0DE04046FFF78DFE014630460022534600F0C1FF28B908F1040809F10109B945EFD3B94544D128460D21FFF79AFE306200207062DFF8302630460221F46200F042FD0CB00620BDE8F84F704728460D21FFF787FE316A814204BFB7
S3FD000065E8F06AA04227D10020F06204203063201D70630298B762B84204BF012006901AD0B800001D2018FFF769FE0446284600213246FFF777FE28460F212246FFF772FEDFF8C8253046032100F010FD0CB00720BDE8F84F704702980021B84218BF0421B800001D40182418A3E6012130460A4600F0FCFC0CB00920BDE8F84F704707980768079800F10408019820B94FF000093F02032403E0C7F307493F04022464B9B9F1000F08BF4FF0B00A0DD0A9F1010958F8047BC9F30709042407F07F40641EE4B2C0F3076A3F02BAF1B00F1FD10598002840F06E82049848B9012130460A4600F0C4FC0CB00920BDE8F84F704709A80021009028460E229E
S3FD000066E00B4600F0B5FA099A28460F21FFF70EFE0120039051E2BAF13F0F0ED828460D21FFF7F6FD0AF03F0292000346121D28460D21D218FFF7FAFDB5E7BAF17F0F0ED828460D21FFF7E4FD0AF03F0292000346121D28460D219A1AFFF7E8FDA3E7BAF18F0F3FD80AF00F015CB9B9F1000F08BFB0200DD0A9F1010958F8047BC9F30709042407F07F40641EE4B2C0F307603F02000150EA013A09D130460121022200F069FC0CB00920BDE8F84F70470021284652460B4600F074FA48B130460121032200F058FC0CB00920BDE8F84F70471AF400401CBF012005901AF480401CBF0120049060E7BAF19F0F18D80AF00F010D2901D00F2909D130467B
S3FD000067D80121042200F03AFC0CB00920BDE8F84F70472846FFF780FD024628460D21FFF789FD44E7BAF1AF0F1ED80AF00700401CFFF78EFD02011AF008001EBF42F4804201200490002128460B4600F02DFA00283FF42DAF30460121032200F00FFC0CB00920BDE8F84F7047BAF1B70F00F2A280BAF1B10F32D15CB9B9F1000F08BFB0220DD0A9F1010958F8047BC9F30709042407F07F40641EE4B2C0F307623F020AB10F2A09D930460121042200F0E7FB0CB00920BDE8F84F7047002128460B4600F0F3F900283FF4F3AE30460121032200F0D5FB0CB00920BDE8F84F7047BAF1B20F2ED14FF0000A00215CB9B9F1000F08BFB0200DD0A9F10109E8
S3FD000068D058F8047BC9F30709042407F07F40641EE4B2C0F307603F0200F07F028A404AEA020A10F0800018BFC91DE1D128460D21FFF7F6FC024602EB8A0228460D2102F50172FFF7FBFCB6E6BAF1B30F2CD15CB9B9F1000F08BFB0200DD0A9F1010958F8047BC9F30709042407F07F40641EE4B2C0F307603F0200F0F00100F00F00401C40EA0132012128460B4600F091F900283FF491AE30460121032200F073FB0CB00920BDE8F84F704730460121042200F069FB0CB00920BDE8F84F7047BAF1BF0F16D80AF007020121521C284642F400220B4600F06DF900283FF46DAE30460121032200F04FFB0CB00920BDE8F84F7047BAF1C70F00F27B80CF
S3FD000069C832D15CB9B9F1000F08BFB0220DD0A9F1010958F8047BC9F30709042407F07F40641EE4B2C0F307623F020AB10F2A09D930460121042200F029FB0CB00920BDE8F84F704728460421002300F035F900283FF435AE30460121032200F017FB0CB00920BDE8F84F7047BAF1C60F2CD15CB9B9F1000F08BFB0200DD0A9F1010958F8047BC9F30709042407F07F40641EE4B2C0F307603F0200F0F00100F00F00401C40EA0132032128460B4600F005F900283FF405AE30460121032200F0E7FA0CB00920BDE8F84F70470AF007020321521C284642F420220B4600F0EEF800283FF4EEAD30460121032200F0D0FA0CB00920BDE8F84F7047BAF150
S3FD00006AC0C80F09D130460121042200F0C3FA0CB00920BDE8F84F7047BAF1C90F2CD15CB9B9F1000F08BFB0200DD0A9F1010958F8047BC9F30709042407F07F40641EE4B2C0F307603F0200F0F00100F00F00401C40EA013228460121052300F0B1F800283FF4B1AD30460121032200F093FA0CB00920BDE8F84F7047BAF1CF0F09D830460121042200F086FA0CB00920BDE8F84F7047BAF1D70F16D80AF00702521C2846012142F40022052300F08AF800283FF48AAD30460121032200F06CFA0CB00920BDE8F84F704730460121042200F062FA0CB00920BDE8F84F7047069820B3284600213246FFF7B2FB039860B908A80021009028460F220B460C
S3FD00006BB800F04AF8089A28460E21FFF7A3FBDFF82C4028460F212246FFF79CFB30460321224600F03BFA0CB00720BDE8F84F704708200CB0BDE8F84F7047C046397300000168490000EB61007047000085460D98DDF838E00F9B5DF8042B20E90C009DE8FE1F854601BD0000042912D8DFE801F0030F110F0F0F0BB90F2A01D902207047009900EB8200096841600020704701207047022070470000042912D8DFE801F0030F110F0F0F0BB90F2A01D90220704700EB820041680098016000207047012070470220704700000FB42DE9F801069C07A80078042832D84FEA80008744F0BF00F008B800F029B800F029B800F025B800F023B809A80078B2
S3FD00006CB0002801D002201FE0A66B271D08994FF6FF7001EA000505F40050804609E005F00100002803D03046361D006838603F1D6D08002DF3D1B8F1000F00D1A663002002E0012000E00220BDE8F80104B0704770B504680E4601F10800DFF83410884208BF4FF0FF3502D0FFF76EFF05463046FFF76AFF844204D20020C043BDE8704070470120AC4238BF0020BDE8704070473C86FF1F0FB438B504460598DFF8DE10DFF8DE20801E531A0590DFF8DA009A1003EB5272009005A8D2100823FFF7D4F8054668B90020012160612046CFF60071042200F067F90920BDE8384004B07047FFF732FFA064686801280DD10020012160612046CFF6007111
S3FD00006DA8022200F053F90920BDE8384004B0704710F000401EBF281DE064012004D1281DFFF716FFE06400202065E06C026812F0004120D0C2F3036018B9DFF8560060611CE0012804BFDFF84E00606116D0022804BFDFF84600606110D00020012160612046CFF60071012200F020F90920BDE8384004B07047FFF7EBFE60610020BDE8384004B070473482FF1F3C86FF1F016D0000B5620000C5620000D56200000000704700004DF808ED0DF1080E4DF804ED2DE9FF1F5FF0000102B46946ADF1040D00F006F8DDF840E00DF1480D7047000078B5D1B00C46C16800AE054611B90121C1602EE05820FEF78DFF84465DB901212846CFF600710522CA
S3FD00006EA000F0D8F851B00920BDE87840704705F10C0300F10C0203CB03C203CB03C2186805F12003106003CB0CF1200203C203CB03C203CB03C205F1380303CB0CF1380203C203CB03C2C5F80CC0E06B04F1040C206401AB0822BCE8030003C3521EFAD1012100A80170417010992846FFF71AFF38B13046FFF798FF51B00920BDE8784070476B690020294632469847062809D00828E9D03046FFF787FF51B00920BDE8784070473046FFF77FFF2846214600F005F851B0BDE878407047000038B505460C46216C2846FFF7EDFE08B1FEF7B2FE206C6B6928610120294622469847072803D1201DFFF73EFEEBE70828E9D0FEF7A1FEBDE83840704792
S3FD00006F984DF808ED0DF1080E4DF804ED2DE9FF1F5FF0000102B46946ADF1040D00F000B838B5054600690C4608646B690220294622469847072805D1201DFFF717FEBDE838407047082803D128462146FFF7BAFFFEF774FEBDE838407047000038B5C46805460CB9FEF76AFE012C05D1E868401EE860BDE83840704704F10C0303CB05F10C0203C203CB03C2186804F12003106003CB05F1200203C203CB03C203CB03C204F1380303CB05F1380203C203CB03C22046FEF75BFFBDE8384070477047C046DFF804301847C046D55C0000DFF804301847C0467170000008B5DFF80C0000688047BDE8084070473488FF1F08B5DFF80C0040688047BDE82F
S3FD00007090084070473488FF1F08B508B1FEF732FFBDE808407047000008B5042000F0CAF9DFF81410DFF814200160DFF8141000F00DFABDE808407047D87E0000D57000005C88FF1F7047000010B50446FFF7DCFF2046BDE810407047DFF804007047C0465188FF1F7047000008B5884204D040684968FEF7B3FF18B90120BDE8084070470020BDE80840704708B5884208D040684968FEF7A3FF18B10120BDE8084070470020BDE80840704710B50446FFF7DAFF2046BDE81040704710B50446FFF7D2FF2046FFF7A1FF2046BDE810407047000010B50446FFF7C6FF2046BDE81040704710B50446FFF7BEFF2046FFF78DFF2046BDE81040704700000A
S3FD0000718810B50446FFF7B2FF2046BDE81040704710B50446FFF7F4FF2046BDE81040704710B50446FFF7ECFF2046FFF771FF2046BDE810407047000010B50446FFF7E0FF2046BDE81040704710B50446FFF7D8FF2046FFF75DFF2046BDE810407047000010B50446FFF782FF2046BDE81040704710B50446FFF7F4FF2046BDE81040704710B50446FFF7ECFF2046FFF741FF2046BDE810407047000000687047DFF804301847C046D55C000010B5DFF83C000468B4B92020FEF7B6FD044608B9FEF746FDDFF8240000210460DFF8200021606060DFF81C00A060217321616161A161E1612046BDE810407047B4A4FF1FA9720000257200007C2902D871
S3FD0000728008B1017809B100207047012100F8041B7047000010B1021D914201D0002070470021017070470000DFF804301847C0467170000003680A68934201BF426848688242012018BF00207047000008B5DFF81410FFF7EFFF00280CBF01200020BDE8084070471083000038B50546FFF7A0FF044615B9816801610BE02846FFF7E6FF002819BFA0682061A5F11400006808BF206101202073FFF7ABFEBDE83840704710B5044608B100F069FA2046FFF7DCFFBDE81040704700002DE9F04F8DB06F468146846A066BD0F83480FFF771FF05464846A9F1200AC7F830D000F04FFA4846FFF7B4FF002814BF6868DAF808002861FFF788FEBD460DB011
S3FD00007378BDE8F04F704700F03DFAD5F81490D14502D100F043FA14E0D9F810006861C7F818D000F03BFA07E000F02CFAFFF764FE00F034FAD7F818D06869C9F81000C5F81490002507F1000B002C17D94046FFF72BFF824609F12000514600225B4600F0A5F808B100F06EF9DFF850005146FFF787FE00B10125B044641EE7D15DB1042000F024F8DFF83810DFF838200160DFF82C1000F067F809F12000FFF769FF00F0FDF9BD460DB0BDE8F04F704700F0F6F900F0D8F900F0F2F900F0D4F9B089FF1F24830000417400007047000070B50646FFF7F2FE044606F17800FEF7ABFC054640B9E06906F17801FFF70CFF054608B9FFF73EFFDFF8343068
S3FD0000747005F12002082113F8010B02F8010B491EF9D10020A862E86268612861A861E861A068E8606068A86005F17800BDE870407047C046DC89FF1F10B50446FFF7C0FE783CC0692146FFF7EDFE10B92046FEF721FDBDE81040704708B5084600F0FAF900F0A0F9BDE808407047000038B5A0F17804DFF83C002160A06201206260E0610D46FFF79DFE01682A46491C016004F120000021FFF7A6FD04F12000FFF79EFC04F12000FFF704FFBDE838407047C046C97400002DE9F04F83B08A461146DFF872B1044600910193FFF7C8FE20B103B00020BDE8F04F7047A4F1200050F8786BDFF85251012400270290CBF8080030465146FFF7C9FD38B1CB
S3FD000075680299019803B001600120BDE8F04F704726B13068001FD0F8008001E0FFF790FDBAF1000F05D0DAF80000001FD0F8009001E0FFF785FD40462946FFF7A9FD20B948462946FFF7A4FD48B140464946FFF7AFFD20B103B00020BDE8F04F704740462946FFF795FD20B3DAF80800B16800F0030001F00302C1437F1C114218BF002057D1D143014205D024B903B00020BDE8F04F704710F0010008BF0024DBF80800F668DAF80CA00028A5D00068CBF80800A1E7012F12D1DFF88A105046FFF768FD60B10098002818BF002032D10299019803B001600120BDE8F04F70471FB1012F26D1009820BBDFF85E104046FFF750FD28B9DFF856104046BA
S3FD00007660FFF74AFDC0B1DBF80800DFF84A103246534600F0E3F950B1DBF8041001980160012057B103B00220BDE8F04F704703B00020BDE8F04F7047002003B0BDE8F04F7047B4A4FF1F8088FF1FE07F0000A488FF1F9888FF1FB8A4FF1F000070B5FFF7B7FD4469064614B90020FFF70DFEE06904F12005401CE0612846FFF7F7FD002811BF25683168491C3160002200B9226828460021FFF7AEFC2846FFF7A7FB2846FFF70EFEBDE870407047000038B505460C4640B12030FFF7CDFD20B12868A04208BF284612D00020FFF78CFE783800F1200C2346082213F8011B0CF8011B521EF9D10021C161416101610460BDE838407047000038B50546EC
S3FD00007758FFF76AFD04462846FFF7B4FD002808BFA5F1200006D0A0692946FFF7CBFFC169491CC161C169012902BFA1698161A0610120BDE83840704770B5FFF74DFD846906460CB9FFF768FC04F120052846FFF791FD68B1E0692568012806D1A069B06104F17800FFF774FE07E0401EE06104E0E069012804BFA069B0612846BDE8704070470000FEB442464B4654465D463EB4FFF7D2FF3EBC90469946A246AB46FEBCFFF7CEFB38B50546446A00F05FF82846FFF7F4FB2046BDE8384070472DE9F84386B06F46FFF708FD446906460CB9FFF723FCE0694FF0010808B94FF000086069401E606139D104F120052846FFF742FD216981467161002829
S3FD0000785004BF0020206104D004F178002568FFF723FEB8F1000F24D1B9F1000F09D0AA68FAB1012029469047BD4606B0BDE8F8437047616889B104F17800C7F814D088470BE0FFF7B3FF04F17800FFF705FEFFF70DFFFFF7B7FFD7F814D004F17800FFF7FBFDBD4606B0BDE8F8437047FFF7AAFFFFF78CFF38B50546FFF7B2FC04462846FFF7FCFC20B160692946FFF717FF07E0A5F12000C169491EC1612168491E21604169491C4161016911B9616901616061BDE838407047000010B50446FFF7C4FB2046BDE810407047DFF804007047C046BC89FF1F2DE9F04F83B08146C8680092029001F11000019002981D46002840F2748001980668019847
S3FD00007948426802F0020412F0010004BF009800EB222A06D00098016810120958009800EB010ADFF8C8B0DBF80480D9F800103046FFF7BEFB88B1D9F8040020B150451CBF012089F80800C9F804A0002D41D0002C3FD0012089F809003BE03068A0F108075F4508BF01200DD05FB1786848B14068D8F80410FEF756FB00280CBF0120002000E00020F8B9DFF86800874208BF01200DD05FB17A68416842B150684968FEF741FB00280CBF0120002000E0002080B115B10CB1012300E00023484631465246FFF78CFF05E0B668002CAED100250124ABE70198083001900298401E02907FF48CAF03B0BDE8F04F7047C046F0820000E08200002DE9F04FD5
S3FD00007A4083B0DFF8E200DFF8E240D0F8009066680DF1000B8A4690461F4640463946FFF74BFB60B1DFF8BE00CAF800900168DFF8BE0003B001600120BDE8F04F7047D8F80000A0F10805A54208BF01200CD055B1686840B140687168FEF7E8FA00280CBF0120002000E00020A0BBDFF88600854208BF01200DD05DB16A68416842B150684968FEF7D3FA00280CBF0120002000E0002010B30020009701908BF808008BF8090000A841464A460123FFF71BFF019999B19BF8080080B99BF8090068B1CAF800100199DFF8260003B001600120BDE8F04F7047D8F808809FE7002003B0BDE8F04F7047C046BCA4FF1FF0820000B8A4FF1FE08200000000BE
