S0030000FC
S3510000C000FFFB0020A1190100150C0100150C0100150C0100150C0100150C01000000000000000000000000000000000059C40000150C01000000000001C50000150C0100150C0100150C0100150C0100E2
S3510000C04C150C0100150C0100150C0100150C0100150C0100150C0100150C0100150C0100150C0100150C0100150C0100150C0100150C0100150C0100150C0100150C0100150C0100150C0100150C01001C
S3510000C098150C0100150C0100150C0100150C0100150C0100150C0100150C0100150C0100150C0100150C0100150C0100150C0100150C0100150C0100150C0100150C0100150C0100150C0100150C0100D0
S3510000C0E4150C0100150C0100150C0100150C0100150C0100150C0100150C0100150C0100150C0100150C0100150C0100150C0100150C0100150C0100150C0100150C0100150C0100150C0100150C010084
S3510000C130150C0100150C0100150C0100150C0100150C0100150C0100150C0100150C0100150C0100150C0100150C0100150C0100150C0100150C0100150C0100150C0100150C0100150C0100150C010037
S3510000C17C150C0100150C0100150C0100150C0100150C0100150C0100150C0100150C0100150C0100150C0100150C0100150C0100150C0100150C0100150C0100150C0100150C0100150C0100150C0100EB
S3510000C1C8150C0100150C0100150C0100150C0100150C0100150C0100150C0100150C0100150C0100150C0100150C0100150C0100150C0100150C0100150C0100150C0100150C0100150C0100150C01009F
S3510000C214150C0100150C0100150C0100150C0100150C0100150C0100150C0100150C0100150C0100150C0100150C0100150C0100150C0100150C0100150C0100150C0100150C0100150C0100150C010052
S3510000C260150C0100150C0100150C0100150C0100150C0100150C0100150C0100150C0100150C0100150C0100150C0100150C0100150C0100150C0100150C0100150C0100150C0100150C0100150C010006
S3510000C2AC150C0100150C0100150C0100150C0100150C0100150C0100150C0100150C0100150C0100150C0100150C0100150C0100150C0100150C0100150C0100150C0100150C0100150C0100150C0100BA
S3510000C2F8150C0100150C0100150C0100150C0100150C0100150C0100150C0100150C0100150C0100150C0100150C0100150C0100150C0100150C0100150C0100150C0100150C0100150C0100150C01006E
S3510000C344150C0100150C0100150C0100150C0100150C0100150C0100150C0100150C0100150C0100150C0100150C0100150C0100150C0100150C0100150C0100150C0100150C0100150C0100150C010021
S3510000C390150C0100150C0100150C0100150C0100150C0100150C0100150C0100150C0100150C0100150C0100150C0100150C0100150C0100150C0100150C0100150C0100150C0100150C0100150C0100D5
S3390000C3DC150C0100150C0100150C0100150C0100150C0100150C0100150C0100150C0100150C0100FFFFFFFFFFFFFFFFFFFFFFFFFEFFFFFF06
S3510000C42001DF704701DFFFF7FEBFDFF8C802D0F8000072B6B0F8181051B9D0F82410D0F81C20D2F81C30994200F0028062B603DF62B6704702DF70474DF804ED72B61EF0040F0CBFEFF30881EFF3098150
S3510000C46CD1F8181011F8021C032940F0048000F029F800F024B8012940F00880DFF86802D0F800005DF804EB00F047B8022940F01680DFF85402D0F80000D0F81C10D1F8082042F00102C1F80820D1F8E1
S3510000C4B80420D1F80030C2F80030C3F8042000F003F862B65DF804FB2DE90740DFF82002D0F8041011F0805F40F00C80EFF31182A2F1100280F82220DFF8082251EA0201C0F80410BDE8078072B6EFF312
S3510000C504098CDFF8F81191F80220EFF311832CE9FC4FDFF8DC01D0F80000D0F81C30C3F814C072B6D0F82410D1F800208A4240F01680D1F808105FEA01017FF4F5AF81F31188DFF8B811DFF8B82181F818
S3510000C550022062B6AFF3038072B6D0F82010FFF7E5BFC0F82410C0F81C20B2F82430A0F81A30D2F814C0BCE8FC4F83F311888CF3098862B6704772B64DF804EDDFF86431D3F80030B3F8181001F10101B9
S3510000C59CA3F81810DFF864014DF8040DEFF31182EFF30581D3F834002DE90700EFF30880C3F834004FEA0100D3F830200AB900F04BB8904200F24880D3F82C20811AC0F24380D3F838204FEAD1014FEA81
S3510000C5E8810152F8011009B900F038B8D1F8002042B1824200F00880D1F8101011EA010F7FF4F4AF00F02AB8D1F80C00D1F8042062B64DF8043D90475DF8043B72B6BDE80700C3F834005DF8040BB3F8F1
S3510000C6341810491EA3F81810D3F81C20D2F8280010F4805F40F0098039B9D3F82410D1F80010914218BFFFF739FF62B65DF804FBD3F82820FFF7D6BF72B62DE9F100DFF88030D3F80030D3F834C00CF1B4
S3510000C680100C5CF804EBDFF8840020F00100CCF818009CE8FF005DF804CBACF1040C2CE9FF00BDE8F0008CF3088862B670472DE9024090F8001011F0800F03BF41F0800180F8001080EA00004FF0800041
S3510000C6CCBDE80280EFF309807047EFF308807047EFF303807047704670477846704762B6704772B670470000600BFF1F00ED00E00000001020ED00E0FF0000000000000021C6000070B5DFF8AE50049C33
S3510000C718DDF814C0032916D021290BD0222934D1DFF89A00006A2060DFF89600006ACCF800003DE0DFF886008068123020600920CCF8000034E033B9A86A206095F82C00CCF800002CE0002001212E6BA2
S3510000C7643688B34203D1032A02D2114600E001202B6B0C2242439818406850F821002060286B80188068405CCCF8000012E008290ED2DFF82E0050F821002060DFF8260050F82100CCF80000206818B932
S3510000C7B0CD2002E0CD2000E00020BDE870407047C0460008FF1FC008FF1F9C08FF1F0000012905D2DFF80C00405C107000207047CD207047D012FF1F012904D2DFF80C00425400207047CD207047C04626
S3510000C7FCD012FF1FDFF8183002201A78914201D1012070475B1C401EF7DC00207047C0460008FF1F00207047DFF804007047C0460C08FF1F08B5DFF88210DFF88230186803282FD8DFE800F0020E1A25E8
S3510000C84802224A7200228A725A68521C5A60642A22DD401C18601FE000224A7202228A729A68521C9A60642A16DD401C186013E0FE224A7200228A725A68521E5A600BD5401C186008E000224A72FE2028
S3510000C89488729868401E986000D51A6008680121DFF81620042307F089FCBDE808407047C046E012FF1FD412FF1FE812FF1F000008B5052816D8DFE800F00315080F15150021DFF8280041600CE00121E4
S3510000C8E0DFF81C004160FFF7A3FF05E0DFF81000406808B1FFF79CFFBDE808407047C046E012FF1F38B5DFF876C00025841E04F001041D600B282ED8DFE800F02D0619252D2D2D2D2D0C1F2BDFF8560066
S3510000C92C10600420186020E00024DFF84A10042013681B5D01F8013B641CE4B2401EF7DC13E00CEB04001060012018600DE001F47F4000120CF8040007E00CEB040010600120186001E00CF8041000200F
S3510000C978BDE8384070473013FF1FE812FF1F000038B58AB006F070FCDFF84A502846542104F01CFE00AC2046282104F017FEDFF83A000190DFF8360003900495DFF8320007900895DFF82E0009900120FA
S3510000C9C40090DFF82A000290204607F061FB286006F030FC07F09AFDFCE7E012FF1F0C08FF1FC5C8000005C900007809FF1FEC12FF1F0000DFF804301847C04689C90000FEB507460E46242006F046FE3E
S3510000CA10044610B94AF6016026E0242104F0DAFD38462146324601F0CFF90546B8B938462146324600F080FB054680B9DFF82E000090DFF82E00019002943846DFF82610DFF82620DFF8263005F0F8FB6E
S3510000CA5C054615B1204606F023FD2846BDE8FE40704771CE000075CE000085CA000051CD0000F9CD000000002DE9FE4F8246894690460068446A816801E009F1010911F9010B0028F9D199F900000028C8
S3510000CAA840D112B94AF603604BE1206888B9142006F0E0FD206010B94AF6016041E1082006F0D8FD606038B906F0ECFC4AF6016037E14AF6046034E1D8F80010206801600025606845605046216801F056
S3510000CAF46DF9009040B1206806F0D6FC606806F0D3FC256065600DE05046616800F014FB009038B1206806F0C7FC606806F0C4FC2560656000980EE1002704F1080504F1100612B94AF6036005E120687E
S3510000CB4010B94AF6056000E15068012802D24AF60660FAE00220019004EB87008069494609F008FB10B94AF60460EEE07F1C0198401E0190F0DC002700E07F1C022F04D204EB870080690028F7D1022F2F
S3510000CB8C02D14AF60760DAE01C2006F071FD834618B94AF601600090D0E055F8270098B9202006F065FD45F8270018B94AF601600090C0E02C2006F05BFD46F8270030B94AF601600090AFE04FF0FF308F
S3510000CBD8B7E055F82700CBF8000056F82700CBF80400CAF804B0D8F81400401C400006F041FD55F82710C86055F82720D168D8F81400401C01EB4000106155F82710C86818B94AF60160009081E04861C1
S3510000CC2455F82710C868886155F827000760B8F8021055F827008180B8F8001055F82700C180D8F8181056F82700C161D8F8081056F827008160D8F80C1056F82700C16056F827000760B8F8021056F85F
S3510000CC7027008180D8F80400411E56F82700816156F8271088694861D8F81C1056F827000162D8F8201001B9012156F827004162504655F8271001F0CBF90090B0BB504656F8271000F09EFB009050BBD0
S3510000CCBC484609F04FFA401C06F0DAFC04EB87029061D8B1002304E019F9011B9069C1545B1C99F900000028F6D1002004EB87018969C854B8F8021011F0020127D1504641F20111002200F0B7F820E002
S3510000CD08504656F8271000F00FFC504655F8271001F01CFA55F82700C06806F0C3FB56F8270006F0BFFB002046F8270055F8270006F0B8FB002045F82700584606F0B2FB0098BDE8FE4F70472DE9F04738
S3510000CD54824601684D6A466805F1080705F11008CEB90220396811B14AF608603FE03F1D401EF7DC5046696800F04EFAB8BB5046296801F04DF990BB686806F08DFB286806F08AFB2AE03168D1F8009074
S3510000CDA071680024002200F05BFD5046716800F0BFFBF0B95046316801F0CCF9C8B905EB8900806906F072FB05EB890084613068C06806F06BFB306806F068FB706806F065FB304606F062FB47F82940E3
S3510000CDEC48F829400020BDE8F047704738B50B464068D0F800C0DCF814400CB900202EE0DCF81800001B00EBD070401008D5DCF81050DCF80C402C1B04EBD47400EB64005208904200D91046002515E01B
S3510000CE38DCF81420128823F8022BDCF814201580DCF81420941CCCF81440DCF81020944203D3DCF80C20CCF81420401E0028E7D1581ABDE83840704700207047F8B506460D461446D0F804C0092901D811
S3510000CE8433D03AE041F20113C91A072935D8DFE801F0040A0E14181E2228DCF80410002200F0ACFB3EE0002100F0A8FB3AE0DCF80410002200F0D2FC34E0002100F0CEFC30E0DCF80410002200F008FC1E
S3510000CED02AE0002100F004FC26E0DCF80410002200F05AFC20E0002100F056FC1CE0152010600020506008209060002014E030462946224600F082FD074618B140F60921884209D130462946224600F08C
S3510000CF1C09F840F60921884200D13846BDE8F8407047000038B503685B6A406808B1D0F80CC041F2111EA1EB0E010E2900F2E980DFE811F0100031003E00E700E700E70042008300E700E700E700E700B7
S3510000CF68E700B300DA00DA00DFF8BA01056815B94AF60B60D3E04FF0000C46F20404C4F203042368A2FB030102FB0C110CFB03112A46002309F0F2FA4FF6FF71884202D94AF60660BBE0A060B8E04FF665
S3510000CFB4FF70824202D94AF60660B2E046F20C00C4F203000260ABE0DFF85E014260A7E0DFF8560105681DB9104600F01FF9A0E046F2040EC4F2030EDEF80000A2FB0001B0FBF5F0401E4FF6FF7188425B
S3510000D00002D94AF606608EE080B2CEF80000186910B1806A8069A8B146F20402C4F2030211684FF6FF70814202D14FF6FF7201E01068421C28200CFB00F146F21800C4F203000A5046F20001C4F20301CA
S3510000D04C086840F00100086066E04FF6FF70824202D94AF6066060E046F20400C4F203000260186910B1806A8069A8B146F20402C4F2030211684FF6FF70814202D14FF6FF7201E01068421C28200CFBCD
S3510000D09800F146F21800C4F203000A5046F20001C4F20301086840F00100086036E010B94AF60A6033E04FF6FF718A4202D94AF603602CE028210CFB01FE81680EEB810346F21801C4F203015A508068FD
S3510000D0E428B95EF80110DFF8460040F82C1046F20001C4F20301086840F0010008600FE046F20001C4F20301086820F47063100200F470601843086002E040F6092000E00020BDE838407047C0463413F1
S3510000D130FF1F5013FF1F0000002070472DE9F041074647F20004C4F204040068456A286A067841F23C00215841F480012150A4F58831086840F080000860DFF8A680D8F8100010F001001DD1286A006AD0
S3510000D17C006806F02BF8C8F80C00286A006A0068DFF886103A4605F0C5FFC8F80800286A016A03C9C9B2012204F00CFCD8F8100040F00100C8F8100046F20000C4F20300016821F040010160016821F473
S3510000D1C84021016001680022282106FB01F300F110015A540A469A5842F47F4210301A50585820F47F005850002E41F2180004D1215821F08001215003E0215821F4004121500020BDE8F041704734132B
S3510000D214FF1FC5D9000000000020704730B585B005460024DFF8BE1191F90020B2F1FF3F53D14AF6AA22C0F2020200920722049207E0049A521E0492009A0292009A52080092049AB2F1FF3F02D0009A1A
S3510000D2609042F0D3049A521C04924AF6AA22C0F26A0200920922039207E0039A521E0392009A0192009A52080092039AB2F1FF3F02D0009A9042F0D3039A521C0392049A082A05D1039A0A2A02D14AF6E4
S3510000D2AC066098E0029B019A934207D2049A082A04D0029A0192049A039252E0039A072A05D9039A921FD4B20722039249E0012447E046F20002C4F20302126802F00C02082A06D820D2042A35D82AB1FA
S3510000D2F8042A0FD031E00C2A24D02EE04AF6AA23C0F2020391F90020C2F1070223FA02F2019222E04AF6AA23C0F26A0391F90020C2F1090223FA02F2019216E04AF6AA23C0F26A0391F90020C2F10802FD
S3510000D34423FA02F201920AE04AF6AA23C0F26A0391F90020C2F1070223FA02F20192019A904202D94AF6066039E0039A0A70002141EA10410004019A002309F001F9029002994FF6FF70814202D94AF6A4
S3510000D390066026E00298411E46F20400C4F203000160001F016821F00C0101600268A10001F00C0111430160016841F001010160DFF82A100D60016821F4E04101600268039942EA01310160016841F0F1
S3510000D3DC23010160002005B0BDE830407047E409FF1F3413FF1F00002DE9F84388464468E568C86900F48030B0F5803F02D04AF60C6084E0DFF80E01026872B1CA680168B2FBF1F100684843824202D010
S3510000D4284AF6066075E021610020606108E00120206100206061C868FFF7EEFE002868D146F20007C4F20307386840F470603860A668DFF8C6000268386840F00100386046BBD8F808E04FEAEE7CD7F892
S3510000D47404900023AEFB09010EFB03110CFB0911002309F07DF8DFF89A1041F8250079684FF6FF70814202D14FF6FF7201E07868421C282005FB00F146F21800C4F203000A500120A06116E0D8F8089032
S3510000D4C04FEAE97ED7F804C00023A9FB0C0109FB03110EFB0C11002309F054F82821694301EB860207F11801505046F20001C4F20301086840F001000860DFF82E2052F825100120B040084342F82500F8
S3510000D50CD8F81800C8F81400C8F828400020BDE8F8437047C0463413FF1F5013FF1F4813FF1F000010B54168C8688968E1B946F20404C4F2030423684FF6FF72934202D14FF6FF7401E02268541C2822E1
S3510000D55800FB02F346F21802C4F203029C50A2F118031A6842F001021A600FE0282200FB02FC46F21002C4F203021CF8024001238B40DB43DBB223400CF80230DFF860404FEA800C54F82030012202FA02
S3510000D5A401F123EA010144F8201054F80C1041B90023282100FB01F246F21001C4F203015354DFF83030022153F820206AB9491EFADC46F20001C4F20301086820F0800008600021DFF810000160002039
S3510000D5F0BDE810407047C0464813FF1F3413FF1F70B541680068406A036A1B7832F4803202D04AF60C605CE029BB9D00DFF8B84054F8231041F00106282103FB01FC46F21002C4F203020CF8026054F8E5
S3510000D63C231011F001013BD0DFF894104B5902F108014CF80130103A116841F00101116000218068C06981612AE0886860B9DFF8700050F823C0282003FB00F246F21800C4F2030042F800C046F2000058
S3510000D688C4F20300026842F00102026000228A61282203FB02FC00F110021CF802300122896802FA01F141F00101C9B2194310300CF8001046F20002C4F2030211688020C0F20100084310600020BDE859
S3510000D6D4704070474813FF1F5013FF1F41680068406A006A007832F4803202D04AF60C60704759B9282100FB01F246F21000C4F20300115821F0FF0111503EE0D1F808C0BCF1000F0FDD282100FB01F345
S3510000D72046F21000C4F203001A58012101FA0CF1C9B222EA0101195029E0282200FB02F346F21802C4F2030253F802C0DFF8423043F820C0A2F1140CDCF800304FF6FF72934202D14FF6FF7302E0DCF8F5
S3510000D76C0020531C2822424346F21800C4F203001350A0F11802106840F00100106001208861002070475013FF1F000070B541680068406A036A1B7832F4803202D04AF60C604FE029BB9D00DFF89E40E0
S3510000D7B854F8231041F00106282103FB01FC46F21002C4F203020CF8026054F8231011F0010138D0DFF87A104B5902F108014CF80130103A116841F00101116000218068C069816127E0D1F808C0BCF1F9
S3510000D804000F0DDD2820434346F21000C4F203001A5C012101FA0CF1C9B21143195414E0DFF8320050F823C0282003FB00F246F21800C4F2030042F800C0A0F11802106840F001001060002088610020EE
S3510000D850BDE8704070474813FF1F5013FF1F000041680068406A006A007832F4803202D04AF60C60704741B900222821414346F21000C4F203000A543DE0D1F808C0BCF1000F0EDD282100FB01F346F2C9
S3510000D89C1000C4F203001A5C012101FA0CF1C9B21143195429E0282200FB02F346F21802C4F2030253F802C0DFF8423043F820C0A2F1140CDCF800304FF6FF72934202D14FF6FF7302E0DCF80020531CD3
S3510000D8E82822424346F21800C4F203001350A0F11802106840F00100106001208861002070475013FF1F000010B54468C168626912B1501E606149E0A28812F004023ED0D0F808C0BCF1000F0FDD28204D
S3510000D93401FB00F346F21000C4F203001A5C012101FA0CF1C943C9B21140195429E0282201FB02F346F21802C4F2030253F802C0DFF8563043F821C0A2F1140CDCF800304FF6FF72934202D14FF6FF7339
S3510000D98002E0DCF80020531C28224A4346F21801C4F203015350A1F11802116841F00101116001218161206A10B1616A05F09CFCA06960610020BDE810407047C0465013FF1F000008B50F2146F21400C5
S3510000D9CCC4F2030001608162DFF82C00006808B100F044FCDFF82400416809B14068804746F20001C4F20301086820F040000860BDE808407047C0466C13FF1F3413FF1F2DE9F041DFF8AC431546036851
S3510000DA185B6A4668186A077841F20910081A1B2800F2C281DFE810F01C003000390042006E007A0086009200C001C001C001C001C200E900C001C001110122013301C001C001C001C001440163017D010F
S3510000DA649601AB0116B14AF60960A3E1DFF850030168780021FA00F010F0030002D04AF6086097E1384600F021FC93E116B14AF609608FE13846294600F0BEFC8AE116B14AF6096086E13846294600F099
S3510000DAB085FC81E116B14AF609607DE1384600F0DDFCC16821F00301C160142D01D1C16817E00C2D04D1C16841F00101C16010E0062D04D1C16841F00201C16009E0022D04D1C16841F00301C16002E04B
S3510000DAFC4AF606605AE1816841F01001816054E116B14AF6096051E1384600F0B1FC816821F01001816048E116B14AF6096045E1384600F0A5FCC16841F00401C1603CE116B14AF6096039E1384600F0AA
S3510000DB4899FCC16821F00401C16030E116B14AF609602DE1384600F08DFC25B9416A21F00401416223E1416A21F003014162202D04D1416A41F00F01416218E1102D04D1416A41F00E01416211E1082DF6
S3510000DB9404D1416A41F00D0141620AE1042D04D1416A41F00C01416203E14AF6066001E116B94AF60A60FDE005F058FB384600F05BFC8046B56803E03846B16800F0F6FA58F8250010F08000F6D158F848
S3510000DBE0250020F0400048F8250022680121B06800EB470001FA00F01043206005F01CFBD9E016B94AF60A60D6E005F031FB384600F034FC8046B56803E03846B16800F0CFFA58F8250010F08000F6D1E0
S3510000DC2C58F8250040F0400048F8250022680121B06800EB470001FA00F022EA0000206005F0F4FAB1E094B216B14AF60960ADE04FF6FF70824202D94AF60660A6E0384600F006FC8462A0E094B216B1D6
S3510000DC784AF609609CE04FF6FF70824202D94AF6066095E0384600F0F5FBC4628FE094B216B14AF609608BE04FF6FF70824202D94AF6066084E0384600F0E4FB04637EE016B14AF609607BE0384600F00B
S3510000DCC4DBFB016A21F0030101620DB9006A70E0012D04D1016A41F00101016269E0022D04D1016A41F00201016262E04AF6066060E016B94AF60A605CE0384600F0BCFB3168C98801F01F01022902D088
S3510000DD104AF60D6050E0016D21F470210165026D45F410011143016545E012B94AF6036042E016B94AF60A603EE0384600F09EFB3168C98801F01F01022902D04AF60D6032E0006D00F4702028602CE068
S3510000DD5C16B94AF60A6029E0384600F089FB3168C98801F01F01022902D04AF60D601DE0016D41F40011016517E016B94AF60A6014E0384600F074FB3168C98801F01F01022902D04AF60D6008E0016D09
S3510000DDA821F40011016502E040F6092000E00020BDE8F0417047C0466C13FF1F5813FF1F0A620020704700002DE9F84306460D460068476A386A90F80080404600F04AFB044600202968082906D80CD20A
S3510000DDF4042907D849B1042907D003E00C2901D1012002E04AF6066003E1396AC96809B940F00200396A096909B940F00400DFF8F81151F82090404603F050F8396A4868042800F2CE80DFE800F05087A2
S3510000DE4003B0BEBE8B68B3F1FF3F29D146F60040C0F2DC20814502D30020A060BEE04008814502D32020A060B8E041F60030C0F2B700814502D34020A060AFE04008814502D36020A060A9E04CF2C060B0
S3510000DE8CC0F22D00814502D36120A060A0E04AF60660BAE046F60042C0F2DC22012000FA03F1B2FBF1F0484504D8580100F06000A0608DE05008B0FBF1F0484506D8580100F0600040F00100A06081E0B5
S3510000DED84AF606609BE08A68B2F1FF3F20D146F60040C0F2DC20814502D30020A06071E04008814502D32020A0606BE041F60030C0F2B700814502D34020A06062E04008814502D36020A0605CE04AF683
S3510000DF24066076E046F60041C0F2DC2101209040B1FBF0F0484504D8500100F06000A0604AE04AF6066064E08A68B2F1FF3F10D14CF2C060C0F22D00814501D36120A0604CF2C060C0F22D00814535D311
S3510000DF704AF606604FE043F20061C0F26E1101209040B1FBF0F0484506D8500100F0600040F00100A06021E04AF606603BE08868B0F1FF3F02D14AF6066034E0400100F0600040F00200A06010E0886848
S3510000DFBCB0F1FF3F02D14AF6066026E0400100F0600040F00300A06002E04AF606601CE0A16828680843A060206A40F040002062386A806905F0F2F8E860386A8069DFF82410324605F08EF8A860396A27
S3510000E0088869C969C9B2012203F0D6FC0020BDE8F8437047D0690100ADE2000008B50A460068406A006A80698968D26805F074F80020BDE8084070472DE9F8430D4601684E6A4768306A90F80080404662
S3510000E05400F012FA0446DFF8F0100A684FEA480122FA01F3EF61E98801F01F0C11F4006101D04CF0200C4CF0400C00224FF0010E02210EFA02F913EA090902D0521C491EF7DC022A02D14AF6076051E05F
S3510000E0A040F822C0C7F80C80BA60DFF8A000D0F800C0012302EB480103FA01F14CEA01010160DFF88C0000EBC20040F82870E88800F47040011306D008F10100884202D04FF0FF302EE03068017C29B1EF
S3510000E0ECE88800F4C060B0EB412F23D1E88802F003FF08BB3268117C21B9E98801F4C061491211743168097C012904D1E16821F01001E16005E0022903D1E16841F01001E160E98801F01F01022905D1D4
S3510000E1384FF41001216501E04FF0FF30BDE8F8437047C0465813FF1F5C13FF1F70B54068C5688668284600F08DF9044605F084F81F2044F82600DFF844000268012406EB450104FA01F122EA0101016051
S3510000E18405F058F8DFF82C00026806EB450104FA01F122EA010101600021DFF81C0000EBC60040F825100020BDE870407047C0466C13FF1F5813FF1F5C13FF1F38B505460C4600F059F950F8241011F0A1
S3510000E1D0800144D0DFF88C1001EBC40151F825201168536933B100EB840000690090581E506134E013695B1E53618B8813F010030BD0D1F818C0BCF8003000EB8400006980B21818ACF8000004E000EB1B
S3510000E21C84000369886903805368888810F0100001D0586990B98869831C8B610869834201D3C86888618B694869834206D1831C4B610869834201D3C86848611046FFF759FBBDE8384070475C13FF1F87
S3510000E2682DE9F8434FF000080025DFF8347002264FF00009022407EBC900285818B140464946FFF799FF09F10109641EF3DC08F101082D1D761EEBDCBDE8F8437047C0465C13FF1F70B50068406A006A28
S3510000E2B405780026022428463146FFF77FFF761C641EF8DCBDE870407047000008B500F0D3F810B94AF606606AE0016ACBB2416ACAB2016A21F040010162416A016A11F08001FBD1416A11F0400106D07B
S3510000E300416A41F0400141624FF0FF3052E0C16C89B2091C89B2D0F848C0CCF30F0C614489B2D0F844C0CCF30F0C614489B2D0F840C0CCF30F0C614489B2D0F83CC0CCF30F0C614489B2D0F838C0CCF314
S3510000E34C0F0C614489B2C1F34F0101F5004189B2C162C16E89B2091C89B2D0F868C0CCF30F0C614489B2D0F864C0CCF30F0C614489B2D0F860C0CCF30F0C614489B2D0F85CC0CCF30F0C614489B2D0F8C9
S3510000E39858C0CCF30F0C614489B2C1F34F0101F5004189B20163426203620020BDE808407047000010B50C4600F05CF814B94AF6036024E010B94AF6066020E0816A2180C16CA173816C6173416C2173AD
S3510000E3E4016C6181C16B2181816BE171C16A6180016DE173C16E2176816EE175416EA175016EA182C16D6182816D6174006BA0800020BDE81040704710B50C4600F02CF814B94AF6036024E010B94AF689
S3510000E430066020E021888162A17BC164617B8164217B4164618901642189C163E17981636188C162E17B0165217EC166E17D8166A17D4166A18A0166618AC165617C8165A18801630020BDE810407047AD
S3510000E47C10B1012805D009E04BF20000C4F2030070474BF20000C4F20B0070470020704718B583B0044600F0F9F988B9DFF82E000090DFF82E000190002002902046DFF82610DFF82620DFF8263003F073
S3510000E4C8C1FE01E04FF0FF3003B0BDE818407047C04639E7000089EA0000F1E40000C5E6000035E7000000002DE9F84F80460F46164634465C2004F061FF054610B94FF0FF30D3E04FF47D7104F06EFF73
S3510000E514C8F8045004F0AAFE002E00F09E804FF0010B05F1200305F1340205F1480105F10C008CE0D4F800C01CF0004900F07E802CF07F494FEA59190CF01F0A0BFA0AFEB9F1140F80F07280DFF85CA1F9
S3510000E5605AF829A01EEA0A0A40F06A801CF0706C5FD0DFF84CA15AF829A01EEA0A0A5FD14FF0000ABCF1407F09D81FD2BCF1807F01D814D041E0BCF1007F09D03DE0BCF1806F01D81FD038E0BCF1006F0B
S3510000E5AC28D034E053F829C04CEA0E0C43F829C02FE052F829C04CEA0E0C42F829C028E053F829C04CEA0E0C43F829C052F829C04CEA0E0C42F829C01BE052F829C04CEA0E0C42F829C051F829C04CEA55
S3510000E5F80E0C41F829C00EE053F829C04CEA0E0C43F829C051F829C04CEA0E0C41F829C001E04FF0FF3ABAF1000F0DD150F829A04AEA0E0A40F829A00EE050F829A04AEA0E0A40F829A007E004F0FAFDEE
S3510000E644284604F031FF4FF0FF3031E0241DD4F80090B9F1000F7FF46DAF40463946324600F072F938B104F0E5FD284604F01CFF4FF0FF301CE00021DFF83C00DFF83C700522046805EB8108D8F80C3041
S3510000E690234340F8043B3E68D8F82040D8F834302343334347F8043B491C521EEBDC04F0C3FD0020BDE8F84F7047C0467413FF1F8813FF1F70B50646456804F0D1FD30464FF442710024002203F0DCF926
S3510000E6DC304640F20631002203F0D6F9DFF84000DFF840E00521036805EB8406F26823EA020240F8042BDEF800C0336A726B1A432CEA02024EF8042B641C491EEBDC04F08DFD284604F0C4FE0020BDE82D
S3510000E728704070477413FF1F8813FF1F002070470020704709B1022100E0002108B1042000E000200AB1012200E00022084342EA0001DFF80600405C7047F569010000002DE9FE4F8146416801294FF24C
S3510000E7741401C4F20F011AD10B68C2681A430A600B6C02691A430A64D1F8803042691A43C1F88020D1F8C03082691A43C1F8C020D1F80021C0691043C1F800011EE00B68C26823EA02020A600B6C0269F0
S3510000E7C023EA02020A64D1F88030426923EA0202C1F88020D1F8C030826923EA0202C1F8C020D1F80021C06922EA0000C1F8000100270520019009EB8706B26C316A706B084342EA000B4FF000080025F3
S3510000E80CDFF87E0050F827A04FEA0A0420200090012000FA08F2F068104216D0706B1040316A1140B36C1A40FFF782FF000400F4702040F480702060D9F8040028B95AF8050040F003004AF8050008F1E7
S3510000E8580108241D2D1D0098401E0090DADCBBF1000F07D007F16700DFF81E10C95D012203F0A2F87F1C0198401E0190B7DCBDE8FE4F7047C046006A0100F0690100000008B502F0D9FB0020BDE8084018
S3510000E8A47047000038B504464FF0FF3249F2A001C4F204010A6001F58050026001F50050026001F54050026001F5804002606720DFF86E502946002204F020FC10B90020C0432AE068202946002204F033
S3510000E8F017FC10B90020C04321E069202946002204F00EFC10B90020C04318E06A202946002204F005FC10B90020C0430FE06B202946002204F0FCFB10B90020C04306E0204640F20731002200F0A6F896
S3510000E93C0020BDE838407047C0463DEF00000000F8B58AB006460F461546446869B391F9000050B33846DFF812110B2207F066FC10B90120606023E03846DFF802110C2207F05CFC10B90120606019E0F8
S3510000E9883846DFF8F2100A2207F052FC10B9002060600FE03846DFF8E2100B2207F048FC10B90020606005E04FF0FF305BE04FF0FF3058E03046FFF773FF10B14FF0FF3051E0002D4BD06068012848D1C1
S3510000E9D405A8142107F062FC00A8142107F05EFC012600AB05AA1BE0D5F800C02CF07F4040090CF01F0106FA01F1C1F3070E1CF0804106D053F8201041EA0E0143F8201005E052F8201041EA0E0142F8F2
S3510000EA2020102D1D28680028E0D100984FF20401C4F20F0108600598486001980864069848640298C1F880000798C1F884000398C1F8C0000898C1F8C4000498C1F800010998C1F804012046FFF77EFEB4
S3510000EA6C00200AB0BDE8F8407047E509FF1FF009FF1FFC09FF1F060AFF1F00002DE9F04F9BB0DFF89C5414464768A1F20130072800F23D82DFE810F008004C00A700660102010902A901E80104F0DCFBCD
S3510000EAB820460125DFF8703416E0026812F000410CD022F07F41490902F01F0205FA02F2142903D253F82110114204D004F0A8FB4FF0FF3019E2001D01680029E5D12046012607F10C05DFF8304412E06F
S3510000EB0450F8042B22F07F41490902F01F0206FA02F255F82130134345F8213054F821301A4344F8212001680029E9D13846FFF719FE04F07FFBF1E17868012802D04FF0FF30ECE1AAB904F091FBF868B4
S3510000EB504FF20401C4F20F010860386908647869C1F88000B869C1F8C000F869C1F8000104F062FBD4E116A8142107F091FB04F077FB012216A91DE0236813F0004013D023F07F40450903F01F0002FA83
S3510000EB9C00F3142D0AD207EB8500C068184205D051F82500184341F8250004E004F03EFB4FF0FF30AFE1241D20680028DED116984FF20401C4F20F010860179808641898C1F880001998C1F8C0001A9871
S3510000EBE8C1F8000104F024FB96E17868012802D04FF0FF3091E1AAB904F036FBF8684FF20801C4F20F010860386908647869C1F88000B869C1F8C000F869C1F8000104F007FB79E111A8142107F036FB3A
S3510000EC3404F01CFB012211A91DE0236813F0004013D023F07F40450903F01F0002FA00F3142D0AD207EB8500C068184205D051F82500184341F8250004E004F0E3FA4FF0FF3054E1241D20680028DED1CD
S3510000EC8011984FF20801C4F20F010860129808641398C1F880001498C1F8C0001598C1F8000104F0C9FA3BE17868012802D04FF0FF3036E112B94FF0FF3032E10CA8142107F0EEFA07A8142107F0EAFA95
S3510000ECCC04F0D0FA012007AE0CAD27E0D4F8008018F000411CD028F07F41490908F01F0200FA02F2142913D207EB8103DB6813420ED018F0804305D056F821301A4346F821200AE055F821301A4345F8A5
S3510000ED18212004E004F08CFA4FF0FF30FDE0241D21680029D4D107984FF20401C4F20F0108600C984860089808640D9848640998C1F880000E98C1F884000A98C1F8C0000F98C1F8C4000B98C1F8000112
S3510000ED641098C1F8040104F065FAD7E0DFF8C06102AD022303CE03C55B1EFBD130682860786810B14FF0FF30C9E012B94FF0FF30C5E004F06BFA02AA012124E0236813F000401AD023F07F40450952F840
S3510000EDB0256003F01F0001FA00F8142D0FD207EB8500C06818EA000009D0306810EA080002D043F0804007E023F0804004E004F02BFA4FF0FF309CE001C420680028D7D104F022FA94E04FF000080520DE
S3510000EDFC019007EB8806B26C316A706B084342EA00094FF0000ADFF8240150F828504FF0010B2C462020009019F0010013D0286820F4702028600BFA0AF2706B1040316A1140B36C1A40FFF77BFC2168DE
S3510000EE48000400F47020084320604FEA59090AF1010A241D2D1D0098401E0090DEDC08F101080198401E0190C5DC55E00025DFF8C040052007EB85018B6C0A6A496B114343EA010800262368202118F01D
S3510000EE94010203D01A6822F470221A604FEA5808761C1B1D491EF2DC6D1C241D401EE3DC34E07868012802D14FF0FF302FE0BA6004F0D4F9002C296816D109B305E0B94206D00868B84203D001460868E1
S3510000EEE00028F6D1B94203D128680068286011E00868B8420ED1006808600BE021B92F6008E0B94203D0096808680028F9D1B94200D00F6004F090F902E040F6092000E000201BB0BDE8F04F7047C04657
S3510000EF2C7013FF1F7413FF1F140AFF1F006A010010B584B0DFF8960000680390002002903DE000220192DFF88A00012129E0009221E0009B01FA03FC039C019B04EB8303DB681CEA030313D0019B50F847
S3510000EF782340009B54F8233013F080730AD0019B50F823C0009C5CF8243043F080734CF824300291009B5B1C0093009B202BDADB019B5B1C0193019B052BD2DB029828B100240020039989688847029475
S3510000EFC403980068039003980028BED104B0BDE810407047C0467013FF1F006A0100000010B1012805D009E046F20000C4F20600704747F20000C4F2060070470020704710B1012802D003E0282070472D
S3510000F01029207047002070470EB5DFF824200092DFF8202001920291DFF81C10DFF81C20DFF81C3000F0ECFABDE80E407047C04605F2000001F9000055F00000F9F0000051F100002DE9F04104460A4629
S3510000F05C4669304604F1180100F0E0FB074600283DD1A5696C693078FFF7C6FF804610B94AF6021033E0306904F002FAE86208B904202CE0F06804F0FBF9A8630028E86A05D104F005FA0020E8620420C7
S3510000F0A81FE040F2094104F09FF9A86B40F20A4104F09AF9404604F08BF8E8614046DFF82A102A4604F028F8A8612878FFF796FF297A012202F070FCA07840F04000A0703846BDE8F0417047C046ADF2F7
S3510000F0F40000000070B506460D4601B110B94AF603101FE04A69D17811F0200102D04AF6011017E000249470D47040690078FFF76FFFA969EA6903F0F9FFB06904F0BCF9B461E86A04F0B8F9EC62A86B91
S3510000F14004F0B4F9AC630020BDE8704070470000F8B50F4616468469656904F089F8A87800F0BF00A87004F067F8002000210FE0636B226B93420DD05A1C6263E26AD25C07F8012B636B2269934200D3BB
S3510000F18C6163401CB042EDD394F8222000A90A700A78012A28D8032284F8222094F8212012BBAA7842F01002AA70097801290CD1E97841F00201E970A97841F00401A970E97811F08001FBD003E0A9782C
S3510000F1D841F02001A9700121616294F82310490041F001012971E16C491CE164A97841F04001A970BDE8F84070470000F8B50F4616468469656904F02FF8A87800F0BF00A87004F00DF8002010E0E16B19
S3510000F224491CE268914200D30021226C914209D017F801CBA36BE26B03F802C0E163401CB042ECD394F82210012925D8022284F8222094F82120FAB9AA7842F01002AA7001290CD1E97841F00201E970E8
S3510000F270A97841F00401A970E97811F08001FBD003E0A97841F02001A9700121616294F8231049002971E16C491CE164A97841F04001A970BDE8F840704700001CB50DF1000C4269D37800214162446CBC
S3510000F2BC641C4464947814F0200400F0A380947814F0100459D013F001030ED0D17841F00201D170917801F0EF019170816D491C8165072180F8221089E190F82230022B1DD1C46B036C9C4204D19078F3
S3510000F30800F0BF0090707CE1D37843F00203D37001234362046C631C0364836B1B5D1371036CC268934200D30164C16C491CC16467E1032B1ED1D17841F00201D170917801F0EF019170816A012903D184
S3510000F354917841F008019170816A39B9917801F0C7019170072180F822104CE10121416210798CF8000046E1D07840F00200D07041E190F82230032B3BD1836A002B38D0036B5B1C8CF800309CF800400E
S3510000F3A003699C4201D38CF800109CF80030416B8B4204D1907800F0BF00907025E1D17841F00201D170816A491E816207D1917801F0C7019170072180F8221001E001214162816A012903D1917841F071
S3510000F3EC080191701379C26A016B53549CF800100163816C491C816401E1D07840F00200D070FCE013F010010DD0D17801F0EF01D170C16B0164416B0163016D491C0165062180F8221013F040015FD0C9
S3510000F43890F8211031B9C16B0164416B0163416D491C416513F004012FD090F82210022905D0052903D0C16B0164416B0163917841F010019170052180F82210C36B016C8B4204D1907800F0BF00907012
S3510000F484C1E0D17841F00201D17001214162036C591C0164816BC95C1171026CC1688A4201D300210164C16C491CC164ABE0D17841F00201D170917801F0EF01917090F82210032906D0042904D0C16BA5
S3510000F4D00164416B016306E0816A012903D1917841F008019170042180F822100121416210798CF8000088E013F0100140F08180917811F010013ED013F0010111D0D17841F00201D170917801F0EF015D
S3510000F51C917011798CF80010816D491C8165072180F822106BE090F82210022901D005291ED1C36B016C8B4204D1907800F0BF0090705CE0D17841F00201D17001214162036C591C0164816BC95C1171C6
S3510000F568026CC1688A4201D300210164C16C491CC16446E0907800F0BF00907041E090F82210032901D0042932D1816A81B3036B591C01638CF800309CF8003001698B4202D300218CF800109CF8003095
S3510000F5B4416B8B4204D1907800F0BF00907022E0D17841F00201D170816A491E8162012903D1917841F008019170012141621379C26A016B53549CF800100163816C491C816408E0907800F0BF0090705B
S3510000F60003E0D07840F00200D070BDE81C4070472DE9F04184B00546884617461E46242003F0D0FE044608B9042020E040F2074103F0DEFEC4F800806760A6600A98E0600B9820610C986061DFF82A001C
S3510000F64C0090DFF82A000190DFF82600029003942846DFF82210DFF82220DFF8223002F073FD04B0BDE8F041704739F7000049F7000091F60000BDF60000FDF6000029F70000000038B50546446AE069DC
S3510000F69858B9626812B12046A1699047204603F001FF00206862002001E040F60A20BDE8384070472DE9F04180460F46164600240068456A03F0D0FDE86918B103F0B0FD2C200CE00120E86103F0AAFD14
S3510000F6E42E62C8F80860284639462A68904700B1EC61BDE8F041704738B500250068446A03F0B4FDE069401EE06105D162681AB12046A1699047054603F08CFD2846BDE83840704708B50068406A836812
S3510000F7309847BDE80840704708B50068406AC3689847BDE80840704708B54FF0000C0068406A092906D116201060C2F804C04A20906004E0036913B18069984784466046BDE80840704700002DE9F84F99
S3510000F77C4FF0FF354FF0000CDFF85CE0DFF85CA003220024DEF800B04FEA0A084023D8F800900BFB09F901FB09F9B9EB000901D5C9F100094D4502D94D4666462746641C08F104085B1EEADC0CF1010C87
S3510000F7C80EF1040E521EDEDCF0B2800100F0C00107F03F000843BDE8F84F7047146A0100206A01000EB5DFF824200092DFF8202001920291DFF81C10DFF81C20DFF81C3000F06EFBBDE80E407047C046C3
S3510000F814D1FB000001F9000029F80000CDF800005DFB0000F8B506460F460078FFF7D8FB044610B94AF6021042E05C2003F0C0FD054608B904203BE040F20B4103F0CEFD307801F0C9FB3D60B4462B4670
S3510000F8600222BCE8030003C3521EFAD1DCF8000018606C61707885F82100002085F8220085F823006862A862E86228636863A863E86328646864A864E86428656865A865A070E070B0784000207046F617
S3510000F8AC0040C0F2DC207168FFF760FF6070A07840F08000A0700020BDE8F8407047000038B5054601B110B94AF603100FE04A69D17811F0200102D04AF6011007E000249470D470806903F0DBFDAC6148
S3510000F8F80020BDE83840704738B50DF1000C15464FF0000E00234469032901D819D018E1A1F20141112900F21481DFE811F09400A800790082008C00D500E000C500CD0068002F004700EA00F200FE0054
S3510000F9446F0074000501E1788CF800109CF8001011F08001F7D0416A0029F4D1A17811F0100104D0D0F83CE0016C8E45EBD1002A00F0E9809CF8000000F001001060E2E0A17811F0200100F0DE8090F8EB
S3510000F9902210022904D0032902D0072940F0D580012180F82210016CC163016B416300218162CAE0A17801F0E701A170A17811F0200103D121798CF8001003E0A17801F0DF01A170E17841F01201E1701A
S3510000F9DC016CC163016B41630021816280F82210E07810F02000FBD1A9E012B94AF60313A5E011688162A2E0A07800F07F00A0709DE0A07840F08000A07098E090F8221011B14AF6011392E080F821E01A
S3510000FA288FE090F8221011B14AF6011389E0012180F8211085E012B94AF6031381E090F8210010607DE012B94AF6031379E090F8220010B14AF6011373E046F60040C0F2DC201168FFF784FE6070002322
S3510000FA7469E012B94AF6031365E0607800F0C0008109DFF8CA0050F821C0607800F03F01DFF8BE0050F8210046F60041C0F2DC210CFB00F0B1FBF0F010604CE012B94AF6031348E0116880F8231044E0D3
S3510000FAC012B94AF6031340E090F8230010603CE012B94AF6031338E01068C0B2400000F0FE00207031E012B94AF603132DE0207800F0FE004008106027E012B94AF6031323E090F8220010601FE012B90F
S3510000FB0C4AF603131BE000F14404032203CC03C5521EFBD113E0C0E911EEC0E913EEC0E915EE0CE012B94AF6031308E0E07810F0200002D00120106001E0C2F800E01846BDE838407047146A0100206AAE
S3510000FB580100000008B58C4613468169486991F822E0CEF30702012A28D8032281F8222091F8212012BB827842F010028270BEF1010F0CD1C27842F00202C270827842F004028270C27812F08002FBD0C5
S3510000FBA403E0827842F02002827001224A6291F82320520042F001020271CA6C521CCA64624600F03BF8BDE80840704708B58C4613468169486991F822E0CEF30702012A26D8022281F8222091F821206C
S3510000FBF002BB827842F010028270BEF1010F0CD1C27842F00202C270827842F004028270C27812F08002FBD003E0827842F02002827001224A6291F8232052000271CA6C521CCA64624600F003F8BDE85E
S3510000FC3C0840704738B54FF0000C48E1C47814F00205FBD000254D62857815F0200500F08780857815F0100550D014F001040FD0C37843F00203C370837803F0EF0383708B6D5B1C8B65072381F8223026
S3510000FC88634624E191F82240022C0FD19C4580F01E81C47844F00204C47001244C6212F8014B0471CC6C641CCC6410E1032C21D1C47844F00204C470847804F0EF0484708C6A012C03D1847844F008049D
S3510000FCD484708C6A44B9837803F0C7038370072381F822306346F4E001244C62057900AC2570ACF1010CECE0C37843F00203C3706346E6E091F82240032C27D18C6A2CB39C4580F0DE80C47844F00204B1
S3510000FD20C4708C6A641E8C620AD1837803F0C7038370072381F822300CF101039C4601E001244C628C6A012C03D1847844F008048470047902F8014B8C6C641C8C64BAE0C37843F00203C3706346B4E016
S3510000FD6C14F010050AD0C37803F0EF03C37063460D6D6D1C0D65062581F8225014F0400549D091F821501DB963464D6D6D1C4D6514F004041DD091F82240022C02D0052C00D06346847844F01004847035
S3510000FDB8052481F822409C4580F08980C47844F00204C47001244C6212F8014B0471CC6C641CCC647BE0C47844F00204C470847804F0EF04847091F82240032C03D0042C01D0634606E08C6A012C03D11B
S3510000FE04847844F008048470042481F8224001244C62057900AC2570ACF1010C59E014F0100552D1857815F010052CD014F0010412D0C37843F00203C370837803F0EF038370047900AB1C708B6D5B1C2E
S3510000FE508B65072381F8223063463CE091F82240022C01D0052C0ED19C4534D2C47844F00204C47001244C6212F8014B0471CC6C641CCC6427E0634625E091F82240032C01D0042C19D18C6ABCB19C45A7
S3510000FE9C1BD2C47844F00204C4708C6A641E8C62012C03D1847844F00804847001244C62047902F8014B8C6C641C8C6405E0634603E0C47844F00204C4700CF1010C9C457FF6B4AE1846BDE838407047D9
S3510000FEE82DE9F04184B00546884617461E46242003F064FA044608B9042020E04FF4816103F072FAC4F800806760A6600A98E0600B9820610C986061DFF82A000090DFF82A000190DFF82600029003946E
S3510000FF342846DFF82210DFF82220DFF8223002F007F904B0BDE8F0417047150001002500010069FF000095FF0000D9FF000005000100000038B50546446AE06958B9626812B16069A1699047204603F0A9
S3510000FF8095FA00206862002001E040F60A20BDE8384070472DE9F04180460F46164600240068456A03F064F9E86918B103F044F92C200EE00120E86103F03EF92E62C8F80860686905F118013A462B6875
S3510000FFCC984700B1EC61BDE8F041704738B500250068446A03F046F9E069401EE06105D162681AB12046A1699047054603F01EF92846BDE83840704708B50068406A83689847BDE80840704708B500688C
S35100010018406AC3689847BDE80840704708B54FF0000C0068406A092906D117201060C2F804C04C20906004E0036913B18069984784466046BDE80840704700004FF47A7148436021484301E0C046401E9F
S351000100640028FBD17047000070B5064600254DF20004C4F2030410F001001AD003F0F6F8206940F001002061DFF8BC000560DFF8BC000560DFF8B80045600560206920F0010020614FF0FF30A0600120CE
S351000100B0206003F0C1F816F0020012D003F0D8F8206940F001002061206920F001002061012020600021DFF87C004160016003F0ABF816F004002DD0206910F0010003D0206920F0010020615220DFF859
S351000100FC5C104DF20002C4F2030203F00BF810B902F056FB0546BDB9606910F0100003D0206910F480700AD1206940F4807020617D20FFF791FF606940F01000606152200421012201F03EFC2846BDE86F
S3510001014870407047AC13FF1FA813FF1F9C13FF1F5D01010038B5DFF8BE504DF20000C4F203000122416911F003031DD0436923F0100343614FF0FF3383600260436943F01003436111F002034FF0040C79
S3510001019401D14FF0000C11F0010301D0082300E000232C6843EA0C0323432B6011F0040125D08468DFF866000068844209D1286840F001002860686820F0010000F096F80022DFF84E000068844209D113
S351000101E0286840F002002860686820F0020000F087F80022012A04D1686820F0010000F07FF8AA6842B129686868084204D04DF20000C4F203009047BDE8384070479C13FF1FAC13FF1FA813FF1F00001D
S3510001022C38B505460024C20FC2EB807112EBB1710CD10124642106F0C1F901B9002428464FF4C87106F0BAF901B901242046BDE838407047F8B505460088A0F2B27140F26D1001FB00F440F2B27604E0C2
S35100010278B0B2FFF7D7FF2418761C28888642F7D30127DFF85000861C09E030882418022F03D12888FFF7C6FF24187F1CB61C68888742F2D3A888401E24186E8929893C2001FB00F345F28010C0F2010058
S351000102C404FB00F2E9884FF461604843101818183018BDE8F84070471E6B01004DF20002C4F20302516921F01001516100681060506940F010005061704700004DF20001C4F2030110F0030203D14FF063
S35100010310FF3088607047032A0AD1DFF82A000268DFF826000068824200D902468A60704710F0010002D0DFF80E0001E0DFF80A00006888607047AC13FF1FA813FF1F000018B589B0012816D14DF20000E2
S3510001035CC4F203000068049000900020019000A805AC214601F0B4FF204602AC214602F021F9204602F05AF80FE002AC204602F00BF9204605AC214601F0A2FF2046FFF761FF049004A8FFF79DFF00200C
S351000103A809B0BDE81840704700B585B0DFF82C300093DFF82C300193DFF82830029303910492DFF82410DFF82420DFF8243000F05DF905B05DF804EB7047C046D5040100E9040100FD040100FD03010018
S351000103F4AD040100BD0401002DE9F04180460F46542002F0DDFF064608B9042048E0D8F80450E8B200F084FB044610B94FF480303EE03E6033460422B8E8030003C3521EFAD1E8B200F0ECFC3462B168F2
S35100010440F06801EBC0010001B1FBF0F141F6FF70814202D94FF0FF3024E0080A207061700021A1700C20E070A171207C00F07000000901D1E1740AE00121207C00F070000009401C01FA00F0C0B2401E99
S3510001048CE07401206075607C40F0C0006074207C40F0880020740020BDE8F0417047000008B5084602F0FCFF0020BDE808407047026A117911F02001FBD0416B491C416392F9070070470000036A1A7901
S351000104D812F08002FBD0D971816B491C81637047006A807C10F0400001D10120704700207047000010B5046AA1F60251162900F2BD80DFE801F0881D20334ABBBBBBBBBB130CBBBB7366BBBBBB545DA504
S35100010524B2B2A07800F01001080908301060AAE0A07820F010011068092801D141F01001A170A0E0C06810609DE08168126801EBC2031101B3FBF1F1B1F5F85F02D940F6092091E0C260C1F30420207040
S3510001057061708AE0016B116002F10803416B5160816B916003F10802C16B5960016C996002F10803416C5160816C9160C06C586073E00021016341638163C163016441648164C16469E0207910F0800087
S351000105BC01D0012000E00020106060E0207910F0200001D0012000E00020106057E00121A07810F0020005D0A07800F00100022100B9032111604AE0A07820F00301106801280CD0022802D0032803D0A0
S3510001060805E041F0030104E041F0020101E00C2038E0A17035E0E17811F020010CD1116811F0080104D0617B41F00901617303E0617B01F0F6016173116811F0200120D0406800F00BFD607B40F00200D5
S35100010654607318E01068012804D1E07800F0FB00E07010E0E07840F00400E0700BE0207908B9012000E0002010F04000F7D102E040F6092000E00020BDE81040704700002DE9F84183B005468846174660
S351000106A01E46302002F08EFE044608B9042021E040F2F93102F09CFEC4F800806760A6600A98E0600B9820610C9860610D98A0610E982062DFF826000090DFF82600019002942846DFF81E10DFF81E2042
S351000106ECDFF81E3001F0ACFD03B0BDE8F8417047C04679090100990A010015070100C1070100F107010000002DE9FC4180460F461646002501684C6A616A29B1491C6162A16A8160002041E0206A1030D6
S3510001073802F0A8FEE06208B9042039E04FF47F7102F052FE216AE06A0160E06A4560E06A8560E06AC560A662C8F80860A06904F11C013A46236898470546C0B9606930B10096E06940F6025100AA6369DD
S35100010784984716F010000CD016F0070001D00C2507E063692BB1E06940F6155100AA9847054625B1E06A02F07FFE284602E0012060622846BDE8FC417047000038B500250068446A606A401E60620AD144
S351000107D062681AB1A069E16990470546E06A02F065FE0020E0622846BDE83840704700002DE9F84F8A4691464F460068446AA66AD4F81C80B0E016F001004FF0000B61D03BE04046A1688847C5B2132D20
S3510001081C1FD11BE04046A1688847C5B2112D15D0E26A51681068814210D2D168481CD060E06A40180574E26AD1681068814201D1C2F80CB0E16A4868401C4860112DE1D115E0E26A51681068814210D28E
S35100010868D168481CD060E06A40180574E26AD1681068814201D1C2F80CB0E16A4868401C4860E06A41680068814229D24046216988470028B9D123E04046A1688847C5B2E26A51681068814210D2D16871
S351000108B4481CD060E06A40180574E26AD1681068814201D1C2F80CB0E16A4868401C4860E06A41680068814204D24046216988470028DBD1E16A4868002835D00ED0401E4860E16A8B68581C8860E26AA2
S35100010900D018057C91681068814201D10020906016F0020017D00D2D08D116F0040003D040460D21E26890470A250CE0082D0AD116F0040007D040460821E268904740462021E268904716F0040003D0D0
S3510001094C404669B2E26890470AF8015B7F1E05E016F0100002D0A9EB070902E0002F7FF44CAF4846BDE8F84F704700002DE9FC4788461746551C0068D0F824A0DAF82840DAF81C607BE014F0010054D085
S351000109984FF0000945E03046DAF808108847C0B2132824D120E03046DAF808108847C0B2112819D0DAF82C305A6819688A4213D2DA68511CD960DAF82C1089180874DAF82C30DA6819688A4201D1C3F88C
S351000109E40C90DAF82C205168491C51601128DCD119E0DAF82C305A6819688A4213D2DA68511CD960DAF82C1089180874DAF82C20D1681068814201D1C2F80C90DAF82C104868401C4860DAF82C00416800
S35100010A300068814205D23046DAF8101088470028ADD114F0020008D098F900000A2804D130460D21DAF80C20904714F010000DD0DAF8143053B1DAF81C0040F6155100AA984718B9009808B97F1B09E0DA
S35100010A7CDAF81C0018F9011BDAF80C2090476D1E7FF481AF3846BDE8FC47704738B51546002403685B6A40F6015C61450AD819D20A292BD8062929D309D009291FD00A291DD023E040F6025C61450ED0B4
S35100010AC81EE0D86A406810B10120106021E0D8691969884728601CE0986A106019E015689D62156885605D699DB1D869A84704460FE00F201060002454604C20906008E0D3F814C0BCF1000F03D0D8699A
S35100010B142A46E04704462046BDE8384070470000052822D8DFE800F003080D12171C4AF20000C4F2060070474BF20000C4F2060070474CF20000C4F2060070474DF20000C4F2060070474AF20000C4F284
S35100010B600E0070474BF20000C4F20E00704700207047000010B5DFF820000468D4F8AC0138B1D4F8B01100F0C1FFC4F88002C4E9A100BDE810407047600BFF1F08B500F03DFA28BB47F20001C4F20401AA
S35100010BAC086840F00040086042F20C12C4F20702107840F080001070107810F08000FBD1002042F20011C4F20701087010200872107840F04000107059200421012200F0E9FE0020BDE8084070470000F8
S35100010BF808B10020704742F20000C4F20700704708B100207047592070470000FEE7000008B5DFF8100002F099F80020BDE808407047C046300AFF1F38B5C0B0DFF8AC0000F0010420F0010000AA00F004
S35100010C44020142EA01052946FD2200F03FFD45EA0401002044F20103C4F2060318709822581E0270587910F01000FBD144F20602C4F20602107800F00C0080080228F9D1182044F20405C4F2060528707E
S35100010C900020A5F1FF3420700020C0F21310884758202070A87810F02000FBD044F20601C4F20601087810F04000FBD044F20001C4F20601087800F03F000870887900F00C0080080328F9D1002040B097
S35100010CDCBDE838407047C046ED0D01004FF0FF3248F22801C4F204010A604A608A606FF48020C8600A614A618A61704742F20002C4F205024CF22050D0814DF62810D08111884FF6FE70084010807047E8
S35100010D2847F20002C4F2040202F58250016841F00101016041F20400115841F44071115002F540514FF4A0608862C862086448648864C864086548658865C86502F58041086048608860C86008614861A7
S35100010D748861C861086248628862C862086348638863C86302F5A041086048608860C86008614861886170474CF20001C4F2000108604FF4166088600120C0F2070048607047000008B5FFF7A5FFFFF797
S35100010DC037FFFFF791FF4DF20001C4F20001086820F001000860FFF7A7FFDFF80C00FFF7DDFFBDE808407047000000700CB44FF20003C4F201031A68196841F47F01196048F24401C4F2040108600098B6
S35100010E0C00901A600CBC704747F20001C4F20401052852D8DFE800F003101D2A374401F5A0424FF450709061D06141F234000A5842F480620A5043E001F580424FF45070D060106141F234000A5842F47C
S35100010E5800620A5036E001F5A0424FF450709060D06041F234000A5842F480520A5029E001F580424FF450701064506441F234000A5842F400520A501CE001F580424FF450709063D06341F228000A581E
S35100010EA442F480620A500FE001F5C0424FF450701062506241F228000A5842F400620A5002E00020C04370470020704747F20002C4F2040230B941F23C00115841F0006111500BE0012806D141F2300040
S35100010EF0115841F00061115002E00020C04370470020704700F01F0210F4006104D0032A02D90020C043704710F4006104D1022A02D10020C0437047182A1CD200F47041B1F5805F03D1DFF894108A5CF2
S35100010F3C14E000F4C061B1F5806F00D019B9DFF884108A5C0AE0121FD1B2032901D9002204E0DFF874108A5C00E0012212B90020C0437047012A01D100207047511105291CD8DFE801F01B03080D1217D2
S35100010F8849F20000C4F2040012E04AF20000C4F204000DE04BF20000C4F2040008E04CF20000C4F2040003E04DF20000C4F2040002F01F0250F8221021F4E06140F8221000207047206C0100386C010043
S35100010FD4506C010048F23C01C4F20401086840F0005008600020704747F20002C4F2040260B902F5A0414FF408700862486241F23400115841F04001115002E00020C043704700207047000048F248013C
S35100011020C4F20401086800F00F000860086840F002000860A1F14402106840F4A02010601439086840F48020086000207047000048F23801C4F20401086840F47850086000207047032802D0042808D083
S3510001106C0EE04BF20001C4F204014FF44070886406E04DF20001C4F204014FF44070C866002070474AF20061C0F20E014EF21400CEF2000001600721001F01604EF61C51CEF20001086840F080500860CD
S351000110B8486840F0804048607047000010B542F2620001F003FE00204FF0005102F0F2FA0020FA2100F06EFA002859D1DFF8B60000F0B2FB0F2001F077F90F20DFF8AA10002202F011F808B9262049E05F
S35100011104FFF7C4FFDFF89A0004684AF20060C0F20E00C4F87C01642001F068F9D4F87C0101F04CF9DFF87E00002101F04FF901F0A3F878BBFFF74EFF28B90420FEF794FF0120FFF703F9DFF86200DFF8B7
S3510001115062100A68FFF72CF9DFF85A00DFF85A100A68FFF725F9DFF85600DFF856402146FEF73CFBDFF84E002146FDF74DFFDFF84A00FDF78BF9DFF84600DFF84610FBF739FCFFF7EFFC0020BDE810405C
S3510001119C70470000FF1FD9110100600BFF1FE5110100600AFF1F586B0100660AFF1FD86B01006C0AFF1F0C6C0100720AFF1F790AFF1F7F0AFF1F886C01000000DFF804301847C046912401004FF0000C4D
S351000111E84EF21401CEF20001086820F07F40421C486820F07F43D1F8F00C10F0806003D0486820F07F43944603B91346D01A604470470000DFF804301847C046B90D01007047000038B51D468A18521E01
S3510001123422F00F02A2F1600402610F3121F00F01816144612046602100F0C2F90020206004986060DFF8200020640598E062686840F0010060644FF08070A0646FF00200A062BDE838407047052A0100BB
S35100011280DFF862000168D1F8A001072803D90720C1F8A00103E010B90120C1F8A001400100F0E000C8824FF0000CC02341F60041C1F6FF716820ACEB010213700CF1010C401EF8DC4FF0000C4FF0FF3397
S351000112CC41F68061C1F6FF710420C1EB8C0213600CF1010C401EF8DC7047600BFF1F000070B5DFF85E00046800202062D4F8FC00851C280102F0BCF9064608B904201DE0052102F06FF8C02111E036608D
S351000113187660F581D4F8A0012818072804D2400100F0E000B08100E0B181206AB0602662103628466D1E0028E9D1206A60620020BDE870407047600BFF1F00002DE9F04782468946DFF8AE100F68D7F82D
S3510001136478610068DAF8041000253246002305F007F94FF0FF32101A75EB010007D2C9F8002040F2E730C9F80400002039E0DAE900234FF47A74A2FB040102FB051103FB04113246002305F0EBF8804646
S351000113B02246002305F0E6F8C9F800006043B8EB0000C9F80400DAF808304FF4FA62A3FB020103FB051105FB02113246002305F0D1F8D7F88021002305F0CCF810F1010869414FEA580848EAC178D9F821
S351000113FC04004044C9F804000120BDE8F0477047C046600BFF1F000038B504684568D1F800C04B68B4EB0C049D41146055608368D1F808C063450AD2DFF820000068D0F880011B18601E65F100011060F6
S351000114485160A3EB0C009060BDE838407047C046600BFF1F70B586B004460E46006803AD294600F059F8606800AC214600F06AF828462146324600F021F806B0BDE870407047000010B5DFF83010096860
S35100011494D1F88011D0F808C08C450CD3BCFBF1F402684368121943F10003026043606143ACEB01018160BDE810407047600BFF1F70B504684568D1F800C04B6814EB0C045D41146055608368D1F808C034
S351000114E0DFF82E000068D0F88061A6EB0C00834208D3601C45F1000110605160ACEB0600181801E003EB0C009060BDE870407047C046600BFF1F000080F311887047000010B5DFF82420126800248C6032
S3510001152CD2F878C1A0FB0C2300FB043304FB0C330A604B60BDE810407047C046600BFF1F2DE9F0410D46DFF86410D1F800800024D8F87811A0FB016700FB047704FB0177304639464FF47A72002305F008
S3510001157805F828606960304639464FF47A72002305F002F8D8F88061A0FB062300FB043301FB063312F5FA7043EB04014FF47A72002304F0EBFFA860BDE8F0417047C046600BFF1F10B501F06FFD04465C
S351000115C408B900F0CDF92046BDE810407047000003296FD910F0010203D0002200F8012B491E10F0020203D0002220F8022B891E8B09002221E0026000F1080C426082600CF10800CCE9012200F1080CEB
S35100011610426082600CF10800CCE9012200F1080C426082600CF10800CCE9012200F1080C426082600CF10800CCF804205B1E002BDBD1C1F383020F2A36D8DFE802F035322F2C292623201D1A1714110EEC
S3510001165C0B08002240F8042B002240F8042B002240F8042B002240F8042B002240F8042B002240F8042B002240F8042B002240F8042B002240F8042B002240F8042B002240F8042B002240F8042B00229A
S351000116A840F8042B002240F8042B002240F8042B11F0020202D0002220F8022B11F0010101D000210170704738B584460B461146032A40F2A88010F0010004D01CF8010B03F8010B511E1CF0020004D0E8
S351000116F43CF8020B23F8020B891E880949E0DCF800201A600CF1080403F10805DCF804205A60DCF808209A6004F1080305F1080C62686A60A268AA6003F108040CF108055A68CCF804209A68CCF8082065
S3510001174004F1080305F1080C62686A60A268AA6003F108040CF108055A68CCF804209A68CCF8082004F1080305F1080C62686A60A268AA6003F108040CF108055A68CCF804209A68CCF8082004F1080CA5
S3510001178C05F1080362686A60401E0028B3D1C1F383000F2845D8DFE800F044403C3834302C2824201C1814100C085CF8040B43F8040B5CF8040B43F8040B5CF8040B43F8040B5CF8040B43F8040B5CF8C1
S351000117D8040B43F8040B5CF8040B43F8040B5CF8040B43F8040B5CF8040B43F8040B5CF8040B43F8040B5CF8040B43F8040B5CF8040B43F8040B5CF8040B43F8040B5CF8040B43F8040B5CF8040B43F85F
S35100011824040B5CF8040B43F8040B11F0020003D03CF8020B23F8020B11F0010002D09CF800001870BDE83840704700004EF60851CEF200010A680860104670472DE9FE4F0646DFF8E4000068D0F81C8037
S35100011870DFF8DC0000F0FAF8DFF8D8003146D8F80C20434600F0F2F8FAF722FF8246FAF722FF0546FAF727FF0446FAF722FF0746FAF71CFF00950190DFF8AC0021463A46534600F0DBF8DFF8A40000F0B1
S351000118BCD7F84FF00009DFF89CB04FEA0A0708240AEB890188680090C8680190584657F8102B4B6800F0C4F809F10409641EEFDCDFF86C0000F0BCF84FF000092F46082405EB890188680090C868019003
S35100011908DFF8540057F8102B4B6800F0ABF809F10409641EEEDC01F08BFCD8F808000B280AD00B20C8F80800C8F83860D8F80400D8F800100160486001F096FCBDE8FE4F7047C046600BFF1F850AFF1F71
S35100011954A50AFF1FD30AFF1F0F0BFF1F220BFF1F08B5DFF828000068C06B00F023F8DFF82000DFF8202000F14001F02041F8042B401EFBDCBDE808407047C046600BFF1F0000FF1F87C500000000000011
S351000119A0EFF3088080F30988EFF3148040F0020080F3148804F0E8BC80F308887047000038B54EF2001CCEF2000CA0F11005FA281CD8490101F0E00305F003014FEAC10E03FA0EF425F003018C44DCF8D1
S351000119EC0033FF2101FA0EF123EA01012143CCF8001312B100F00AF804E000F01BF801E00C2000E00020BDE8384070474EF20012CEF20002A0F11003FA2B07D8012103F01F008140580942F8201001E037
S35100011A380C207047002070474EF20012CEF20002A0F11003FA2B09D8012103F01F008140580902EB8000C0F8801001E00C207047002070470FB410B502A820F00304012000F00EFCDFF81010029A231D06
S35100011A8400F08CF8BDE8104004B07047D11A010008B5002310B90020C04313E0012902D0022903D005E0806810600AE01168816007E00368DB6913B19847034601E040F609231846BDE80840704700004E
S35100011AD01CB5044611B90020C04313E00B689A6922B92C20C8600020C0430BE000AA1070084600A901229B699847012801D04FF0FF342046BDE81C4070470000F8B507460E46DFF88800046804F51670AC
S35100011B1C01F0DCF9D4F8745204F51D7011E0AB68BC4602E00CF1010C5B1C9CF9002022B193F9001009B18A42F4D093F9001011B12D688542EBD104F5167001F0FDF904F51D70854201D1002017E020206F
S35100011B6801F02CFC044690B1102101F03DFC2560EB685BB1204639463246984730B100F0D9FD204601F08EFC002000E02046BDE8F8407047600BFF1F2DE9F04F95B08346884617461E460020009000243A
S35100011BB40CE038B90098B0F1FF3F01D14FF0FF3420465CE25946C0470090641C17F9010B2528EED197F90000252805D17F1C5946C0470090641CF1E720200B900020079000200A9004900390059002904E
S35100011C00002029E097F900102B2908DC17DA232921DC20291FDB16D0232918D01BE0302919DC2D2917DB02D0302904D013E001210A917F1C10E030210B917F1C0CE0012105917F1C08E0012104917F1C2D
S35100011C4C04E0012103917F1C00E0012097F9001009B10028D0D00020099097F900002A2805D1361D301F006809907F1C0EE00A2106E017F9012B0998484310183038099097F90000302801DB3928F2DDBA
S35100011C984FF0000A97F900002E2819D17F1C97F900002A2805D1361D301FD0F800A07F1C0EE00A2006E017F9012B0AFB00F15118A1F1300A97F90010302901DB3929F2DD0DAD17F9012B52B92520594698
S35100011CE4C047641CB0F1FF3F01D14FF0FF342046C5E16D21682A05D06C2A03D04C2A01D06D2A02D151B217F9012B0023002001900C90642A21DC80F259804E2A0DDC80F2D480492A00F3D680432AC0F261
S35100011D30D38032D0442A4BD0492A49D0CCE0582A0ADCB2F14F0000F1C780DFE800F08A9EC5C539C543C5C5A7632A1ED0BCE06F2A09DC80F27E80692A01DC31D0B4E06E2A00F0AD80B0E0702A02DC00F026
S35100011D7C8780ABE0782A00F3A980732AC0F2A68018D0752A20D0782A00F085809EE0361D301F01680DA80170C8B208B901200C904FF0000A0DA880F801A020200B900020039096E0361D301F0568202030
S35100011DC80B90002003908EE0012001900198E0B1682904D1361D301FB0F9009003E0361D301FD0F80090B9F1000F04DA2D200790C9F1000914E0059810B12B2007900FE0049868B1202007900AE06829AA
S35100011E1404D1361D301FB0F8009003E0361D301FD0F80090002006904CF60021C3F69A3104E0A9EB01090698401C0690B9F1000FF7DB484629460A22002300F01DF929780698C0B2081828700020039047
S35100011E6045E0682904D1361D301FB0F9009003E0361D301FD0F80090484629460B22002300F004F90320029031E00123361D301F00682946082200F0F9F828E00123012002900298401C029040B2029059
S35100011EAC682904D1361D301FB0F8009003E0361D301FD0F8009048462946082200F0E0F80FE0361D301F05682C607BE610465946C047641CB0F1FF3F01D14FF0FF342046C9E00C98291803E00C98401C76
S35100011EF80C90491C08780028F8D10998002801DA00200990BAF1000F01DA4FF0000A00200890BAF1000F01D1099820B3BAF1000F0BD00C98504508DD0DA8854203D10C98A0EB0A002D18CDF830A009987B
S35100011F4418B101460C98081A0890079810B10898401E0890039840B10898401E08900298032802DA0898401E0890079838B10B98302804D107985946C0470090641C0398F0B10B9830281BD102980128FA
S35100011F9008D130205946C04778205946C0470090641C0EE0022808D130205946C04758205946C0470090641C03E030205946C0470090641C0A9860B94FF0000906E00B985946C0470090641C09F101099D
S35100011FDC08988145F5DB079838B10B98202804D107985946C0470090641C0398F0B10B9820281BD10298012808D130205946C04778205946C0470090641C0EE0022808D130205946C04758205946C047E7
S351000120280090641C03E030205946C0470090641C4FF0000907E015F8010B5946C0470090641C09F101090C988145F4DB0A9800283FF4BAAD0B98302801D120200B904FF0000906E00B985946C04700901E
S35100012074641C09F1010908988145F5DBA6E515B0BDE8F04F704700002DE9F84384B000AC80460F461646002100A801700B2A11D1611C0B2008F00702303201F8012B4FEAD808401EF6DC00A890F90B10B6
S351000120C001F03301C1722DE00A2A14D1012504F101090DE040460A2104F084FB01F1300009F8010B40460A2104F07CFB80466D1CB542EFDD16E00125DFF84E10DFF84EC0601C0DE0002B08F00F0902D010
S3510001210C1CF9099001E011F9099000F8019B4FEA18186D1C9542EFDD354600E06D1E60573028FBD02DB96D1C03E060576D1E07F8010B002DF9DA04B0BDE8F8437047BD6C0100AC6C010000002DE9F047EB
S3510001215807460E4615461C464FF00009DFF8E000D0F8008001B10AB90C2066E000203A464FF4806192F900303A2B02D109F1010900E01BB1401C521C491EF3DCB9F1010F01D1012801D10C204FE008F562
S351000121A4167000F097FED8F8740220B908F51D70002101F091FBD8F8749208F51D7A10E03846D9F808104FF4806204F033F830B908F5167000F0BCFE4FF420602FE0D9F80090D145ECD108F5167000F002
S351000121F0B1FE2C2001F0E6F8814608B9042020E00F2101F0F5F8C9E90276C9E904540898C9F818000998C9F81C000A98C9F820000B98C9F8240008F5167000F055FE08F51D70494601F058FB08F516703C
S3510001223C00F08AFE0020BDE8F0477047600BFF1F08B584B0DDF818C0CDF800C0DDF81CC0CDF804C04FF0000CCDF808C0DDF820C0CDF80CC0FFF770FF04B0BDE808407047DFF81000006800F51670012177
S35100012288DFF808301847C046600BFF1F31300100DFF83C10096880B2052816D8DFE800F00C0F12030609D1F880027047D1F884027047D1F888027047C869406F7047C869806F7047C869C06F7047002016
S351000122D47047C046600BFF1F70B506460D4600B109B9002063E0036845F20072CFF28642934204D8436840F2E732934201D9002055E000220A80DFF8AC3002E00A88521C0A800468B1F800C00CF10102EF
S3510001232053F822209442F3D253F82C00241A0CF2B270088080B200F063F80121698034214143DFF87800411802E06888401C68806A8851F822008442F7D2501E51F82000241A204645F28011C0F20101E3
S3510001236C04F03AFA81B245F28010C0F201004843241A481CA88020464FF4616104F02CFAE88081B24FF461604843241A20463C2104F022FA288181B23C204843241A6C817068A8810120BDE87040704718
S351000123B8546D0100EC6C0100DFF808100968C1F880017047600BFF1FDFF808201268C2E961017047600BFF1FDFF808100968C1F870017047600BFF1FDFF808100968C1F878017047600BFF1F10B504466C
S35100012404642104F0DFF849B920464FF4C87104F0D9F809B901200AE0002008E0E10FC1EB847011EBB07001D1012000E00020BDE8104070473EB50446DFF84C100D684068B0F57A7F0CD34FF47A7104F040
S35100012450C9F921680818206060684FF47A7104F0C1F96160204600AC2146FEF7F7FF00F0FFFE204605F5A67105F5AC72FEF7CAFF00F0DAFEBDE83E407047C046600BFF1F70B5DFF8BE000468D4E95301E3
S3510001249C401C41F10001C4E9530100F0E3FED4F8841121B1D4F888018847C4F8540104F5A670FEF7E5FFB4F86C61002E3AD0D4F86401761C34E00568D4E953CE426C836CB2EB0C0173EB0E0101D20121C0
S351000124E808E0BCEB02017EEB030101D2012100E00021494200291FDBB4F86C11491EA4F86C11416802680A605160816821F48072826012F480610AD022F480618160016CC26B0A605160826B1189491E19
S35100012534118100F04DFA2846761EC8D100F07AFED4F8140300B18047BDE870407047600BFF1F000038B50546E8B1DFF84000046800F084FE04F5A6732A4603CB03C218681060D4F8841119B1D4F888014D
S351000125808847A860284604F5AC712A46FEF79AFF00F052FE2846FEF779FFBDE838407047600BFF1F3EB5054600AC2046FFF7D4FF20462946FEF7CEFEBDE83E4070470000F8B506460D4600B109B90020CF
S351000125CCA6E08089B0F57A7F0DD34FF47A7103F0F5FF718980B208187081B0894FF47A7103F0ECFFB18170893C280BD33C2103F0E5FF318980B20818308170893C2103F0DDFF718130893C280BD33C214B
S3510001261803F0D6FFF18880B20818F08030893C2103F0CEFF3181F08818280BD3182103F0C7FFB18880B20818B080F088182103F0BFFFF180B088012801D2002062E070880C280BD90C2103F0B3FF31889D
S3510001266480B20818308070880C2103F0ABFF7180318840F2B270814200D230800D27DFF8A0403088FFF7BAFEB28800FB07F37188E318CB5C9A4213D9D01AB080481C708080B20C28EDD90C2103F08CFF74
S351000126B0318880B20818308070880C2103F084FF7180E0E7348840F633039C4201D9002024E0A4F2B274DFF8503053F8243034244443DFF84800491E001950F821001B18511E45F28010C0F20100484385
S351000126FC1B18F1884FF4616048431B1831893C2048431B1870891B182B60B08968600120BDE8F8407047C046D06C0100546D0100EC6C0100C26D01B102B9C16510467047DFF828100A68118B11B1516B14
S35100012748CB6801E0D169CB6D00B133B9118B11B1516BC86001E0D169C86518467047C046600BFF1F70B50446DFF842100D6808B9E86918E000F078FDD5F80401A0F16C06B5F80C01411C09E0F068A04262
S3510001279403D100F04FFD304607E0F06EA0F16C06491EF3D100F046FD0020BDE870407047C046600BFF1F0000DFF814000168088B10B1486BC0687047C869C06D7047C046600BFF1F70B516464FF0A00CC1
S351000127E0DFF88E301C68B4F80C514FF6FE739D4201D3002039E0C1F800C03AB9604400F04DFF064688B3042100F0F2FD3046A021FEF7E0FED4F8100185B2D4F81421D4F88C0145EA0040F06002F16C0174
S3510001282C0AB904F5827104F5827006F16C0201F02FF8334604F582711A46D86EA0F16C036D1CADB205B901258B4203D0D86880B2A842F1D0C4F81421C4F810513046BDE870407047C046600BFF1F00008F
S351000128782DE9F84F84B082468B4602929946DDF83880DFF82C110C68C268D4F8FC108A4208D904F52F71884204D00E20FFF74AFF002080E0B8F1000F15D00F9EB6F5BA7F04D80220FFF73EFF002074E0B5
S351000128C4304603A94246FFF785FF07460398361AB9F1000F13D0203E11E08668D42E00D8D42606F10F0020F00F06103606F1200003B9304603A90022FFF76CFF074627B90A20FFF719FF00204FE00320F8
S35100012910B86003983A181546B9F1000F0ED002F1200591460423BAE80300A9E803005B1EF9D19246106840F0004010602846314600F03CF8216ADAF80C00A1EB0011F96139628889B884DAF81400B8626A
S3510001295CB8F1000F03D0B86A40F02000B86288890090029801903846294632465346FEF757FCC7F868A0DAF800007866D4F880027867D4F88402B867D4F88802F867C7F860B0B8F1000F03D138463946DD
S351000129A800F01CFD384604B0BDE8F84F7047C046600BFF1F8908491C46F26B12C7F2743201E040F8042B491EFBD17047DFF828100A68C369D3F804C0516A8B4200D9536202218160C0F804C0DCF800107D
S351000129F40160CCF8000058607047C046600BFF1F10B5DFF82000046800F030FCE069D0F8840000B18047002000F006F8BDE810407047C046600BFF1F2DE9F843DFF8BE110D6840B1C0F30F42D5F88C1108
S35100012A4089B28A4201D01220D0E0FFF78FFE074618B105F15001884201D11220C6E005F5987000F039FA00F003FCB968092907D100F0E2FB05F5987000F06CFA0020B5E0022907D1E869874224D078682B
S35100012A8C3968016048601FE001F48070002810D01AD07868396801604860B5F86C01401EA5F86C01B86820F4807040F00300B8600AE011F4007007D07868396801604860B96B0889401E0881B86810F47C
S35100012AD8806007D0386CF96B01604860B96B0889401E08810920B86000F0A2FB0026102405EB8600D0F8181209B138468847761C641EF5DCF86886B2EC69B86A10F020001FD13846002100F06FFC8046EC
S35100012B2411E03846414600F069FC8146BC4204D0404605F1500100F053FCB84502D0404600F0B2FCC846B8F1000FEAD1D5F8EC1209B1384688474FF00040F860B5F80C01012806D10120C5F81001002088
S35100012B70C5F8140109E0D5F81001B04205D9C5F81061386F6C38C5F81401386FF96E01604860B5F80C01401EA5F80C0105F5987000F0D8F9A74216D100F062FB78683968016048603846FEF737FBB86A54
S35100012BBC10F0200007D1384605F1500100F00CFC384600F06DFCF9F727FC3846FEF726FBB86A10F0200002D1384600F061FC0020BDE8F8437047600BFF1F000070B5DFF8CA00046843F6F83020824FF4FB
S35100012C08C570608208202060012060600221E1810F216181A181D4F89C1109B900F054F90120C4F80001FEF727FB04F15001E161E08A6083E08A8884D4F88C014FF6FF7646EA0040C8600320886004F5B9
S35100012C5492700025002100F03FFE04F5B270002100F03AFED4F89C21002005E0D1688D4200D20D46401C2032116809B1B042F5D3C4F8FC500320C8F20000C4F8BC02DC20C4F8C402DFF82E00C4F8CC0292
S35100012CA0DFF82A00C4F8C002681CC4F8C80204F58270002100F012FE0120C4F81001BDE870407047C046600BFF1F490BFF1F993201000000DFF80810096808817047C046600BFF1F08B5DFF8221009681F
S35100012CEC082804D30C20FFF723FD002003E001EB8000D0F88C02BDE808407047C046600BFF1F000070B506460D46DFF838100C68082804D30C20FFF70BFD00200FE000F0A1FA04EB8600D0F88C4214B95A
S35100012D38C0F88C5202E00DB9C0F88C5200F078FA2046BDE870407047600BFF1F7CB5054640680F3020F00F04DFF85C010460DFF85C012060DFF85801206020464FF44871FEF72CFC04F5C673062203CDEC
S35100012D8403C3521EFBD1C4F89041D4F8940120F00F00C4F89401FFF72DFF00F05FFB08B100F094F8D4F8B45115B1D4F8986116E0D4F89801D42802D2D420C4F89801D4F8980100F11006304600F05EFB00
S35100012DD0054610B9042000F07BF82846022100F007FB28463146FFF7E9FDA819401E20F00F00E063D42000F049FB054610B9042000F066F82846012100F0F2FA05F1D400401E20F00F01A1F16000606636
S35100012E1C216605F10F0020F00F00A066616EDFF8A0000160FEF75CFA08B100F04BF804F5DE70012100F0F6F804F59870012100F0F1F8FEF739F908B100F03CF800220092019204F52F70E169C96801230F
S35100012E68FFF706FD064610B9042000F02DF83046FFF7ACFDD4F89C5115E0686910F0010010D00023009301932846E169C968AA69FFF7EEFC064610B9042000F015F83046FFF794FD203528680028E6D13E
S35100012EB4F9F7B4FA0020BDE87C407047600BFF1F686F0100646F0100B013FF1F08B500F0CDF9FEE738B50446DFF870100D68298B09B10D202EE0416947F26D30C6F67740814201D01F2025E000F0B8F96F
S35100012F00A069002810DCE96940F22B40886004F1080088634A6851F83C3B13605A6000F0E3FCF9F794FA01E0401EA061616947F26D30C6F67740814203D000F07DF91F2002E000F079F90020BDE83840A7
S35100012F4C7047C046600BFF1F38B50546DFF874100C68416947F26D30C6F67740814201D01F202BE000F07EF9A869002820DB288AF0B105F1080000F0D1FC3C38816811F480710ED0416802680A6051600C
S35100012F98B4F86C11491EA4F86C11816821F4807141F00301816000218163FFF70FFDF9F738FA02E0A869401CA86100F039F90020BDE838407047C046600BFF1F70B506461546DFF8502014688161083069
S35100012FE4002100F079FC00F041F98DB9D4F8241107E0B14204D100F01DF94FF482600FE0096804F592708142F3D1314600F06AFC47F26D30C6F67740706100F00BF90020BDE870407047C046600BFF1F51
S351000130300022DFF804301847D52F0100DFF818000268918A4FF6FE7008409082DFF80C00DFF80C301847C046600BFF1F61180100C531010038B50546DFF830000068C46900F0FEF8A0680B280AD00B20EC
S3510001307CA060A56320464121FFF754FB606821680160486000F0D2F8BDE838407047C046600BFF1F2DE9F84307460E46814201D20C202CE0DFF85E201468DFF85E20C4F8F020DFF85A20A262081A401CF0
S351000130C8C00800F101094FEA890000F077F9054608B9042015E04FF00308032100F084F9A563E7622663A4F81C93A4F81E83002001E045F829004946A9F101090029F8D10020BDE8F8437047C046600BBA
S35100013114FF1F87C500006530010000002DE9F04180460F461646DFF890100C68A16B21B91820FFF701FB00203BE0E16A884202D3216B884204D91420FFF7F6FA002030E000F08CF8A16BE06AA8EB0000B0
S35100013160C00851F8205000E02D6915B128684045FAD1C5B9142000F089F90546232100F037F9A16BE06AA8EB0000C00851F820002861A16BE06AA8EB0000C00841F82050DFF81C4000E06C68C5F800808B
