S0030000FC
S3290000C0001897FF1F95F7000065C4000069C4000069C4000069C4000069C4000069C4000069C4000086
S3290000C02469C4000069C4000069C4000069C4000069C4000069C4000069C4000069C4000069C400005D
S3290000C04869C4000069C4000069C4000069C4000069C4000069C4000069C4000069C4000069C4000039
S3290000C06C69C4000069C4000069C4000069C4000069C4000069C4000069C4000069C4000069C4000015
S3290000C09069C4000069C4000069C4000069C4000069C4000069C4000069C4000069C4000069C40000F1
S3290000C0B469C4000069C4000069C4000069C4000069C4000069C4000069C4000069C4000069C40000CD
S3290000C0D869C4000069C4000069C4000069C4000069C4000069C4000069C4000069C4000069C40000A9
S3290000C0FC69C4000069C4000069C4000069C4000069C4000069C4000069C4000069C4000069C4000085
S3290000C12069C4000069C4000069C4000069C4000069C4000069C4000069C4000069C4000069C4000060
S3290000C14469C4000069C4000069C4000069C4000069C4000069C4000069C4000069C4000051E4000034
S3290000C16869C4000069C4000069C4000069C4000069C4000069C4000069C4000069C4000069C4000018
S3290000C18C69C4000069C4000069C4000069C40000A9E9000069C4000069C4000069C4000001EA0000D1
S3290000C1B069C4000069C4000069C4000069C4000069C4000069C4000069C4000069C4000069C40000D0
S3110000C1D469C4000069C4000069C40000D2
S3290000C4104CF2205142F20E00C4F2050001804DF6281142F20E00C4F205000180D22142F20000C4F2FE
S3290000C43405000180704700004AF2026142F20C00C4F2050001804BF2804142F20C00C4F2050001800C
S3290000C45842F20C00C4F205000088704770470000704700000FB42DE9F8070E46924699460C9C0D9DDD
S3290000C47C032E1AD0212E0ED0222E00D04AE00826B100DFF8C400405820607100DFF8BC00405A28802C
S3290000C4A052E00226B100DFF8AC004058123020600920288048E0B9F1000F09D1DFF89C00406B206060
S3290000C4C4DFF8940090F8380028803BE000274FF001080DE00C207843DFF88010085A814504D1BAF10E
S3290000C4E8030F05D2D04603E07F1CFFB2012FEFD30C2007FB00F1DFF8640041584FEA88000858206076
S3290000C50C0C2007FB00F1DFF85400405810F80800288013E0082E0FD2B100DFF82C004058206020680D
S3290000C530002801D1CD2008E07100DFF81C00405A288001E0CD2000E00020BDE8F80704B07047C04689
S3290000C554A812010080120100601201009C120100A0120100A41201000FB430B40D461446012D05D28A
S3290000C578DFF81200405D2070002000E0CD2030BC04B07047C046900BFF1F00000FB418B40C46012C72
S3290000C59C06D204A80178DFF812000155002000E0CD2018BC04B07047C046900BFF1F00000FB418B4BF
S3290000C5C000240AE003A80188DFF81C00005D814201D1012004E0641CE4B2022CF2D3002018BC04B074
S3290000C5E47047C046601201000FB4012004B070470FB4DFF8080004B07047C0466612010008B5DFF88E
S3290000C608DE000078002866D0DFF8D200007800F00F00082848D84FEA80008744F0BF00F043B800F0D6
S3290000C62C0EB800F019B800F03DB800F022B800F039B800F037B800F035B800F027B80121DFF89A00AF
S3290000C65001700021DFF8920041700021DFF88A00817025E00221DFF8820001700021DFF87A0041708C
S3290000C6740021DFF87200817018E00821DFF8660041700021DFF85E0001700021DFF8560081700BE041
S3290000C6980821DFF84E0081700021DFF8460041700021DFF83E0001700021DFF83200017000200121C6
S3290000C6BCDFF82A20042300F017FBDFF822000078002806D000200121DFF81620042300F00BFBBDE88A
S3290000C6E008407047C0460016FF1F980BFF1F940BFF1F00000FB418B40C46002C01D0012C04D1002178
S3290000C704DFF81600017005E0022C03D10121DFF80A00017018BC04B07047910BFF1F00002DE9F0470C
S3290000C72880468A4616461D46002708F00800C010C0F30709A8F1020000F0010400202880B8F10B0FBD
S3290000C74C48D84FEA88008744F0BF00F043B800F014B800F024B800F031B800F03BB800F039B800F068
S3290000C77037B800F035B800F033B800F00AB800F01BB800F028B8DFF8600030600420288026E00024F6
S3290000C79406E03068015DDFF84C000155641CE4B2042CF6D31AE0DFF84000001930600120288013E0A1
S3290000C7B80AF47F400012C1B2DFF8280001550BE0DFF82000001930600120288004E0CAF30701DFF8EC
S3290000C7DC100001553846BDE8F0477047980BFF1F920BFF1F10B50021DFF83000C1700021DFF8280002
S3290000C80001600021DFF82400016072B60020DFF820100022DFF81C3000F002FA044662B6BDE8104059
S3290000C8247047C046980BFF1F940BFF1FF5C6000025C7000008B500F041FCDFF814000078002801D0C2
S3290000C848FFF7DCFEBDE808407047C046910BFF1F0FB408B5DFF814000021282202F040FE00F006F89E
S3290000C86CBDE8084004B070479C0BFF1F48F23C01C4F20401086840F4000008606FF0030147F20000AB
S3290000C890C4F2030001604BF6803147F20010C4F2030001606FF0010147F20810C4F2030001606FF0E4
S3290000C8B4020147F20810C4F203000160012147F20C10C4F2030001604EF28821CEF20001086840F011
S3290000C8D8100008604EF20811CEF20001086840F010000860002070470FB438B5002404A80078FFF7C7
S3290000C8FC7BFE0546002409E005A801780620604328188078814204D0641CE4B228788442F2D32046DC
S3290000C920BDE8384004B070472DE9F84183B004462078FFF75FFE804620786178FFF7D8FF054634200B
S3290000C94405FB00F1DFF88A00475CA07A002809D1DFF882103420684309180878401CC0B2087007E082
S3290000C9682078052104F10A02DFF86A305B689847342005FB00F1DFF85A00465CBE421BD0342005FB7C
S3290000C98C00F1DFF85200F30FC3EB867203EBB2730C225A434018131800AA03CB03C21868106000A889
S3290000C9B0007800A94978019A00AB1B8900F040FB207803210022DFF816305B68984703B0BDE8F84138
S3290000C9D47047DB0BFF1FDA0BFF1FC40BFF1FDC0BFF1F00000FB42DE9F84382B08946B9F1020F3DD1AB
S3290000C9F80AA80078FFF7FAFD064635780EE0B21C691E0620484302EB00080AA898F8001098F8022018
S3290000CA1C00F0F2FE6D1EEDB2002DEED120E0B11C062068430C1860780090012001900AA82178A288A9
S3290000CA40A37800F0A3FE0AA800782178C9B2DFF8842000F077FF0AA8A178C90141F01101C9B200228C
S3290000CA6400F022FF6D1CEDB230788542DBD31CE0B9F1000F02D0B9F1010F16D100270FE0002234209E
S3290000CA8807FB00F1DFF8480042540022342007FB00F1DFF8400042547F1CFFB2DFF83800007887422A
S3290000CAACEAD3DFF834004068002807D00AA8007849460C9ADFF820305B68984702B0BDE8F84304B083
S3290000CAD07047C04629C90000DA0BFF1FDB0BFF1FD40BFF1FC40BFF1F0FB42DE9F84181B00C461746AA
S3290000CAF41D464FF0CD0800200090207800F0600020286AD16078801E00F001064FF0000804F10800D5
S3290000CB1838600020288060780B284AD84FEA80008744F0BF00F045B800F014B800F025B800F033B8E2
S3290000CB3C00F03DB800F03BB800F039B800F037B800F035B800F00CB800F01CB800F02AB800A83860E0
S3290000CB602888042829D90420288026E0002605E03868815D00A88155761CF6B2042EF7D31BE0DFF8EC
S3290000CB849200801938600120288014E0608800F47F400012C1B2DFF87A0081550BE0DFF872008019F3
S3290000CBA838600120288004E06088C1B2DFF85E008155DFF85E008068002821D0E088288060786188B1
S3290000CBCC3A462B46DFF846C0DCF808C0E047804614E0207800F0600040280FD1DFF82E00006800282F
S3290000CBF00AD008A8007821463A462B46DFF81AC0DCF800C0E0478046404601B0BDE8F84104B070470F
S3290000CC14C046D00BFF1FC40BFF1F00000FB4F8B507463846FFF7E4FC0446384600212278521CD2B284
S3290000CC3800F084FD0646002E42D13846DFF88A10DFF88A2000F09AF90646002E38D12178DFF87E0070
S3290000CC5C0170002523E00620684320188278342005FB00F1DFF86A004254062068432018C27834205F
S3290000CC8005FB00F1DFF85A0042540022342005FB00F1DFF8520042540022342005FB00F1DFF8460028
S3290000CCA442546D1CEDB220788542D8D30799DFF83A0041600899DFF8320001600999DFF82A008160BD
S3290000CCC83046BDE8F84004B07047E9C90000E9CA0000D40BFF1FD80BFF1FD90BFF1FDA0BFF1FDB0B36
S3290000CCECFF1FC40BFF1F00000FB42DE9F84781B0074688469A4600263846FFF775FC814638464146F8
S3290000CD10FFF7EEFD044634206043DFF8DA10085C00A9487034206043DFF8CE10085C00A9087000A878
S3290000CD34417800A80078081AC0B2042852D000A84078C10FC1EB807001EBB070C5B2342004FB00F187
S3290000CD58DFF8A2300C2005FB00F258181754342004FB00F1DFF892300C2005FB00F2581802F800802A
S3290000CD7C0C9B342004FB00F1DFF87EC00C2005FB00F20CEB01001350342004FB00F2DFF86E300C202E
S3290000CDA005FB00F1981821F800A0DFF84A103420604308180178491CC9B2017000A84078411CC9B2C5
S3290000CDC400A8417000A8407800A90978401AC0B2012808D1384641460C9A534600F02EF9064600E00D
S3290000CDE8C126304601B0BDE8F84704B07047DB0BFF1FDA0BFF1FDC0BFF1FDD0BFF1FE00BFF1FE40BBA
S3290000CE0CFF1F000010B5044620460121DFF8142000F01EFD20460121802200F041FDBDE8104070472D
S3290000CE30100CFF1F18B581B004462046012100AA00F00CFD00A80088802806D120460121DFF81020ED
S3290000CE54128800F029FD01B0BDE818407047C046100CFF1F10B504466078002808D12046E178C901EE
S3290000CE7841F01001C9B2002200F014FDBDE810407047000038B5054668680478200284B268684078A0
S3290000CE9C044328460521224600F002FDBDE838407047000038B584B00446012102A88170002102A873
S3290000CEC00170102102A88180002102A84170204602A9097802AA927800F094FC054602A8407800907A
S3290000CEE401200190204602A9097802AA928802AB9B7800F049FC0546002102A88170204602A909788C
S3290000CF0802AA927800F07AFC02A84078009001200190204602A9097802AA928802AB9B7800F030FC0B
S3290000CF2C20460121022200F0BBFC20460621012200F0B6FC20469021002200F0B1FC20780021002285
S3290000CF50DFF80C301B68984704B0BDE8384070470C0CFF1F10B504462078052104F10A02DFF80C30A3
S3290000CF741B689847BDE810407047C0460C0CFF1F0FB438B50D4604A800782946069A00F097F804464A
S3290000CF98DFF884000560002C38D104A800781021DFF8782000F0CAFC044304A800781221DFF86C20FF
S3290000CFBC00F0C2FC044304A800781421DFF8602000F0BAFC044304A800781321DFF8542000F0B2FC78
S3290000CFE0044304A800781721DFF8482000F0AAFC044304A800781621DFF83C2000F0A2FC044304A859
S3290000D0040121032200F050FC0321DFF82C0001802046BDE8384004B07047C0460C0CFF1FB1CE00002E
S3290000D0288DCE000011CE000035CE000069CE000065CF0000100CFF1F0FB418B581B0002404A8012149
S3290000D04C00AA023200F004FC04A8062100AA00F0FFFB00A84088802818D100A8008800F0020000283A
S3290000D07012D004A80078FFF7B9FA01280CD172B604A801F08BF8002100A8418004A80121002200F02F
S3290000D0940BFC62B600A84088802808D004A805A90978069A07AB1B8801F00EF80446204601B0BDE896
S3290000D0B8184004B070470000704700000FB410B500240399DFF8240001600499DFF81C00416002A855
S3290000D0DC00780021DFF8142000F02EFC04462046BDE8104004B07047140CFF1FFDD0000030B583B039
S3290000D1000446002101A84180CD25002002902046012101AA023200F0A1FBA078012840F08580DFF84C
S3290000D12472016168082202F0D3F9DFF866018188DFF85E018180DFF85A014188DFF852014180DFF882
S3290000D1484E01C188DFF84601C180DFF84201007800F0600000282BD1DFF8320140788100DFF82E0177
S3290000D16C4058002852D001A8408803284ED2DFF81A01407800EB4003DFF8162101A84188D018085C57
S3290000D190012841D12078DFF8FE1002AA01ABDFF8F6C09CF801C04FEA8C0EDFF8EEC05CF80EC0E047E2
S3290000D1B405462FE0DFF8DA00C18801A8018001A80088002816D0DFF8CA00007800F0800000280FD103
S3290000D1D8DFF8C600DFF8B610082202F077F920460021DFF8BA2001AB1B8800F0FFFE49E0DFF8AE0045
S3290000D1FC406800280AD02078DFF88E1002AA01ABDFF89AC0DCF804C0E047054601A80090207829467F
S3290000D220DFF8722002AB00F043F82FE001A84088042803D1207800F077F927E0DFF85600007800F08F
S3290000D2448000002820D1E07800281DD1DFF85600406800280FD02089083081B201A801802078DFF830
S3290000D2683A1002AA01ABDFF83AC0DCF804C0E047054601A8009020782946DFF8122002AB00F012F82F
S3290000D28C03B0BDE830407047C046400CFF1FF4120100CC1201001C0CFF1F240CFF1F140CFF1F0000D1
S3290000D2B00FB470B515461E46089C05A80078CD2805D104A89021012200F0F0FA17E02188E8888142EC
S3290000D2D401D9E888208004A80078002132682388FFF7ACFE287800F08000802805D104A8002100229F
S3290000D2F8002300F07BFEBDE8704004B0704700000FB42DE9F8430C4691461D46207800F0030000286D
S3290000D31C17D108A80621DFF8942000F099FA0646DFF88800008800F00301DFF880000180DFF87800CC
S3290000D3400188DFF874000180022028802BE0207800F0030001280CD1A088C7B208A800783946DFF8E9
S3290000D3645420FFF701F906460120288019E0207800F00300022814D1A088C0B240F01000C0F30708F7
S3290000D38808A84146DFF8282000F064FA0646DFF820000188DFF81800018002202880DFF81000C9F829
S3290000D3AC00003046BDE8F84304B070473E0CFF1F0FB42DE9F8430C469946CD250020A9F8000060785E
S3290000D3D000F002004010C6B2207800F0030000285AD1012E2DD14FF0020801216088C0B201FA00F0BE
S3290000D3F480B200EA080000281FD000256088012840F0708008A8062100AA023200F024FA054600A8C8
S3290000D418428801216088C0B201FA00F080B242EA000100A8418008A8062100AA528800F039FA054628
S3290000D43C54E0CD2552E001216088C0B201FA00F080B200F0020000281ED000256088012844D108A8D2
S3290000D460062100AA023200F0F9F9054600A8408801226188C9B202FA01F1C94389B2014000A841809A
S3290000D48408A8062100AA528800F00EFA054629E0CD2527E0207800F00300022822D1A088C1B200A8F3
S3290000D4A8017008A800A9097841F01001C9B2324600F0F8F90546002E04D100A80078032800D1C04689
S3290000D4CC002E01D0072000E00820C7B208A80078394600AADFF810301B6898472846BDE8F84304B0C3
S3290000D4F07047C046140CFF1F0FB438B50D461C460020208004A80121042200F0CFF96888C1B2DFF80C
S3290000D514100001700020BDE8384004B07047C0463C0CFF1F0FB408B502A8DFF82C10097800F01CFE90
S3290000D53802A80121012200F0B5F902A80321DFF81420127800F0AEF90020BDE8084004B07047C046C4
S3290000D55C3C0CFF1F0FB438B515461C460120208004A80421DFF8202000F072F9DFF818000188DFF87F
S3290000D58014000180DFF80C0028600020BDE8384004B070473E0CFF1F0FB4F8B50F461E46CD24002037
S3290000D5A430800424798800A8018006A8007800A90988FFF701F8002822D0002500A80088002800D1A4
S3290000D5C8012506A801212A4600F06CF9044606A8042100AA128800F065F9044606A80078012100AA93
S3290000D5ECDFF820301B68984706A8007802210022DFF810301B6898472046BDE8F84004B07047C046F4
S3290000D610140CFF1F0FB4F8B50F4616461D460120288006A80078B988C9B2DFF81820FEF79DFF044699
S3290000D634DFF80C0030602046BDE8F84004B070473E0CFF1F0FB470B50C461E4600203080207800F04D
S3290000D6580300012801D0042009E004A80078A188C9B26288D2B2FEF791FF05460020BDE8704004B06F
S3290000D67C704700000FB470B516461D460220288004A80521DFF8182000F0E2F80446DFF810003060F0
S3290000D6A02046BDE8704004B07047C0463E0CFF1F0FB42DE9F04182B00C4660880012C5B2FF26FF2782
S3290000D6C4032D02D1A6886088C7B20A9800900B98019008A8007829463A463346FEF7C4FE80464046B1
S3290000D6E802B0BDE8F04104B07047000010B50024DFF83C004178DFF838000170002407E04FF6FF722F
S3290000D70C6100DFF82C004252641CE4B2072CF5D3002406E005226100DFF818004252641CE4B2072C8C
S3290000D730F6D3BDE810407047480CFF1F580CFF1F4A0CFF1F0FB410B51446072C01D8012C01D299204B
S3290000D75410E0601EC1B2DFF826004170FFF7C8FFDFF81E006021002200F0B0FF02A8007800F0D2F94B
S3290000D778BDE8104004B07047C046480CFF1F680CFF1F00000FB438B582B00D460024DFF8660000780F
S3290000D79C002803D1002D01D0952024E009A8017800A8817000A8057008A8018800A881800AA80178C3
S3290000D7C000A841700698007800A90AAA127900F04BFA044600A80078002809D0002C07D1DFF81A0053
S3290000D7E40078411EC9B2DFF812000170204602B0BDE8384004B07047C046480CFF1F00000FB438B5A7
S3290000D8080D460024DFF846000178DFF842004078814203D1002D01D0962014E004980078294606AAA6
S3290000D82C127800F017FB0446002D09D0002C07D1DFF816000078411CC9B2DFF80E0001702046BDE854
S3290000D850384004B07047480CFF1F00000FB478B40C46164604F00F05072C08D8012C06D3601E4100DC
S3290000D874DFF82A00405A30800DE004F01000002807D0072D05D26900DFF81600405A308001E0822021
S3290000D89800E0002078BC04B07047580CFF1F4A0CFF1F00002DE9F04180460E46174606F00F04072ED5
S3290000D8BC07D8012E05D3701E4100DFF87200475231E006F0100000282BD0072C29D2F01100F001054C
S3290000D8E0012F05D1404621462A4600F0FFFA19E0002F17D16100DFF84600405A012811D140462146B2
S3290000D9042A4600F01BFB002C0AD1012D01D1002000E00120C5B2404621462A4600F00EFB6100DFF856
S3290000D9281600475201E0822000E00020BDE8F0417047580CFF1F4A0CFF1F00000FB418B40C46062C0D
S3290000D94C03D9182C0ED2102C0CD3A100DFF81E004058002806D1049AA100DFF812004250002000E0AF
S3290000D9708C2018BC04B07047C046680CFF1F00000FB410B50446102C01D1FFF7B3FEA100DFF81C00EF
S3290000D9944058002805D00398A200DFF81010895888470020BDE8104004B07047680CFF1F08B5BF2141
S3290000D9B842F28800C4F20700017042F29401C4F20701087840F002000870002142F29800C4F2070000
S3290000D9DC0170002142F20010C4F207000170DFF884004FF42071FF2200F06CFEDFF8780000684FF479
S3290000DA008061002200F064FEDFF86800006800F50071DFF864000160FF21DFF86000017042F294016D
S3290000DA24C4F20701087800F0FD00087042F20C11C4F20701087840F040000870BF2142F28C00C4F268
S3290000DA48070001709F2142F28400C4F20700017042F29401C4F20701087800F0DF000870BDE808405B
S3290000DA6C7047C0460C0EFF1F000EFF1F040EFF1FE604FF1F0FB430B40546FF24072D0AD204A80178ED
S3290000DA90A8000818C4B203A80078012801D1A41CE4B2204630BC04B0704700000FB410B502A8007853
S3290000DAB403A9097804AA1278FFF7E0FF0446FF2C0AD0611014204143DFF81800415A4FF6FF70814295
S3290000DAD800D1FF242046BDE8104004B07047C0460C0EFF1FF8B506460C46A168E0890F180025A189F9
S3290000DAFCE089091A2088814201DD258803E0A189E089081A85B275807760BDE8F84070470FB408B5CF
S3290000DB20002142F20010C4F20700017002A80178DFF81C010170DFF81C014FF42071FF2200F0C6FD24
S3290000DB44DFF81011DFF810010160DFF80C0100684FF48061002200F0B9FD42F20C11C4F207010878AF
S3290000DB6840F08000087042F20C10C4F20700007800F080000028F6D1FF21DFF8DC00017042F20C11F2
S3290000DB8CC4F20701087840F040000870DFF8C0000068000A00F0FE0142F29C00C4F207000170DFF87C
S3290000DBB0AC000068000CC1B242F2B000C4F207000170DFF898000068000EC1B242F2B400C4F20700A9
S3290000DBD40170DFF88400006800F50071DFF880000160102142F20810C4F207000170012142F2940040
S3290000DBF8C4F207000170BF2142F28000C4F20700017042F20011C4F20701087800F07F00087042F275
S3290000DC1C8401C4F20701087840F00100087042F28401C4F20701087840F010000870842142F21C00CE
S3290000DC40C4F2070001700020BDE8084004B07047080EFF1F0C0EFF1F0012FF1F000EFF1FE604FF1F44
S3290000DC64040EFF1F0FB42DE9F04782B00D4695F80080AF7800A8DFF854010168DFF84C014068009103
S3290000DC880190A888402801D94020A880404639460022FFF7F1FE81464FEA6900C0F3070AB9F1FF0FF6
S3290000DCAC18D014200AFB00F1DFF81C01415A4FF6FF7081420ED1DFF814010168DFF8100100F5806045
S3290000DCD0814205D26878032802D8A878012801D995206FE0DFF8EC1014200AFB00F00C18607CFF2861
S3290000DCF401D100206074A88820800CA800782074607C00F001006074607C7A004FEA88011143C9B228
S3290000DD1808436074DFF8B800006860606878E074A774DFF8B4000168607CC0000E18A8887080DFF80F
S3290000DD3C9C000068706008203070DFF898000068617C81F00101C9004618A8887080DFF87C000068F8
S3290000DD60706048203070DFF870000168A8880918DFF864000160002F09D1DFF864000168607CC000DB
S3290000DD840E18307840F0800030706878012801D0012200E0002200A9B80009180868104308604FEA72
S3290000DDA8880142F2C000C4F2070008180378BA0000A98958C9B219430170002002B0BDE8F04704B08E
S3290000DDCC7047C046281301000C0EFF1F040EFF1F0012FF1F000EFF1F0FB42DE9F843C42509A800784A
S3290000DDF00AA909780022FFF759FE06467010C0F30709FF2E22D0DFF85010142009FB00F00C18DFF85E
S3290000DE1448000168607CC0000F18DFF83C000168607C80F00100C00001EB0008387800F07F0038702C
S3290000DE3898F8000000F07F0088F800004FF6FF70A08100252846BDE8F84304B07047C0460C0EFF1F50
S3290000DE5C000EFF1F0FB4F8B50E461746304639460022FFF71DFE05466810C4B2FF2D01D196202BE02F
S3290000DE8006A831463A46FFF7ADFFDFF856000268142004FB00F1DFF84E00405A111ADFF84200016012
S3290000DEA40022B10042F2C000C4F20700081802704FF6FF72142004FB00F1DFF8260042524FF0FF3263
S3290000DEC8142004FB00F1DFF81600401842600020BDE8F84004B07047C046040EFF1F0C0EFF1F00004F
S3290000DEEC0FB4F8B50F461646384631460022FFF7D7FD0446DFF8342061101420484315186C7CFF2C25
S3290000DF100DD0069839463246FFF764FFDFF81C000168E0000918087840F084000870BDE8F84004B082
S3290000DF347047C0460C0EFF1F000EFF1F0FB42DE9F84388469146404649460022FFF7ACFD0446DFF8F2
S3290000DF58942061101420484315186C7CFF2C3CD04FEA880142F2C000C4F207000E18B8F1000F13D03B
S3290000DF7CE87C012801D0012000E00020C7B2B9F1010F01D1042000E0082040F01000C0B20743307827
S3290000DFA03843307031786FF00200084040F000003070DFF83C000168E0000918087800F07B0008703A
S3290000DFC40022DFF828000168E0000A54B9F1000F05D1089841460022002300F009F8BDE8F84304B0EB
S3290000DFE87047C0460C0EFF1F000EFF1F0FB42DE9F0471F464FF094084FF0000909A8007800210022EA
S3290000E00CFFF74EFD0646DFF8AE007210142151434418667CFF2E49D0DFF89E00006886F00101C900EB
S3290000E03000EB010A002520884FF6FF7188423BD09AF800000006C00F002835D1002F14D1DFF8720087
S3290000E0540168F0000D18208868806068686028784006C00F800140F0800040F00800C0B228700020BC
S3290000E0781FE0B8B2A0810A98A0602088874200D927880020E081DFF836000168F0000D18B8B26880FB
S3290000E09C0A98686028784006C00F800140F0800040F00800C0B228704FF000084046BDE8F04704B06B
S3290000E0C070470C0EFF1F000EFF1F00000FB42DE9F04188469327404601210022FFF7E6FC0646DFF8C4
S3290000E0E484207110142048431418FF2E01D1932033E0667CDFF870000168F0000D1828780006C00F21
S3290000E108002827D14FEA880142F2C000C4F207000818007800F0020000281BD1099880B2A081089828
S3290000E12CA0600020E08128462146FFF7D9FCB8F1000F02D1C820287009E028784006C00F800140F04E
S3290000E150800040F00800C0B2287000273846BDE8F04104B07047C0460C0EFF1F000EFF1F0FB408B513
S3290000E17403A8017842F29800C4F207000170DFF8140001210122FFF78FFBBDE8084004B07047C04655
S3290000E198080EFF1F0FB410B542F20011C4F20701087800F07F00087042F20C11C4F20701087800F0B8
S3290000E1BCDF00087042F28001C4F20701087840F02000087042F28401C4F20701087800F0DF000870E9
S3290000E1E042F29401C4F20701087800F0DF00087042F29401C4F20701087840F00400087049F6404451
S3290000E204641EA4B2FEF718F9002CF9D142F29401C4F20701087800F0FB000870BDE8104004B0704752
S3290000E2280FB42DE9F84781B00D464FF000080027002600240AA8007800F004008010C1B200A801703E
S3290000E24C0AA8007800F00800C010C0B2E8706878E97800AA1278FFF70DFC8046DFF8D60101684FEA62
S3290000E270C8000F18DFF8CA01016888F00100C0000E18DFF8C2014FEA68021421514344187868686021
S3290000E29478882881607C80F00100C0F3070884F8118038784006C00F80F001008001C0B23070E87872
S3290000E2B8012846D16878002815D1DFF886010078002810D1FF21DFF87A010170284600210022FFF7A5
S3290000E2DC83FD002030702846002100220023FFF783FEDFF85A010078012803D06878002800F09880D7
S3290000E300E1892889081880B2E081A189E089814207D82889C1B22088814211D1207C01280ED1304665
S3290000E3242146FFF7E1FB30784006C00F800140F0800040F00800C0B230707BE0A0686860E089288121
S3290000E34872E06878002824D138788006000F0D2809D10120A87068680078C011C1B2DFF8E200017019
S3290000E36C15E0DFF8DA000078012810D1FF21DFF8CE000170284600210122FFF72DFD00203070284629
S3290000E390002100220023FFF72DFEA1894FF6FF70814245D0B5F80890E089484480B2E08120888145EB
S3290000E3B403D1A189E08981420BD8A08900282ED0A089218802F03CFE002928D1207C012825D1A189DE
S3290000E3D8E089091A2088814201DD208802E0A189E089081AC0F30F0ABAF1000F04D1606870600020F4
S3290000E3FC708005E0A168E08908187060A6F802A030784006C00F800140F0800040F00800C0B2307048
S3290000E4200AE0A0686860E08928814FF6FF70A08168782946FFF7A4FA01B0BDE8F84704B07047000E40
S3290000E444FF1F0C0EFF1FE604FF1F000030B585B042F28000C4F20700017842F28400C4F2070000785F
S3290000E4680840C4B242F29000C4F2070005784FF6FF7100A88180DFF84A02017800A80172002100A8F0
S3290000E48C817200200390002100A80182002100A8C172002100A88174FF2100A84172DFF81E02012126
S3290000E4B001AAFFF7D3F942F20C10C4F20700007800F00100002813D000A8808880280FD142F20011D7
S3290000E4D4C4F20701087800F07F00087042F20C11C4F20701087800F0DF00087004F0040000281BD018
S3290000E4F8042142F28000C4F20700017042F2A400C4F207000078010242F2A000C4F20700007808438F
S3290000E51C81B200A8418000A802300390122002A9FFF728FA04F00100002814D0012142F28000C4F24A
S3290000E54007000170FFF736FA102002A9FFF718FA42F29401C4F20701087800F0DF000870AFE004F05F
S3290000E5640800002817D0082142F28000C4F20700017005F0F0000011C1B200A84172284602A9FFF798
S3290000E5884FFE42F29401C4F20701087800F0DF00087004F00200002825D0022142F28000C4F2070027
S3290000E5AC017042F28800C4F20700017842F28C00C4F2070000780840C1B200A88174162002A9FFF7BE
S3290000E5D0D7F9BF2142F28800C4F20700017042F29401C4F20701087800F0DF00087004F0100000280D
S3290000E5F427D0202142F28000C4F207000170102142F28000C4F207000170142002A9FFF7B5F942F219
S3290000E6180C11C4F20701087840F02000087042F20011C4F20701087840F08000087042F28401C4F29B
S3290000E63C0701087840F02000087004F02000002811D0202142F28000C4F207000170132002A9FFF750
S3290000E6608FF942F28401C4F20701087800F0DF00087004F08000002823D0FF2100A8417202A81021E5
S3290000E68400AAFFF7E9F800A80088012805D1002100A84172012100A8C172802142F28000C4F2070031
S3290000E6A80170172002A9FFF767F942F29401C4F20701087800F0DF00087005B0BDE830407047080EBA
S3290000E6CCFF1F00000FB408B5029804A90978039A00F004FFBDE8084004B07047F8B500270024C1F627
S3290000E6F0FF744FF44045002604E028682060761C241D2D1DB6F5807FF7D30021C1F6FF714EF6085036
S3290000E714CEF20000016000F0F9F80020FEF79AF8FEF764F8FDF788FEFEF784F8FAE7000048F23801A2
S3290000E738C4F20401086840F4006008604BF22001C4F20401086840F0640008604FF480714BF220007A
S3290000E75CC4F2040001604BF22401C4F20401086840F0640008604FF480714BF22400C4F2040001603F
S3290000E7804FF28401C4F20F01086840F4407008604FF29401C4F20F01086840F44070086048F238015C
S3290000E7A4C4F20401086840F4085008604FF4807149F24C00C4F2040001604FF4807149F22800C4F209
S3290000E7C8040001604FF4807149F22C00C4F2040001604FF4807149F27000C4F2040001604FF48071DE
S3290000E7EC49F27400C4F2040001604FF21401C4F20F01086840F4806008604FF21401C4F20F010868A5
S3290000E81040F4006008604FF21401C4F20F01086840F0805008604FF21401C4F20F01086840F00050E2
S3290000E83408604FF4807149F24C00C4F2040001604FF29402C4F20F0211686FF400200840106049F2EF
S3290000E8584C01C4F20401086840F00300086049F24C01C4F20401086840F4102008604FF480714DF291
S3290000E87C6800C4F2040001604FF29402C4F20F0211686FF08060084010604DF26801C4F2040108680E
S3290000E8A040F0030008604DF26801C4F20401086840F41020086049F2A001C4F20401086840F40020B9
S3290000E8C408604DF2A001C4F20401086840F0806008604FF400014EF28820CEF2000001604FF40001AE
S3290000E8E84EF20810CEF2000001604FF000614EF28820CEF2000001604FF000614EF20810CEF200002C
S3290000E90C0160704708B5DFF890104EF60850CEF2000001604EF28811CEF20001086840F400700860C2
S3290000E9304EF20811CEF20001086840F400700860FFF7F8FE00F088F800214DF20000C4F20000016054
S3290000E95448F24801C4F20401086800F00F00086048F24800C4F20400006848F23401C4F20401086846
S3290000E97840F48020086048F20401C4F20401086840F4A020086047F20001C4F20401086840F000409E
S3290000E99C0860BDE80840704700C000004FF400014EF28820CEF2000001604FF400014EF20810CEF2DC
S3290000E9C00000016072B649F2A000C4F20400006800F4002000280FD0DFF82000007840F00201DFF813
S3290000E9E41800017049F2A001C4F20401086840F40020086062B670470016FF1F4FF000614EF2882032
S3290000EA08CEF2000001604FF000614EF20810CEF20000016072B64DF2A000C4F20400006800F08060B1
S3290000EA2C00280FD0DFF82000007840F00801DFF8180001704DF2A001C4F20401086840F0806008602E
S3290000EA5062B670470016FF1F002144F20100C4F206000170982144F20000C4F20600017044F20600BC
S3290000EA74C4F20600007800F010000028F6D144F20600C4F20600007800F00C0080080228F5D1182138
S3290000EA9844F20400C4F206000170002144F20500C4F2060001704FF4803148F24400C4F204000160D7
S3290000EABC402144F20500C4F20600017044F20600C4F20600007800F020000028F6D044F20600C4F207
S3290000EAE00600007800F040000028F6D044F20001C4F20601087800F03F00087044F20600C4F206005D
S3290000EB04007800F00C0080080328F5D10020704710B5012000F022FDDFF81440A06810B18047002053
S3290000EB28A06000F011FEBDE8104070470416FF1F10B500F0ADFDDFF82440206810B180470020206096
S3290000EB4CDFF81440A06810B180470020A06000F0F9FDBDE8104070470416FF1F78B581B041F0030365
S3290000EB7042180E460446C360083A136000251030183922460023009500F0B2F8A6F11800A060E06844
S3290000EB9404F1100120F007002018001F0560204600F04CF801B0BDE87840704770B5C368064623F070
S3290000EBB80703C3181B1FD3F800C01546BCF1000F04BF0024846032D0DCF8003023F0070364469E46F6
S3290000EBDC12E0E468236823F007039E4538BF9E46644509D1C0F808E012B1AEF1080010600020BDE8A9
S3290000EC00704070478B42EAD3581A502802D3204600F086F8F068E16820F007003018001F0160304670
S3290000EC24214600F041F825B1206820F00700083828602046BDE870407047000038B50A68044622F0CC
S3290000EC48070322F002020A60CA58CD1822F00402CA502A1F1360C26822F007028018051F286800286A
S3290000EC6C02BF29608960C9600FD080688860C1602868C8602868816029600846294600F07FF829460D
S3290000EC90286000F0B1F82868006820F00701A068884238BFA160BDE8384070470A6822F0070342F0CB
S3290000ECB402020A60CA5842F00402CA50C26822F007028218131F1A688A4204BFCA681A601A688A4238
S3290000ECD802BF00211960816005D08A68C8688260CA688868C260704742F001024260016013B141F0D5
S3290000ECFC04020260009A42B1026842F002020260425842F00402425070474018001F0160704700004D
S3290000ED202DE9F84781B00668824606F002020127894602B10027441840684FF0010820F001050FB120
S3290000ED444FF00008504649462A4606F00403CDF80080FFF7CBFF26F007012046A1EB09012A464346B4
S3290000ED68CDF80080FFF7C0FF3FB1DAF80C00E0608460C4F808A0CAF80C40204601B0BDE8F847704771
S3290000ED8C18B4026812F004022DD1021F126812F0020328D1831AD3F800C00CF007041C60D0F800C053
S3290000EDB02CF0070C94442CF0070C44EA0C0CC3F800C01CF0020C08D1D0F800C02CF0070C02EB0C049B
S3290000EDD41A19121F14600A68824204BFD2680A608268C1688A60C1688868C160184618BC7047000080
S3290000EDF830B4046824F0070550F805C042191CF002032ED12CF00703EB1804F0070423F0070C44EA8D
S3290000EE1C0C0CC0F800C01CF0020C04BF00EB030C4CF8043CD0F800C01CF0020C50F803C00CBF2CF04D
S3290000EE40040C4CF0040C40F803C00868904204BFC06808600868904204BF002008609168D06881601D
S3290000EE64D1689068C16030BC704700000268002A02BF01600960496007D012680A60516002684A6047
S3290000EE88026811600160704770B5064601F11F0020F00705B5F5803F38BF4FF48035284600F0DCFA43
S3290000EEAC044630B12946FFF759FE30462146FFF7D9FF2046BDE8704070470000F8B5044616460AB12A
S3290000EED0002313600F3121F00707502F38BF5027056825B920463946FFF7D2FF05461DB90020BDE859
S3290000EEF4F8407047A868874207D8284639463246FFF754FE08B125600CE06D6820688542F0D120462B
S3290000EF183946FFF7B9FF20B139463246FFF744FE0830BDE8F8407047F8B5064601F10F0020F00705C0
S3290000EF3C1446502D38BF5025002010603768E7B1B868854207D8384629460022FFF72AFE08B137605E
S3290000EF6010E0B868082805D9A0F108012068884238BF21607F6830688742E7D10020BDE8F840704751
S3290000EF840830BDE8F840704708394868DFF8083020F001001847C04641EC000018B40160426048607D
S3290000EFA8DFF80C11106051F8231081600B1D0399DDF808C0B1FBF3F14A1E6FD0D10800F034800CEB72
S3290000EFCC0304CCF80000CCF80440A446E418CCF80000CCF80440A446E418CCF80000CCF80440A446FA
S3290000EFF0E418CCF80000CCF80440A446E418CCF80000CCF80440A446E418CCF80000CCF80440A446E1
S3290000F014E418CCF80000CCF80440A446E418CCF80000CCF80440A446491E7FF4CCAF12F0040F00F014
S3290000F03819800CEB0304CCF80000CCF80440A446E418CCF80000CCF80440A446E418CCF80000CCF82B
S3290000F05C0440A446E418CCF80000CCF80440A44612F0020F00F00D800CEB0304CCF80000CCF8044050
S3290000F080A446E418CCF80000CCF80440A44612F0010F00F007800CEB0304CCF80000CCF80440A4468D
S3290000F0A4CCF800000022CCF8042002990261C16018BC704730130100DFF80830002134221847C0469B
S3290000F0C8E9F4000010B5DFF8204094F8380030B9DFF81800FFF7EEFF012084F83800DFF80C00BDE869
S3290000F0EC104070479016FF1F9016FF1F2DE9F84F84B0934682460025DFF83C2101E06D1C121D1368CC
S3290000F1109942FAD8001D00EBC506706810B1C068002870D1DFF81C0140F6EC7150F82500001DB1FB6E
S3290000F134F0F14FF00009B1F5807F88BF4FF48071DFF8FC00884650F82500041D03AF0FE0614350465E
S3290000F15814313A46FFF7E8FE814648B90398142898BF002102D91438B0FBF4F10A29EDD2B9F1000F73
S3290000F17C20D1DFF8C40050F82500071D00F1180408FB07F15046143102AAFFF797FE814680B9029898
S3290000F1A0B0FBF4F8B8F10A0FF0D2BBF1000F1CBF0020CBF8000004B00020BDE8F84F7047A9F104009C
S3290000F1C4006810F001010FBF8168A9F10800006820F0070018BFA0F10801706818B9C6F80490C6F8B5
S3290000F1E8009009F114000090A1F1140001903168726848462B46FFF7CFFEC6F804907168CA6850684E
S3290000F20CC86071680869401C08617168C86820B948687060306840683060BBF1000F1EBFDFF81400EC
S3290000F23050F82500CBF80000101D04B0BDE8F84F7047C0463013010008B54FF0000EDFF8DCC003E056
S3290000F2540EF1010E0CF1040CDCF800309A42F7D8021D02EBCE030A1F1168D1F80CC0BCF1000F2DD1F8
S3290000F278D3F804E08E4529D0D3F800C08C450AD1DEF800C0C3F804C0D3F800C0DCF800C0C3F800C00B
S3290000F29C1AE0D1F804E0D1F800C0CCF804E0D1F800E0D1F804C0CCF800E0D3F804C0C1F804C0DCF8B6
S3290000F2C000C0C1F800C0CCF80410D1F804C0CCF800105960D1F80CC0C2F804C0CA600A69521E0A616E
S3290000F2E41FD15A688A4204BF4A685A601A688A4204BF0A681A60D1F804C00A68C2F804C0D1F800C050
S3290000F3084A68C2F800C05A688A4204BF00225A601A688A4204BF00221A60FFF733FEBDE8084070470A
S3290000F32C3013010070B506466FF030000D461446814205D902B110600020BDE870407047DFF82800D7
S3290000F350C06B08B900F072F8442D30462946224604D8FFF7C9FEBDE870407047FFF7ACFDBDE87040F6
S3290000F3747047C0469016FF1F38B505460C4640B1FFF7A2FE29462246FFF7D0FFBDE83840704700204D
S3290000F39801B10860BDE838407047000008B5A9B10A1F126812F0010308BF926805D0A1F108021268F1
S3290000F3BC22F00702083A442A04D8FFF73FFFBDE808407047FFF7DCFDBDE8084070470000DFF804302A
S3290000F3E0002118477DF3000010B50446FFF76EFE2146FFF7D7FFBDE810407047F8B50746C8B1C81D6B
S3290000F40420F007048C4200D9083C682C38BF00200FD3FFF759FE05460068012600B102263846214666
S3290000F428FFF79EFB28463946FFF71EFD3046BDE8F8407047DFF814000121C163DFF81000DFF8101014
S3290000F44CDFF810301847C0469016FF1F1897FF1F00800000FDF30000002070472DE9F84F824689464E
S3290000F470154698460A9F18B111B10AB103B11FB90020BDE8F84F7047B847002803D14846BDE8F84F86
S3290000F4947047B8BF002018DB01246D1E12E06019460808FB06FB504609EB0B01B847002804D109EB1A
S3290000F4B80B00BDE8F84F7047A8BF741C00DA751EAC42EAD90020BDE8F84F70478446521C03E011F880
S3290000F4DC013B0CF8013B521EF9D1704710B5044600F004F82046BDE810407047CBB2202A2AD3414245
S3290000F50011F0030104D0521A00F8013B491EFBD12BB1190441EA036141EA03210B435FEA521C0DD07C
S3290000F524036043608360C36003614361836100F11C0120300B60BCF1010CF1D102F01F01890803D00A
S3290000F54840F8043B491EFBD102F003021AB100F8013B521EFBD1704738B5431E0546062B04D900203F
S3290000F56CC043BDE838407047DFF8382052F82340012C1CBF002142F82310012C02D02CB9012803D14B
S3290000F5900020BDE838407047002C00D002D10020FFF7CAFA2846A0470020BDE838407047D016FF1F67
S3290000F5B418B490F800C00A78BCEB020218BF104655D100F0030301F003029A423FD1E3B1BCF1000F71
S3290000F5D808BF002049D0C3F10302131C8AB1401C491C90F800C00C78BCEB040418BF20463BD1BCF1B4
S3290000F5FC000F08BF002036D0521E5B1EEDD1401C491CD0F800C0ACF1013222EA0C020B6812F08032E8
S3290000F6200FD109E0001DD0F800C0091DACF101320B6812F0803204D19C45F3D0401E491E07E090F888
S3290000F64400C00A78BCEB020218BF10460FD1BCF1000F08BF00200AD0401C491C02780B78D31A18BFA3
S3290000F668184602D1002AF5D1002018BC7047000010B5DFF8164001E08047241D14B120680028F9D192
S3290000F68CBDE810407047880BFF1F000010B5DFF81E4006E010684FF0FF31206090685268904722689D
S3290000F6B0002AF5D1BDE810407047EC16FF1F000070470000884224D01AB320E011F003030AD110F050
S3290000F6D4030307D1042A05D351F8043B40F8043B121F12E011F001030AD110F0010307D1022A05D346
S3290000F6F831F9023B20F8023B921E04E011F8013B00F8013B521E002ADCD1704770B50024DFF82E5083
S3290000F71C08E07068B268FFF7CFFF7068B168FFF7C9FF0C3429592E190029F2D170680028EFD1B068A9
S3290000F7400028ECD1BDE870407047601C01000000DFF804301847C04665F70000F7460000F7460000EB
S3290000F764DFF808101820ABBEF746C04626000200DFF81000DFF81020DFF810300021121A1847C046C9
S3290000F788900BFF1F0017FF1FE9F40000FFF7E2FFFCF73AFEDFF83A00002805D0854681B00020C0435D
S3290000F7AC009001B0FFF7E0FFDFF82600002801D0FFF7AAFFFFF75AFFFFF7CCFF0020DFF81610FEF766
S3290000F7D08BFF0020FFF7B0F9FEE71897FF1F601C0100F016FF1F00000068704708B5002300F03CF850
S3290000F7F4BDE808407047000008B5012300F034F8BDE808407047000008B5022300F02CF8BDE80840C3
S3290000F818704700000168490000EB61007047000008B582B00A4601A9009100210B4600F0A7FC019842
S3290000F83C02B0BDE8084070470FB408B50A4604A9009100210B4600F081FCBDE8084004B07047000007
S3290000F860012101FA00F0401E704700002DE9F84F8CB0144600220592002204920392CA6C83460D4611
S3290000F8840193079268B101280BD0022809D028460121002200F070FE0CB00920BDE8F84F7047002253
S3290000F8A806920A6D12F0010240F07581022808BF8E6B0AD0002B0FBF002107980068C0F3074107987D
S3290000F8CC001D00EB81060198022808D1D6F80080B8F1000F00F05D817168083607E0B6F80080B8F13E
S3290000F8F0000F00F054817188361D01F0010208F0010040EA42000328E3D8DFE810F004003800C100CB
S3290000F9143E01BBF1000F2ED0A86C471820460F21FFF780FF87429CBF07EB0801884222D8301DA86318
S3290000F938284601F08BF948B928460121002200F019FE0CB00920BDE8F84F70473046FFF761FF064668
S3290000F95C20460F213246FFF76FFF28460321324600F006FE0CB00720BDE8F84F7047361DA9E7BBF1FC
S3290000F980000F61D1A86C471820460F21FFF74CFF874200F27B80A8F101017918884280F075807768E2
S3290000F9A46FF00100874209D128460121022200F0E3FD0CB00920BDE8F84F7047B7F1FF3F02BF05F18D
S3290000F9C858000B90012013D0306800F00040B0F1004F0CBF01200020C0F30708301DFFF7FFFE07460B
S3290000F9EC2846394642460BAB01F016F8002847D00228204609D10D21FFF710FFEE6228620B98A86264
S3290000FA1005F1280005E00D21FFF706FFEE6228620B9868623046FFF7F9FE02462846022100F0A4FD8C
S3290000FA34284680213A4600F09FFD0CB00620BDE8F84F704720460D21FFF7ECFE296A814204BFE86A29
S3290000FA58B04217D13046FFF7DDFE064620460F213246FFF7EBFE204600212A46FFF7E6FE28460321C7
S3290000FA7C324600F07DFD0CB00720BDE8F84F7047083620E73068BBF1000F029020F0004739D1A86C59
S3290000FAA04018A0F1010920460F21FFF7BDFE814561D809EB080188425DD206F104084FF000090DF1C4
S3290000FAC4280A0DE04046FFF78DFE014628460022534600F0A5FF28B908F1040809F10109B945EFD344
S3290000FAE8B94544D120460D21FFF79AFE286200206862DFF8302628460221EE6200F03AFD0CB0062034
S3290000FB0CBDE8F84F704720460D21FFF787FE296A814204BFE86AB04227D10020E86204202863301D62
S3290000FB3068630298AF62B84204BF012006901AD0B800001D3018FFF769FE0646204600212A46FFF724
S3290000FB5477FE20460F213246FFF772FEDFF8C8252846032100F008FD0CB00720BDE8F84F7047029833
S3290000FB780021B84218BF0421B800001D40183618A3E6012128460A4600F0F4FC0CB00920BDE8F84FB7
S3290000FB9C704707980668079800F10408019820B94FF000093602032703E0C6F307493604022767B954
S3290000FBC0B9F1000F08BF4FF0B00A0DD0A9F1010958F8046BC9F30709042706F07F407F1EFFB2C0F3B5
S3290000FBE4076A3602BAF1B00F1FD10598002840F06E82049848B9012128460A4600F0BCFC0CB0092005
S3290000FC08BDE8F84F704709A80021009020460E220B4600F0B5FA099A20460F21FFF70EFE0120039058
S3290000FC2C51E2BAF13F0F0ED820460D21FFF7F6FD0AF03F0292000346121D20460D21D218FFF7FAFD6F
S3290000FC50B5E7BAF17F0F0ED820460D21FFF7E4FD0AF03F0292000346121D20460D219A1AFFF7E8FDFC
S3290000FC74A3E7BAF18F0F3FD80AF00F015FB9B9F1000F08BFB0200DD0A9F1010958F8046BC9F30709FE
S3290000FC98042706F07F407F1EFFB2C0F307603602000150EA013A09D128460121022200F061FC0CB0B5
S3290000FCBC0920BDE8F84F70470021204652460B4600F074FA48B128460121032200F050FC0CB00920B5
S3290000FCE0BDE8F84F70471AF400401CBF012005901AF480401CBF0120049060E7BAF19F0F18D80AF090
S3290000FD040F010D2901D00F2909D128460121042200F032FC0CB00920BDE8F84F70472046FFF780FD77
S3290000FD28024620460D21FFF789FD44E7BAF1AF0F1ED80AF00700401CFFF78EFD02011AF008001EBFFF
S3290000FD4C42F4804201200490002120460B4600F02DFA00283FF42DAF28460121032200F007FC0CB056
S3290000FD700920BDE8F84F7047BAF1B70F00F2A280BAF1B10F32D15FB9B9F1000F08BFB0220DD0A9F1C9
S3290000FD94010958F8046BC9F30709042706F07F407F1EFFB2C0F3076236020AB10F2A09D928460121C8
S3290000FDB8042200F0DFFB0CB00920BDE8F84F7047002120460B4600F0F3F900283FF4F3AE2846012169
S3290000FDDC032200F0CDFB0CB00920BDE8F84F7047BAF1B20F2ED14FF0000A00205FB9B9F1000F08BF2C
S3290000FE00B0220DD0A9F1010958F8046BC9F30709042706F07F417F1EFFB2C1F30762360202F07F0104
S3290000FE2481404AEA010A12F0800118BFC01DE1D120460D21FFF7F6FC024602EB8A0220460D2102F503
S3290000FE480172FFF7FBFCB6E6BAF1B30F2CD15FB9B9F1000F08BFB0200DD0A9F1010958F8046BC9F3C6
S3290000FE6C0709042706F07F407F1EFFB2C0F30760360200F0F00100F00F00401C40EA013201212046BB
S3290000FE900B4600F091F900283FF491AE28460121032200F06BFB0CB00920BDE8F84F704728460121C0
S3290000FEB4042200F061FB0CB00920BDE8F84F7047BAF1BF0F16D80AF007020121521C204642F4002272
S3290000FED80B4600F06DF900283FF46DAE28460121032200F047FB0CB00920BDE8F84F7047BAF1C70FF3
S3290000FEFC00F27B8032D15FB9B9F1000F08BFB0220DD0A9F1010958F8046BC9F30709042706F07F4096
S3290000FF207F1EFFB2C0F3076236020AB10F2A09D928460121042200F021FB0CB00920BDE8F84F7047F5
S3290000FF4420460421002300F035F900283FF435AE28460121032200F00FFB0CB00920BDE8F84F704752
S3290000FF68BAF1C60F2CD15FB9B9F1000F08BFB0200DD0A9F1010958F8046BC9F30709042706F07F409E
S3290000FF8C7F1EFFB2C0F30760360200F0F00100F00F00401C40EA0132032120460B4600F005F9002821
S3290000FFB03FF405AE28460121032200F0DFFA0CB00920BDE8F84F70470AF007020321521C204642F40A
S3290000FFD420220B4600F0EEF800283FF4EEAD28460121032200F0C8FA0CB00920BDE8F84F7047BAF10A
S3290000FFF8C80F09D128460121042200F0BBFA0CB00920BDE8F84F7047BAF1C90F2CD15FB9B9F1000FFA
S3290001001C08BFB0200DD0A9F1010958F8046BC9F30709042706F07F407F1EFFB2C0F30760360200F0A6
S32900010040F00100F00F00401C40EA013220460121052300F0B1F800283FF4B1AD28460121032200F045
S329000100648BFA0CB00920BDE8F84F7047BAF1CF0F09D828460121042200F07EFA0CB00920BDE8F84F0B
S329000100887047BAF1D70F16D80AF00702521C2046012142F40022052300F08AF800283FF48AAD28462C
S329000100AC0121032200F064FA0CB00920BDE8F84F704728460121042200F05AFA0CB00920BDE8F84F41
S329000100D07047069820B3204600212A46FFF7B2FB039860B908A80021009020460F220B4600F04AF814
S329000100F4089A20460E21FFF7A3FBDFF82C6020460F213246FFF79CFB28460321324600F033FA0CB035
S329000101180720BDE8F84F704708200CB0BDE8F84F7047C046290801000168490000EB6100704700007E
S3290001013C85460D98DDF838E00F9B5DF8042B20E90C009DE8FE1F854601BD0000042912D8DFE801F0FE
S32900010160030F110F0F0F0BB90F2A01D902207047009900EB820009684160002070470120704702208B
S3290001018470470000042912D8DFE801F0030F110F0F0F0BB90F2A01D90220704700EB8200416800981C
S329000101A8016000207047012070470220704700000FB42DE9F801069C07A80078042831D84FEA8000BA
S329000101CC8744F0BF00F008B800F028B800F028B800F024B800F022B809A80078002801D002201EE066
S329000101F0A66B271D08994FF6FF7001EA000505F4005809E005F00100002803D03046361D0068386056
S329000102143F1D6D08002DF3D1B8F1000F00D1A663002002E0012000E00220BDE8F80104B0704700003D
S3290001023870B504680E4601F10800DFF83410884208BF4FF0FF3502D0FFF76EFF05463046FFF76AFF48
S3290001025C844204D20020C043BDE8704070470120AC4238BF0020BDE870407047880BFF1F0FB438B519
S3290001028004460598DFF8DE10DFF8DE20801E531A0590DFF8DA009A1003EB5272009005A8D2100823DB
S329000102A4FFF7E0F8054668B90020012160612046CFF60071042200F05FF90920BDE8384004B0704737
S329000102C8FFF732FFA064686801280DD10020012160612046CFF60071022200F04BF90920BDE83840CC
S329000102EC04B0704710F000401EBF281DE064012004D1281DFFF716FFE06400202065E06C026812F0EF
S32900010310004120D0C2F3036018B9DFF8560060611CE0012804BFDFF84E00606116D0022804BFDFF842
S329000103344600606110D00020012160612046CFF60071012200F018F90920BDE8384004B07047FFF74D
S32900010358EBFE60610020BDE8384004B07047A008FF1F880BFF1F39020100EDF70000FDF700000DF898
S3290001037C00000000704700004DF808ED0DF1080E4DF804ED2DE9FF1F002102B4694681B000F006F842
S329000103A0DDF840E00DF1480D7047000078B5D1B00C46C168054611B90121C1602DE05820FFF70CF833
S329000103C406465DB901212846CFF60071052200F0D3F851B00920BDE87840704705F10C0300F10C02C2
S329000103E803CB03C203CB03C2186805F12003106003CB06F1200203C203CB03C203CB03C205F13803B8
S3290001040C03CB06F1380203C203CB03C2EE60E06B261D206401AB082203CE03C3521EFBD1012100A89B
S329000104300170417000AE10992846FFF71FFF38B100A8FFF79DFF51B00920BDE8784070476B69002051
S32900010454294632469847062809D00828E9D03046FFF78CFF51B00920BDE8784070473046FFF784FFA3
S329000104782846214600F004F851B0BDE87840704738B505460C46216C2846FFF7F3FE08B1FEF73CFB32
S3290001049C206C6B6928610120294622469847072803D1201DFFF744FEEBE70828E9D0FEF72BFBBDE882
S329000104C0384070474DF808ED0DF1080E4DF804ED2DE9FF1F002102B4694681B000F000B838B5054693
S329000104E400690C4608646B690220294622469847072805D1201DFFF71FFEBDE838407047082803D1ED
S3290001050828462146FFF7BCFFFEF700FBBDE838407047000038B5C46805460CB9FEF7F6FA012C05D16D
S3290001052CE868401EE860BDE83840704704F10C0303CB05F10C0203C203CB03C2186804F120031060A4
S3290001055003CB05F1200203C203CB03C203CB03C204F1380303CB05F1380203C203CB03C22046FEF7CE
S3290001057439FFBDE8384070477047C046DFF804301847C04615EB0000DFF804301847C0469905010014
S3290001059808B5DFF80C0000688047BDE808407047E804FF1F08B5DFF80C0040688047BDE80840704708
S329000105BCE804FF1F08B508B1FEF710FFBDE808407047000008B5042000F0B6F9DFF81410DFF8142066
S329000105E00160DFF8141000F0F9F9BDE8084070473405FF1FFD0501001005FF1F7047000010B50446BB
S32900010604FFF7DCFF2046BDE810407047DFF804007047C0460505FF1F7047000008B5884204D040686E
S329000106284968FEF7C3FF18B90120BDE8084070470020BDE80840704708B5884208D040684968FEF738
S3290001064CB3FF18B10120BDE8084070470020BDE80840704710B50446FFF7DAFF2046BDE8104070478F
S3290001067010B50446FFF7D2FF2046FFF7A1FF2046BDE810407047000010B50446FFF7C6FF2046BDE8A6
S329000106941040704710B50446FFF7BEFF2046FFF78DFF2046BDE810407047000010B50446FFF7B2FFC2
S329000106B82046BDE81040704710B50446FFF7F4FF2046BDE81040704710B50446FFF7ECFF2046FFF7AF
S329000106DC71FF2046BDE810407047000010B50446FFF7E0FF2046BDE81040704710B50446FFF7D8FF9F
S329000107002046FFF75DFF2046BDE810407047000000687047DFF804301847C04615EB000010B5DFF8D9
S329000107243C000468B4B92020FEF756FE044608B9FEF7EEF9DFF8240000210460DFF82000216060606D
S32900010748DFF81C00A060217321616161A161E1612046BDE810407047F416FF1F99070100150701007F
S3290001076C7C2902D808B1017809B100207047012100F8041B7047000010B1021D914201D000207047D5
S329000107900021017070470000DFF804301847C0469905010003680A68934201BF426848688242012035
S329000107B418BF00207047000008B5DFF81410FFF7EFFF00280CBF01200020BDE808407047C41401001F
S329000107D838B50546FFF7A0FF044615B9816801610BE02846FFF7E6FF002819BFA0682061A5F114005F
S329000107FC006808BF206101202073FFF7C7FEBDE83840704710B5044608B100F071FA2046FFF7DCFF85
S32900010820BDE81040704700002DE9F04F8DB06F468046846A056B466BFFF772FF81464046A8F1200A6E
S32900010844C7F830D000F058FA4046FFF7B5FF002814BFD9F80400DAF80800C9F81000FFF7A3FEBD4643
S329000108680DB0BDE8F04F704700F044FAD9F81480D04502D100F04AFA16E0D8F81000C9F81400C7F8F4
S3290001088C18D000F041FA07E000F032FAFFF77EFE00F03AFAD7F818D0D9F81400C8F81000C9F81480D4
S329000108B04FF0000907F1000B002C18D93046FFF727FF824608F12000514600225B4600F0A9F808B19E
S329000108D400F072F9DFF858005146FFF79FFE08B14FF001097619641EE6D1B9F1000F0BD0042000F0D3
S329000108F825F8DFF83C10DFF83C200160DFF82C1000F068F808F12000FFF762FF00F0FEF9BD460DB087
S3290001091CBDE8F04F704700F0F7F900F0D9F900F0F3F900F0D5F9C046BC06FF1FF006FF1F4109010094
S329000109407047000070B50646FFF7EAFE044606F17800FEF743FD054640B9E06906F17801FFF704FFA2
S32900010964054608B9FFF736FFDFF8343005F12002082113F8010B02F8010B491EF9D10020A862E862F3
S3290001098868612861A861E861A068E8606068A86005F17800BDE870407047C046FC06FF1F10B50446D1
S329000109ACFFF7B8FE783CC0692146FFF7E5FE10B92046FEF713FDBDE81040704708B5084600F0FAF989
S329000109D000F0A0F9BDE808407047000038B5A0F17804DFF83C002160A06201206260E0610D46FFF7D2
S329000109F495FE01682A46491C016004F120000021FFF7BAFD04F12000FFF7BAFC04F12000FFF7FCFEFD
S32900010A18BDE838407047C046C90901002DE9F04F83B08A461146DFF872B1044600910193FFF7C0FE3A
S32900010A3C20B103B00020BDE8F04F7047A4F1200050F8785BDFF85241012600270290CBF808002846FD
S32900010A605146FFF7DDFD38B10299019803B001600120BDE8F04F704725B12868001FD0F8008001E069
S32900010A84FFF7A4FDBAF1000F05D0DAF80000001FD0F8009001E0FFF799FD40462146FFF7BDFD20B9F5
S32900010AA848462146FFF7B8FD48B140464946FFF7C3FD20B103B00020BDE8F04F704740462146FFF79D
S32900010ACCA9FD20B3DAF80800A96800F0030001F00302C1437F1C114218BF002057D1D143014205D075
S32900010AF026B903B00020BDE8F04F704710F0010008BF0026DBF80800ED68DAF80CA00028A5D00068ED
S32900010B14CBF80800A1E7012F12D1DFF88A105046FFF77CFD60B10098002818BF002032D102990198DB
S32900010B3803B001600120BDE8F04F70471FB1012F26D1009820BBDFF85E104046FFF764FD28B9DFF87E
S32900010B5C56104046FFF75EFDC0B1DBF80800DFF84A102A46534600F0E9F950B1DBF8041001980160F7
S32900010B80012057B103B00220BDE8F04F704703B00020BDE8F04F7047002003B0BDE8F04F7047F416CB
S32900010BA4FF1F4805FF1F441401006C05FF1F6005FF1FF816FF1F000070B5FFF7AFFD4469064614B979
S32900010BC80020FFF705FEE06904F12005401CE0612846FFF7EFFD002811BF25683168491C3160002263
S32900010BEC00B9226828460021FFF7C2FC2846FFF7C3FB2846FFF706FEBDE870407047000038B505468A
S32900010C100C4640B12030FFF7C5FD20B12868A04208BF284612D00020FFF78CFE783800F1200C23463E
S32900010C34082213F8011B0CF8011B521EF9D10021C161416101610460BDE838407047000038B5054633
S32900010C58FFF762FD04462846FFF7ACFD002808BFA5F1200006D0A0692946FFF7CBFFC169491CC16161
S32900010C7CC169012902BFA1698161A0610120BDE83840704770B5FFF745FD846906460CB9FFF77CFC8D
S32900010CA004F120052846FFF789FD68B1E0692568012806D1A069B06104F17800FFF774FE07E0401E02
S32900010CC4E06104E0E069012804BFA069B0612846BDE8704070470000FEB442464B4654465D463EB41D
S32900010CE8FFF7D2FF3EBC90469946A246AB46FEBCFFF7E4FB38B50546446A00F05FF82846FFF708FC6E
S32900010D0C2046BDE8384070472DE9F84386B06F46FFF700FD446906460CB9FFF737FCE0694FF00108DB
S32900010D3008B94FF000086069401E606139D104F120052846FFF73AFD216981467161002804BF0020BB
S32900010D54206104D004F178002568FFF723FEB8F1000F24D1B9F1000F09D0AA68FAB1012029469047AB
S32900010D78BD4606B0BDE8F8437047616889B104F17800C7F814D088470BE0FFF7B3FF04F17800FFF728
S32900010D9C05FEFFF70DFFFFF7B7FFD7F814D004F17800FFF7FBFDBD4606B0BDE8F8437047FFF7AAFF7E
S32900010DC0FFF78CFF38B50546FFF7AAFC04462846FFF7F4FC20B160692946FFF717FF07E0A5F1200063
S32900010DE4C169491EC1612168491E21604169491C4161016911B9616901616061BDE83840704700001A
S32900010E0810B50446FFF7D8FB2046BDE810407047DFF804007047C046C806FF1F2DE9F84F84B08246F8
S32900010E2C00200390C8680091019299460290002840F27B80009800F11001039801EBC00042680468D7
S32900010E5002F0020712F0010004BF019800EB222505D0019801681012095801984518DFF8D0B0DBF871
S32900010E740480DAF800102046FFF7D0FB90B1DAF8040020B1A8421CBF01208AF80800CAF80450B9F1AE
S32900010E98000F44D0002F42D001208AF809003EE02068A0F108065E4508BF01200DD05EB1706848B192
S32900010EBC4068D8F80410FEF777FB00280CBF0120002000E0002008BBDFF86C108E4208BF01200DD039
S32900010EE05EB17068496840B140684968FEF762FB00280CBF0120002000E0002098B1B9F1000F02D0AB
S32900010F040FB1012300E00023504621462A46FFF787FF06E0A468002FABD14FF000090127A7E70398BC
S32900010F28401C03900298401E02907FF485AF04B0BDE8F84F7047C046C005FF1FB005FF1F2DE9F04F16
S32900010F4C83B0DFF8E200DFF8E250D0F800A06E680DF1000B894690461F4640463946FFF759FB60B1D4
S32900010F70DFF8BE00C9F800A00168DFF8BE0003B001600120BDE8F04F7047D8F80000A0F10804AC4237
S32900010F9408BF01200CD054B1606840B140687168FEF706FB00280CBF0120002000E00020A0BBDFF8D3
S32900010FB886108C4208BF01200DD05CB16068496840B140684968FEF7F1FA00280CBF0120002000E021
S32900010FDC002010B30020009701908BF808008BF8090000A8414652460123FFF715FF019999B19BF83C
S32900011000080080B99BF8090068B1C9F800100199DFF8260003B001600120BDE8F04F7047D8F808803F
S329000110249FE7002003B0BDE8F04F7047C046FC16FF1FC005FF1FF816FF1FB005FF1F000080EA010C1E
S329000110480CF0004C0028BCBFC0F100000CF1010C0029B8BFC1F1000100F0ED8088423CBF4FEA000128
S3290001106C4FF00000C0F0E5804FF01C024FEA1013B1EB133FDCBFA2F110024FEA1343B1EB131FDCBF26
S32900011090A2F108024FEA13239942DCBFA2F104024FEA131300FA02F0C1F10001001802EB42024FEA9A
S329000110B482027A44974651EB430338BFA3EB0103404151EB430338BFA3EB0103404151EB430338BF61
S329000110D8A3EB0103404151EB430338BFA3EB0103404151EB430338BFA3EB0103404151EB430338BF49
S329000110FCA3EB0103404151EB430338BFA3EB0103404151EB430338BFA3EB0103404151EB430338BF25
S32900011120A3EB0103404151EB430338BFA3EB0103404151EB430338BFA3EB0103404151EB430338BF00
S32900011144A3EB0103404151EB430338BFA3EB0103404151EB430338BFA3EB0103404151EB430338BFDC
S32900011168A3EB0103404151EB430338BFA3EB0103404151EB430338BFA3EB0103404151EB430338BFB8
S3290001118CA3EB0103404151EB430338BFA3EB0103404151EB430338BFA3EB0103404151EB430338BF94
S329000111B0A3EB0103404151EB430338BFA3EB0103404151EB430338BFA3EB0103404151EB430338BF70
S329000111D4A3EB0103404151EB430338BFA3EB0103404151EB430338BFA3EB0103404151EB430338BF4C
S329000111F8A3EB0103404151EB430338BFA3EB0103404151EB430338BFA3EB0103404151EB430338BF28
S3290001121CA3EB0103404151EB430338BFA3EB0103404151EB430338BFA3EB010340414FEA03011CF033
S32900011240004318BFC0F100001CF0010318BFC1F1000170474FEA00014FF00000704700000001043AF8
S329000112641E22010001030100080000000004FF1FAC04FF1F1604FF1F3404FF1F00001200220000005F
S329000112880000000000000000340000000004FF1F0400000009040000701201006212010000000000DC
S329000112AC0404FF1F5604FF1F00000000000000000000000000000000000000007804FF1F01010001DC
S329000112D0010000000001010000000000010101010100000001010001010001000001000001000000E4
S329000112F409D30000BDD3000000000000BDD3000000000000F9D40000B1D600000000000061D5000049
S3290001131899D5000015D6000049D6000081D600000800000004000000040000000C00000014000000AB
S3290001133C24000000340000004400000074006D006C00790068007600660077006400650062007300CB
S329000113607800690063006A006100506900506100507300507900506800507400506200506C005077AC
S3290001138400506400506300506A00506D00506500507800507600506600504B6600504B7300504B6558
S329000113A800504B7900504B6100504B7600504B6800504B7400504B7700504B6400504B7800504B63C5
S329000113CC00504B6A00504B6D00504B6C00504B6200504B6900000000A805FF1F56130100A805FF1FE1
S329000113F068130100A805FF1F50130100A805FF1F54130100A805FF1F5E130100A805FF1F6413010074
S32900011414A805FF1F48130100A805FF1F58130100A805FF1F62130100A805FF1F66130100A805FF1FFE
S329000114385A130100A805FF1F4C130100A805FF1F52130100A805FF1F91140100A805FF1F601301000F
S3290001145CA805FF1F5C130100A805FF1F7C140100A805FF1F4A130100A805FF1F4E13010075375F5F0E
S32900011480626F6F6C38005075375F5F626F6F6C380075385F5F626F6F6C3332005075385F5F626F6F48
S329000114A46C333200504B75375F5F626F6F6C3800504B75385F5F626F6F6C33320000000041524D006C
S30D000114C8432B2B00000000007C
S329000114D0040309041201000200000010042500010200010200011E03200020004A004D002000480028
S329000114F4490044002000440045004D004F0020002203420041004400200053005400520049004E003F
S329000115184700200049004E0044004500580009022200010100E0320904000001030102000921000149
S3290001153C00012234000705810308000A05010902A1010901A100050919012903150025019503750190
S32900011560810295017505810105010930093109381581257F750895038106C0C03A0346005200450021
S3290001158445005300430041004C0045002000530045004D00490043004F004E00440055004300540031
S329000115A84F005200200049004E0043002E00FF00810501008D050100D805FF1FF804FF1F53743965BC
S329000115CC7863657074696F6E006261645F74797065696400C805FF1F1C05FF1FF004FF1F5374313011
S329000115F06261645F7479706569640000000000001005FF1FFD0501000106010011060100D805FF1F6A
S329000116149005FF1FC805FF1F2406FF1F5405FF1FC805FF1FE005FF1F4005FF1FC805FF1F6D06FF1F81
S329000116388405FF1FC805FF1F4806FF1F8405FF1FC805FF1F9306FF1F4005FF1FC805FF1F0206FF1FCC
S3290001165C4005FF1F537439747970655F696E666F00000000000000007805FF1F6106010071060100B8
S32900011680000000006005FF1FE9060100F9060100000000006C05FF1FC1060100D1060100000000009D
S329000116A48405FF1F89060100990601004E31305F5F637878616269763131375F5F70626173655F74AD
S329000116C87970655F696E666F45004E31305F5F637878616269763131375F5F636C6173735F747970CE
S329000116EC655F696E666F45004E31305F5F637878616269763131395F5F706F696E7465725F747970A6
S32900011710655F696E666F45004E31305F5F637878616269763132305F5F73695F636C6173735F7479A9
S3290001173470655F696E666F45004E31305F5F637878616269763132315F5F766D695F636C6173735F91
S32900011758747970655F696E666F45004E31305F5F637878616269763132335F5F66756E64616D656E50
S3290001177C74616C5F747970655F696E666F450000C805FF1FD606FF1FF004FF1F6261645F657863656E
S329000117A07074696F6E00537431336261645F657863657074696F6E0000000000BC06FF1F4109010049
S329000117C4090E0100190E010041524D00432B2B000000000084000181B0B003000000000084000181D2
S329000117E8B0B003030000000084020181B0B0033F0000000084010181B0B0031F000000008400018137
S3290001180CB0B0030F0000000084010181B0B0037F0000000084000181B0B003030000000084010181E3
S32900011830B0B003010000000084000181B0B0033F0000000084000181B0B0033F0000000084000181D3
S32900011854B0B003030000000084000181B0B003000000000084000181B0B00303000000008400018128
S32900011878B0B0030F0000000084000181B0B0030F0000000084010181B0B0031F0000000084020181CA
S3290001189CB0B003030000000084000181B0B003030000000084000181B0B003000000000084010181DF
S329000118C0B0B0037F0000000084000181B0B0033F0000000084000181B0B0030F0000000084000181F5
S329000118E4B0B0030F0000000084000181B0B0033F0000000084000181B0B0030000000000840101814F
S32900011908B0B0037F0000000084000181B0B00300000000000C970181B0B0FF8404007400CB000260BC
S3290001192C05006A0035000260FFFFFFFF98005800BF0002601F002400FDFF0160FFFFFFFF00000000E1
S3290001195006970181B0B03F8408008A003105026005007C00FF040260FFFFFFFF0000000065BD01609B
S329000119740084008049BF0160B001848089BF016000840080A1BF01604CFEFF7F31C0016050FEFF7FD2
S3290001199861C001601F84038019C101604CFEFF7F11C2016050FEFF7F41C3016054FEFF7F0DC4016012
S329000119BC58FEFF7F21C50160B00184803DC501600184018069C50160B001848085C5016003840080D1
S329000119E0A1C50160038404804DC60160B001848065C601602CFEFF7F19C7016030FEFF7F95C7016003
S32900011A0403018480C5C701600384028071C9016003078480C1C901601CFEFF7F6DCA016020FEFF7F59
S32900011A28A1CB016024FEFF7FC9CB016028FEFF7FF9CB01602CFEFF7F29CC016030FEFF7F9DCC0160F4
S32900011A4C34FEFF7FC9CC016003078480F9CC01600307848021CD016028FEFF7FADCD016003018480B1
S32900011A70EDCD016024FEFF7F5DCE016028FEFF7FFDCE0160B01F8480C9CF016003018480F5CF01603B
S32900011A9400840080E5D00160030184804DD101600CFEFF7F91D2016010FEFF7F05D4016014FEFF7FE4
S32900011AB879D4016018FEFF7FFDD401601CFEFF7F49D5016020FEFF7FF5D50160037F8480C5D601602F
S32900011ADC031F848061D7016014FEFF7F85D701600301848009D8016010FEFF7F29DA0160038404808E
S32900011B00A1DC01600CFEFF7FB1DC01600F840080D1DE01600084008039FB0160B00080803DFB016061
S32900011B24B000808041FB0160008400804DFB01600084008059FB01600084008061FB0160008400801E
S32900011B4889FB0160B0018480A1FB016000840080B9FB016000840080D1FB0160B0018480D9FB0160A7
S32900011B6CB0018480E9FB0160B0018480F1FB0160B001848001FC0160B001848009FC0160B00184806F
S32900011B9011FC0160B001848021FC0160B001848029FC0160B00184803DFC0160B000808041FC0160B1
S32900011BB4B0018480B1FC0160B0008080CDFC016000840080E1FC01600384008011FD0160B0018480FC
S32900011BD821FD016040FDFF7F35FE0160B007848091FE0160B0018480A9FE016000840080B5FE016094
S32900011BFC03840080F5FE0160FF84028085000260B0078480CD000260038400800D010260038400800F
S32900011C2041010260B0078480A501026003840080B50102601CFDFF7F5D0202600384008099020260B7
S32100011C44B0018480AD020260FF840480C9030260FF84028000000000000000007D
S31D00011C60D01401000004FF1F90070000000000000000000000000000C7
S7050000F7946F
