S0030000FC
S3290000C000B884FF1F49C7000051C400004DC400004DC400004DC400004DC400004DC400004DC4000031
S3290000C0244DC400004DC400004DC400004DC400004DC400004DC400004DC400004DC400004DC4000059
S3290000C0484DC400004DC400004DC400004DC400004DC400004DC400004DC400004DC400004DC4000035
S3290000C06C4DC400004DC400004DC400004DC400004DC400004DC400004DC400004DC400004DC4000011
S3290000C0904DC400004DC400004DC400004DC400004DC400004DC400004DC400004DC400004DC40000ED
S3290000C0B44DC400004DC400004DC400004DC400004DC400004DC400004DC400004DC400004DC40000C9
S3290000C0D84DC400004DC400004DC400004DC400004DC400004DC400004DC400004DC400004DC40000A5
S3290000C0FC4DC400004DC400004DC400004DC400004DC400004DC400004DC400004DC400004DC4000081
S3290000C1204DC400004DC400004DC400004DC400004DC400004DC400004DC400004DC400004DC400005C
S3290000C1444DC400004DC400004DC400005DC500004DC400004DC400004DC400004DC400004DC4000027
S3290000C1684DC400004DC400004DC400004DC400004DC400004DC400004DC400004DC400004DC4000014
S3290000C18C4DC400004DC400004DC400004DC400004DC400004DC400004DC400004DC400004DC40000F0
S3290000C1B04DC400004DC400004DC400004DC400004DC400004DC400004DC400004DC400004DC40000CC
S3110000C1D44DC400004DC400004DC4000026
S3290000C410DFF834104EF60850CEF2000001604CF2205142F20E00C4F2050001804DF6281142F20E003F
S3290000C434C4F205000180D22142F20000C4F205000180704700C000007047000070470000F8B5002786
S3290000C4580024C1F6FF744FF44045002604E028682060761C241D2D1DB6F5807FF7D30021C1F6FF71B1
S3290000C47C4EF60850CEF20000016048F23801C4F20401086840F40070086048F23C01C4F2040108688D
S3290000C4A040F4000008604FF20002C4F20F0211686FF48060084010604FF21401C4F20F01086840F498
S3290000C4C48060086049F22800C4F20400016847F6FF70CFF6FF60084040F4807149F22800C4F2040026
S3290000C4E80160002147F20000C4F203000160002147F20810C4F203000160012147F20C10C4F2030099
S3290000C50C01604FF4200147F20010C4F203000160032147F20810C4F20300016080214EF24440CEF229
S3290000C530000001704EF20811CEF20001086840F0100008604EF28821CEF20001086840F0100008607C
S3290000C55462B67F1CFDE70000012147F20C10C4F20300016047F20010C4F2030000684FF20001C4F233
S3290000C5780F01086880F480600860704710B500F061F8DFF82440206810B1804700202060DFF8144082
S3290000C59CA06810B180470020A06000F0ADF8BDE8104070470804FF1F10B5044600F004F82046BDE854
S3290000C5C010407047CBB2202A2AD3414211F0030104D0521A00F8013B491EFBD12BB1190441EA0361CF
S3290000C5E441EA03210B435FEA521C0DD0036043608360C36003614361836100F11C0120300B60BCF18E
S3290000C608010CF1D102F01F01890803D040F8043B491EFBD102F003021AB100F8013B521EFBD1704730
S3290000C62C10B5DFF8164001E08047241D14B120680028F9D1BDE8104070470004FF1F000010B5DFF860
S3290000C6501E4006E010684FF0FF3120609068526890472268002AF5D1BDE8104070479404FF1F0000B0
S3290000C67470470000884224D01AB320E011F003030AD110F0030307D1042A05D351F8043B40F8043B95
S3290000C698121F12E011F001030AD110F0010307D1022A05D331F9023B20F8023B921E04E011F8013B00
S3290000C6BC00F8013B521E002ADCD1704770B50024DFF82E5008E07068B268FFF7CFFF7068B168FFF7FF
S3290000C6E0C9FF0C3429592E190029F2D170680028EFD1B0680028ECD1BDE870407047A8C7000000003B
S3290000C704DFF804301847C04619C70000F7460000F7460000DFF808101820ABBEF746C0462600020046
S3290000C728DFF81000DFF81020DFF810300021121A1847C0460804FF1F9C04FF1FB5C50000FFF7E2FFF7
S3290000C74CFFF760FEDFF83A00002805D0854681B00020C043009001B0FFF7E0FFDFF82600002801D036
S3290000C770FFF7AAFFFFF75AFFFFF7CCFF0020DFF81610FFF767FE0020FFF7FCFEFEE7B884FF1FA8C7BA
S3110000C79400009804FF1F000000000000D9
S30D0000C7A000000000000000008B
S31D0000C7A8A0C700000004FF1F08000000000000000000000000000000E2
S7050000C748EB
